{
  "_format": "hh-sol-artifact-1",
  "contractName": "Escrow",
  "sourceName": "contracts/Escrow.sol",
  "abi": [
    {
      "inputs": [],
      "stateMutability": "nonpayable",
      "type": "constructor"
    },
    {
      "anonymous": false,
      "inputs": [
        {
          "components": [
            {
              "internalType": "uint256",
              "name": "id",
              "type": "uint256"
            },
            {
              "internalType": "address payable",
              "name": "buyer",
              "type": "address"
            },
            {
              "internalType": "address payable",
              "name": "seller",
              "type": "address"
            },
            {
              "internalType": "uint256",
              "name": "amount",
              "type": "uint256"
            },
            {
              "internalType": "enum Escrow.State",
              "name": "state",
              "type": "uint8"
            }
          ],
          "indexed": false,
          "internalType": "struct Escrow.Order",
          "name": "order",
          "type": "tuple"
        }
      ],
      "name": "OrderConfirmed",
      "type": "event"
    },
    {
      "anonymous": false,
      "inputs": [
        {
          "components": [
            {
              "internalType": "uint256",
              "name": "id",
              "type": "uint256"
            },
            {
              "internalType": "address payable",
              "name": "buyer",
              "type": "address"
            },
            {
              "internalType": "address payable",
              "name": "seller",
              "type": "address"
            },
            {
              "internalType": "uint256",
              "name": "amount",
              "type": "uint256"
            },
            {
              "internalType": "enum Escrow.State",
              "name": "state",
              "type": "uint8"
            }
          ],
          "indexed": false,
          "internalType": "struct Escrow.Order",
          "name": "order",
          "type": "tuple"
        }
      ],
      "name": "OrderCreated",
      "type": "event"
    },
    {
      "anonymous": false,
      "inputs": [
        {
          "components": [
            {
              "internalType": "uint256",
              "name": "id",
              "type": "uint256"
            },
            {
              "internalType": "address payable",
              "name": "buyer",
              "type": "address"
            },
            {
              "internalType": "address payable",
              "name": "seller",
              "type": "address"
            },
            {
              "internalType": "uint256",
              "name": "amount",
              "type": "uint256"
            },
            {
              "internalType": "enum Escrow.State",
              "name": "state",
              "type": "uint8"
            }
          ],
          "indexed": false,
          "internalType": "struct Escrow.Order",
          "name": "order",
          "type": "tuple"
        }
      ],
      "name": "OrderDeleted",
      "type": "event"
    },
    {
      "anonymous": false,
      "inputs": [
        {
          "components": [
            {
              "internalType": "uint256",
              "name": "id",
              "type": "uint256"
            },
            {
              "internalType": "address payable",
              "name": "buyer",
              "type": "address"
            },
            {
              "internalType": "address payable",
              "name": "seller",
              "type": "address"
            },
            {
              "internalType": "uint256",
              "name": "amount",
              "type": "uint256"
            },
            {
              "internalType": "enum Escrow.State",
              "name": "state",
              "type": "uint8"
            }
          ],
          "indexed": false,
          "internalType": "struct Escrow.Order",
          "name": "order",
          "type": "tuple"
        }
      ],
      "name": "OrderRefunded",
      "type": "event"
    },
    {
      "anonymous": false,
      "inputs": [
        {
          "components": [
            {
              "internalType": "uint256",
              "name": "id",
              "type": "uint256"
            },
            {
              "internalType": "address payable",
              "name": "buyer",
              "type": "address"
            },
            {
              "internalType": "address payable",
              "name": "seller",
              "type": "address"
            },
            {
              "internalType": "uint256",
              "name": "amount",
              "type": "uint256"
            },
            {
              "internalType": "enum Escrow.State",
              "name": "state",
              "type": "uint8"
            }
          ],
          "indexed": false,
          "internalType": "struct Escrow.Order",
          "name": "order",
          "type": "tuple"
        }
      ],
      "name": "RefundAsked",
      "type": "event"
    },
    {
      "anonymous": false,
      "inputs": [
        {
          "indexed": false,
          "internalType": "address",
          "name": "seller",
          "type": "address"
        }
      ],
      "name": "SellerRegistered",
      "type": "event"
    },
    {
      "inputs": [
        {
          "internalType": "uint256",
          "name": "orderId",
          "type": "uint256"
        }
      ],
      "name": "askRefund",
      "outputs": [],
      "stateMutability": "nonpayable",
      "type": "function"
    },
    {
      "inputs": [
        {
          "internalType": "uint256",
          "name": "orderId",
          "type": "uint256"
        }
      ],
      "name": "confirmOrder",
      "outputs": [],
      "stateMutability": "nonpayable",
      "type": "function"
    },
    {
      "inputs": [
        {
          "internalType": "address payable",
          "name": "seller",
          "type": "address"
        }
      ],
      "name": "createOrder",
      "outputs": [],
      "stateMutability": "payable",
      "type": "function"
    },
    {
      "inputs": [
        {
          "internalType": "uint256",
          "name": "orderId",
          "type": "uint256"
        }
      ],
      "name": "deleteOrder",
      "outputs": [],
      "stateMutability": "nonpayable",
      "type": "function"
    },
    {
      "inputs": [],
      "name": "getBalance",
      "outputs": [
        {
          "internalType": "uint256",
          "name": "",
          "type": "uint256"
        }
      ],
      "stateMutability": "view",
      "type": "function"
    },
    {
      "inputs": [],
      "name": "getOrders",
      "outputs": [
        {
          "components": [
            {
              "internalType": "uint256",
              "name": "id",
              "type": "uint256"
            },
            {
              "internalType": "address payable",
              "name": "buyer",
              "type": "address"
            },
            {
              "internalType": "address payable",
              "name": "seller",
              "type": "address"
            },
            {
              "internalType": "uint256",
              "name": "amount",
              "type": "uint256"
            },
            {
              "internalType": "enum Escrow.State",
              "name": "state",
              "type": "uint8"
            }
          ],
          "internalType": "struct Escrow.Order[]",
          "name": "",
          "type": "tuple[]"
        }
      ],
      "stateMutability": "view",
      "type": "function"
    },
    {
      "inputs": [
        {
          "internalType": "address",
          "name": "user",
          "type": "address"
        }
      ],
      "name": "getOrdersOfUser",
      "outputs": [
        {
          "components": [
            {
              "internalType": "uint256",
              "name": "id",
              "type": "uint256"
            },
            {
              "internalType": "address payable",
              "name": "buyer",
              "type": "address"
            },
            {
              "internalType": "address payable",
              "name": "seller",
              "type": "address"
            },
            {
              "internalType": "uint256",
              "name": "amount",
              "type": "uint256"
            },
            {
              "internalType": "enum Escrow.State",
              "name": "state",
              "type": "uint8"
            }
          ],
          "internalType": "struct Escrow.Order[]",
          "name": "",
          "type": "tuple[]"
        }
      ],
      "stateMutability": "view",
      "type": "function"
    },
    {
      "inputs": [],
      "name": "getSellers",
      "outputs": [
        {
          "internalType": "address[]",
          "name": "",
          "type": "address[]"
        }
      ],
      "stateMutability": "view",
      "type": "function"
    },
    {
      "inputs": [],
      "name": "getTotalOrders",
      "outputs": [
        {
          "internalType": "uint256",
          "name": "",
          "type": "uint256"
        }
      ],
      "stateMutability": "view",
      "type": "function"
    },
    {
      "inputs": [],
      "name": "getTotalSellers",
      "outputs": [
        {
          "internalType": "uint256",
          "name": "",
          "type": "uint256"
        }
      ],
      "stateMutability": "view",
      "type": "function"
    },
    {
      "inputs": [],
      "name": "owner",
      "outputs": [
        {
          "internalType": "address",
          "name": "",
          "type": "address"
        }
      ],
      "stateMutability": "view",
      "type": "function"
    },
    {
      "inputs": [
        {
          "internalType": "uint256",
          "name": "orderId",
          "type": "uint256"
        }
      ],
      "name": "refundBuyer",
      "outputs": [],
      "stateMutability": "payable",
      "type": "function"
    },
    {
      "inputs": [],
      "name": "registerAsSeller",
      "outputs": [],
      "stateMutability": "nonpayable",
      "type": "function"
    }
  ],
  "bytecode": "0x6080604052306000806101000a81548173ffffffffffffffffffffffffffffffffffffffff021916908373ffffffffffffffffffffffffffffffffffffffff16021790555034801561005057600080fd5b5033600160006101000a81548173ffffffffffffffffffffffffffffffffffffffff021916908373ffffffffffffffffffffffffffffffffffffffff16021790555061373e806100a16000396000f3fe6080604052600436106100c25760003560e01c8063375f16a71161007f5780638ac7d79c116100595780638ac7d79c146102375780638da5cb5b14610260578063e47cad751461028b578063ea3774e3146102b4576100c2565b8063375f16a7146101c557806339292763146101f05780637ee454cb1461020c576100c2565b80630d4b18e8146100c757806311a003271461010457806312065fe01461012d578063128b853214610158578063245cd4011461016f5780632e2dc43e1461019a575b600080fd5b3480156100d357600080fd5b506100ee60048036038101906100e99190612d36565b6102d0565b6040516100fb919061339a565b60405180910390f35b34801561011057600080fd5b5061012b60048036038101906101269190612d88565b610ad1565b005b34801561013957600080fd5b50610142610feb565b60405161014f91906134f7565b60405180910390f35b34801561016457600080fd5b5061016d61102b565b005b34801561017b57600080fd5b506101846111ae565b60405161019191906134f7565b60405180910390f35b3480156101a657600080fd5b506101af6111bf565b6040516101bc919061339a565b60405180910390f35b3480156101d157600080fd5b506101da61141e565b6040516101e791906134f7565b60405180910390f35b61020a60048036038101906102059190612d88565b61142f565b005b34801561021857600080fd5b5061022161198b565b60405161022e9190613378565b60405180910390f35b34801561024357600080fd5b5061025e60048036038101906102599190612d88565b611add565b005b34801561026c57600080fd5b50610275611ffd565b604051610282919061335d565b60405180910390f35b34801561029757600080fd5b506102b260048036038101906102ad9190612d88565b612023565b005b6102ce60048036038101906102c99190612d5f565b6127fc565b005b606060008067ffffffffffffffff811115610314577f4e487b7100000000000000000000000000000000000000000000000000000000600052604160045260246000fd5b60405190808252806020026020018201604052801561034d57816020015b61033a612c64565b8152602001906001900390816103325790505b509050600560008473ffffffffffffffffffffffffffffffffffffffff1673ffffffffffffffffffffffffffffffffffffffff16815260200190815260200160002060009054906101000a900460ff16156106ee57600860008473ffffffffffffffffffffffffffffffffffffffff1673ffffffffffffffffffffffffffffffffffffffff1681526020019081526020016000208054905067ffffffffffffffff811115610424577f4e487b7100000000000000000000000000000000000000000000000000000000600052604160045260246000fd5b60405190808252806020026020018201604052801561045d57816020015b61044a612c64565b8152602001906001900390816104425790505b50905060005b600860008573ffffffffffffffffffffffffffffffffffffffff1673ffffffffffffffffffffffffffffffffffffffff168152602001908152602001600020805490508110156106e85760046000600860008773ffffffffffffffffffffffffffffffffffffffff1673ffffffffffffffffffffffffffffffffffffffff1681526020019081526020016000208381548110610528577f4e487b7100000000000000000000000000000000000000000000000000000000600052603260045260246000fd5b906000526020600020015481526020019081526020016000206040518060a0016040529081600082015481526020016001820160009054906101000a900473ffffffffffffffffffffffffffffffffffffffff1673ffffffffffffffffffffffffffffffffffffffff1673ffffffffffffffffffffffffffffffffffffffff1681526020016002820160009054906101000a900473ffffffffffffffffffffffffffffffffffffffff1673ffffffffffffffffffffffffffffffffffffffff1673ffffffffffffffffffffffffffffffffffffffff168152602001600382015481526020016004820160009054906101000a900460ff166004811115610657577f4e487b7100000000000000000000000000000000000000000000000000000000600052602160045260246000fd5b600481111561068f577f4e487b7100000000000000000000000000000000000000000000000000000000600052602160045260246000fd5b815250508282815181106106cc577f4e487b7100000000000000000000000000000000000000000000000000000000600052603260045260246000fd5b6020026020010181905250806106e190613608565b9050610463565b50610ac8565b600660008473ffffffffffffffffffffffffffffffffffffffff1673ffffffffffffffffffffffffffffffffffffffff16815260200190815260200160002060009054906101000a900460ff1615610a8c57600960008473ffffffffffffffffffffffffffffffffffffffff1673ffffffffffffffffffffffffffffffffffffffff1681526020019081526020016000208054905067ffffffffffffffff8111156107c2577f4e487b7100000000000000000000000000000000000000000000000000000000600052604160045260246000fd5b6040519080825280602002602001820160405280156107fb57816020015b6107e8612c64565b8152602001906001900390816107e05790505b50905060005b600960008573ffffffffffffffffffffffffffffffffffffffff1673ffffffffffffffffffffffffffffffffffffffff16815260200190815260200160002080549050811015610a865760046000600960008773ffffffffffffffffffffffffffffffffffffffff1673ffffffffffffffffffffffffffffffffffffffff16815260200190815260200160002083815481106108c6577f4e487b7100000000000000000000000000000000000000000000000000000000600052603260045260246000fd5b906000526020600020015481526020019081526020016000206040518060a0016040529081600082015481526020016001820160009054906101000a900473ffffffffffffffffffffffffffffffffffffffff1673ffffffffffffffffffffffffffffffffffffffff1673ffffffffffffffffffffffffffffffffffffffff1681526020016002820160009054906101000a900473ffffffffffffffffffffffffffffffffffffffff1673ffffffffffffffffffffffffffffffffffffffff1673ffffffffffffffffffffffffffffffffffffffff168152602001600382015481526020016004820160009054906101000a900460ff1660048111156109f5577f4e487b7100000000000000000000000000000000000000000000000000000000600052602160045260246000fd5b6004811115610a2d577f4e487b7100000000000000000000000000000000000000000000000000000000600052602160045260246000fd5b81525050828281518110610a6a577f4e487b7100000000000000000000000000000000000000000000000000000000600052603260045260246000fd5b602002602001018190525080610a7f90613608565b9050610801565b50610ac7565b6040517f08c379a0000000000000000000000000000000000000000000000000000000008152600401610abe9061343c565b60405180910390fd5b5b80915050919050565b600660003373ffffffffffffffffffffffffffffffffffffffff1673ffffffffffffffffffffffffffffffffffffffff16815260200190815260200160002060009054906101000a900460ff16610b2757600080fd5b80610b326003612c40565b811115610b3e57600080fd5b813373ffffffffffffffffffffffffffffffffffffffff166004600083815260200190815260200160002060020160009054906101000a900473ffffffffffffffffffffffffffffffffffffffff1673ffffffffffffffffffffffffffffffffffffffff1614610bad57600080fd5b6000600460008581526020019081526020016000206040518060a0016040529081600082015481526020016001820160009054906101000a900473ffffffffffffffffffffffffffffffffffffffff1673ffffffffffffffffffffffffffffffffffffffff1673ffffffffffffffffffffffffffffffffffffffff1681526020016002820160009054906101000a900473ffffffffffffffffffffffffffffffffffffffff1673ffffffffffffffffffffffffffffffffffffffff1673ffffffffffffffffffffffffffffffffffffffff168152602001600382015481526020016004820160009054906101000a900460ff166004811115610cd8577f4e487b7100000000000000000000000000000000000000000000000000000000600052602160045260246000fd5b6004811115610d10577f4e487b7100000000000000000000000000000000000000000000000000000000600052602160045260246000fd5b81525050905060006004811115610d50577f4e487b7100000000000000000000000000000000000000000000000000000000600052602160045260246000fd5b81608001516004811115610d8d577f4e487b7100000000000000000000000000000000000000000000000000000000600052602160045260246000fd5b14610dcd576040517f08c379a0000000000000000000000000000000000000000000000000000000008152600401610dc4906133fc565b60405180910390fd5b600081606001519050600282608001906004811115610e15577f4e487b7100000000000000000000000000000000000000000000000000000000600052602160045260246000fd5b90816004811115610e4f577f4e487b7100000000000000000000000000000000000000000000000000000000600052602160045260246000fd5b8152505081600460008781526020019081526020016000206000820151816000015560208201518160010160006101000a81548173ffffffffffffffffffffffffffffffffffffffff021916908373ffffffffffffffffffffffffffffffffffffffff16021790555060408201518160020160006101000a81548173ffffffffffffffffffffffffffffffffffffffff021916908373ffffffffffffffffffffffffffffffffffffffff1602179055506060820151816003015560808201518160040160006101000a81548160ff02191690836004811115610f5a577f4e487b7100000000000000000000000000000000000000000000000000000000600052602160045260246000fd5b02179055509050507f2267760a98555bb0f97ee96e0fe62f8e95dadf36b987aaa899363b7d6ff03f8d82604051610f9191906134dc565b60405180910390a1816020015173ffffffffffffffffffffffffffffffffffffffff166108fc829081150290604051600060405180830381858888f19350505050158015610fe3573d6000803e3d6000fd5b505050505050565b60008060009054906101000a900473ffffffffffffffffffffffffffffffffffffffff1673ffffffffffffffffffffffffffffffffffffffff1631905090565b600660003373ffffffffffffffffffffffffffffffffffffffff1673ffffffffffffffffffffffffffffffffffffffff16815260200190815260200160002060009054906101000a900460ff16156110b8576040517f08c379a00000000000000000000000000000000000000000000000000000000081526004016110af906133dc565b60405180910390fd5b6001600660003373ffffffffffffffffffffffffffffffffffffffff1673ffffffffffffffffffffffffffffffffffffffff16815260200190815260200160002060006101000a81548160ff021916908315150217905550336007600061111f6002612c40565b815260200190815260200160002060006101000a81548173ffffffffffffffffffffffffffffffffffffffff021916908373ffffffffffffffffffffffffffffffffffffffff1602179055506111756002612c4e565b7f4d97d287a8f631378031b05cb24c876085261ddaa7b8f584477370ef473fbb3d336040516111a4919061335d565b60405180910390a1565b60006111ba6002612c40565b905090565b606060006111cd6003612c40565b67ffffffffffffffff81111561120c577f4e487b7100000000000000000000000000000000000000000000000000000000600052604160045260246000fd5b60405190808252806020026020018201604052801561124557816020015b611232612c64565b81526020019060019003908161122a5790505b50905060005b6112556003612c40565b81101561141657600460008281526020019081526020016000206040518060a0016040529081600082015481526020016001820160009054906101000a900473ffffffffffffffffffffffffffffffffffffffff1673ffffffffffffffffffffffffffffffffffffffff1673ffffffffffffffffffffffffffffffffffffffff1681526020016002820160009054906101000a900473ffffffffffffffffffffffffffffffffffffffff1673ffffffffffffffffffffffffffffffffffffffff1673ffffffffffffffffffffffffffffffffffffffff168152602001600382015481526020016004820160009054906101000a900460ff166004811115611385577f4e487b7100000000000000000000000000000000000000000000000000000000600052602160045260246000fd5b60048111156113bd577f4e487b7100000000000000000000000000000000000000000000000000000000600052602160045260246000fd5b815250508282815181106113fa577f4e487b7100000000000000000000000000000000000000000000000000000000600052603260045260246000fd5b60200260200101819052508061140f90613608565b905061124b565b508091505090565b600061142a6003612c40565b905090565b600660003373ffffffffffffffffffffffffffffffffffffffff1673ffffffffffffffffffffffffffffffffffffffff16815260200190815260200160002060009054906101000a900460ff1661148557600080fd5b806114906003612c40565b81111561149c57600080fd5b813373ffffffffffffffffffffffffffffffffffffffff166004600083815260200190815260200160002060020160009054906101000a900473ffffffffffffffffffffffffffffffffffffffff1673ffffffffffffffffffffffffffffffffffffffff161461150b57600080fd5b6000600460008581526020019081526020016000206040518060a0016040529081600082015481526020016001820160009054906101000a900473ffffffffffffffffffffffffffffffffffffffff1673ffffffffffffffffffffffffffffffffffffffff1673ffffffffffffffffffffffffffffffffffffffff1681526020016002820160009054906101000a900473ffffffffffffffffffffffffffffffffffffffff1673ffffffffffffffffffffffffffffffffffffffff1673ffffffffffffffffffffffffffffffffffffffff168152602001600382015481526020016004820160009054906101000a900460ff166004811115611636577f4e487b7100000000000000000000000000000000000000000000000000000000600052602160045260246000fd5b600481111561166e577f4e487b7100000000000000000000000000000000000000000000000000000000600052602160045260246000fd5b815250509050600360048111156116ae577f4e487b7100000000000000000000000000000000000000000000000000000000600052602160045260246000fd5b816080015160048111156116eb577f4e487b7100000000000000000000000000000000000000000000000000000000600052602160045260246000fd5b1461172b576040517f08c379a00000000000000000000000000000000000000000000000000000000081526004016117229061349c565b60405180910390fd5b600081606001519050803414611776576040517f08c379a000000000000000000000000000000000000000000000000000000000815260040161176d9061341c565b60405180910390fd5b6004826080019060048111156117b5577f4e487b7100000000000000000000000000000000000000000000000000000000600052602160045260246000fd5b908160048111156117ef577f4e487b7100000000000000000000000000000000000000000000000000000000600052602160045260246000fd5b8152505081600460008781526020019081526020016000206000820151816000015560208201518160010160006101000a81548173ffffffffffffffffffffffffffffffffffffffff021916908373ffffffffffffffffffffffffffffffffffffffff16021790555060408201518160020160006101000a81548173ffffffffffffffffffffffffffffffffffffffff021916908373ffffffffffffffffffffffffffffffffffffffff1602179055506060820151816003015560808201518160040160006101000a81548160ff021916908360048111156118fa577f4e487b7100000000000000000000000000000000000000000000000000000000600052602160045260246000fd5b02179055509050507fe4abc940b5524be9ddb12bce78b2c90d7a2cf10a9baea081b6fb59df6f944dbc8260405161193191906134dc565b60405180910390a1816020015173ffffffffffffffffffffffffffffffffffffffff166108fc349081150290604051600060405180830381858888f19350505050158015611983573d6000803e3d6000fd5b505050505050565b606060006119996002612c40565b67ffffffffffffffff8111156119d8577f4e487b7100000000000000000000000000000000000000000000000000000000600052604160045260246000fd5b604051908082528060200260200182016040528015611a065781602001602082028036833780820191505090505b50905060005b611a166002612c40565b811015611ad5576007600082815260200190815260200160002060009054906101000a900473ffffffffffffffffffffffffffffffffffffffff16828281518110611a8a577f4e487b7100000000000000000000000000000000000000000000000000000000600052603260045260246000fd5b602002602001019073ffffffffffffffffffffffffffffffffffffffff16908173ffffffffffffffffffffffffffffffffffffffff168152505080611ace90613608565b9050611a0c565b508091505090565b600560003373ffffffffffffffffffffffffffffffffffffffff1673ffffffffffffffffffffffffffffffffffffffff16815260200190815260200160002060009054906101000a900460ff16611b3357600080fd5b80611b3e6003612c40565b811115611b4a57600080fd5b813373ffffffffffffffffffffffffffffffffffffffff166004600083815260200190815260200160002060010160009054906101000a900473ffffffffffffffffffffffffffffffffffffffff1673ffffffffffffffffffffffffffffffffffffffff1614611bb957600080fd5b6000600460008581526020019081526020016000206040518060a0016040529081600082015481526020016001820160009054906101000a900473ffffffffffffffffffffffffffffffffffffffff1673ffffffffffffffffffffffffffffffffffffffff1673ffffffffffffffffffffffffffffffffffffffff1681526020016002820160009054906101000a900473ffffffffffffffffffffffffffffffffffffffff1673ffffffffffffffffffffffffffffffffffffffff1673ffffffffffffffffffffffffffffffffffffffff168152602001600382015481526020016004820160009054906101000a900460ff166004811115611ce4577f4e487b7100000000000000000000000000000000000000000000000000000000600052602160045260246000fd5b6004811115611d1c577f4e487b7100000000000000000000000000000000000000000000000000000000600052602160045260246000fd5b81525050905060006004811115611d5c577f4e487b7100000000000000000000000000000000000000000000000000000000600052602160045260246000fd5b81608001516004811115611d99577f4e487b7100000000000000000000000000000000000000000000000000000000600052602160045260246000fd5b14611dd9576040517f08c379a0000000000000000000000000000000000000000000000000000000008152600401611dd0906134bc565b60405180910390fd5b600081606001519050600082604001519050600183608001906004811115611e2a577f4e487b7100000000000000000000000000000000000000000000000000000000600052602160045260246000fd5b90816004811115611e64577f4e487b7100000000000000000000000000000000000000000000000000000000600052602160045260246000fd5b8152505082600460008881526020019081526020016000206000820151816000015560208201518160010160006101000a81548173ffffffffffffffffffffffffffffffffffffffff021916908373ffffffffffffffffffffffffffffffffffffffff16021790555060408201518160020160006101000a81548173ffffffffffffffffffffffffffffffffffffffff021916908373ffffffffffffffffffffffffffffffffffffffff1602179055506060820151816003015560808201518160040160006101000a81548160ff02191690836004811115611f6f577f4e487b7100000000000000000000000000000000000000000000000000000000600052602160045260246000fd5b02179055509050507ff29c49891c531905f19a342b02854f2f6055275bb7ccf2c3cb101ae5565e082583604051611fa691906134dc565b60405180910390a18073ffffffffffffffffffffffffffffffffffffffff166108fc839081150290604051600060405180830381858888f19350505050158015611ff4573d6000803e3d6000fd5b50505050505050565b600160009054906101000a900473ffffffffffffffffffffffffffffffffffffffff1681565b600560003373ffffffffffffffffffffffffffffffffffffffff1673ffffffffffffffffffffffffffffffffffffffff16815260200190815260200160002060009054906101000a900460ff1661207957600080fd5b806120846003612c40565b81111561209057600080fd5b813373ffffffffffffffffffffffffffffffffffffffff166004600083815260200190815260200160002060010160009054906101000a900473ffffffffffffffffffffffffffffffffffffffff1673ffffffffffffffffffffffffffffffffffffffff16146120ff57600080fd5b6000600460008581526020019081526020016000206040518060a0016040529081600082015481526020016001820160009054906101000a900473ffffffffffffffffffffffffffffffffffffffff1673ffffffffffffffffffffffffffffffffffffffff1673ffffffffffffffffffffffffffffffffffffffff1681526020016002820160009054906101000a900473ffffffffffffffffffffffffffffffffffffffff1673ffffffffffffffffffffffffffffffffffffffff1673ffffffffffffffffffffffffffffffffffffffff168152602001600382015481526020016004820160009054906101000a900460ff16600481111561222a577f4e487b7100000000000000000000000000000000000000000000000000000000600052602160045260246000fd5b6004811115612262577f4e487b7100000000000000000000000000000000000000000000000000000000600052602160045260246000fd5b815250509050600060048111156122a2577f4e487b7100000000000000000000000000000000000000000000000000000000600052602160045260246000fd5b816080015160048111156122df577f4e487b7100000000000000000000000000000000000000000000000000000000600052602160045260246000fd5b148061235f575060016004811115612320577f4e487b7100000000000000000000000000000000000000000000000000000000600052602160045260246000fd5b8160800151600481111561235d577f4e487b7100000000000000000000000000000000000000000000000000000000600052602160045260246000fd5b145b61239e576040517f08c379a00000000000000000000000000000000000000000000000000000000081526004016123959061345c565b60405180910390fd5b600060048111156123d8577f4e487b7100000000000000000000000000000000000000000000000000000000600052602160045260246000fd5b81608001516004811115612415577f4e487b7100000000000000000000000000000000000000000000000000000000600052602160045260246000fd5b14156126325760048160800190600481111561245a577f4e487b7100000000000000000000000000000000000000000000000000000000600052602160045260246000fd5b90816004811115612494577f4e487b7100000000000000000000000000000000000000000000000000000000600052602160045260246000fd5b8152505080600460008681526020019081526020016000206000820151816000015560208201518160010160006101000a81548173ffffffffffffffffffffffffffffffffffffffff021916908373ffffffffffffffffffffffffffffffffffffffff16021790555060408201518160020160006101000a81548173ffffffffffffffffffffffffffffffffffffffff021916908373ffffffffffffffffffffffffffffffffffffffff1602179055506060820151816003015560808201518160040160006101000a81548160ff0219169083600481111561259f577f4e487b7100000000000000000000000000000000000000000000000000000000600052602160045260246000fd5b02179055509050507fe4abc940b5524be9ddb12bce78b2c90d7a2cf10a9baea081b6fb59df6f944dbc816040516125d691906134dc565b60405180910390a1806020015173ffffffffffffffffffffffffffffffffffffffff166108fc82606001519081150290604051600060405180830381858888f1935050505015801561262c573d6000803e3d6000fd5b506127f6565b600381608001906004811115612671577f4e487b7100000000000000000000000000000000000000000000000000000000600052602160045260246000fd5b908160048111156126ab577f4e487b7100000000000000000000000000000000000000000000000000000000600052602160045260246000fd5b8152505080600460008681526020019081526020016000206000820151816000015560208201518160010160006101000a81548173ffffffffffffffffffffffffffffffffffffffff021916908373ffffffffffffffffffffffffffffffffffffffff16021790555060408201518160020160006101000a81548173ffffffffffffffffffffffffffffffffffffffff021916908373ffffffffffffffffffffffffffffffffffffffff1602179055506060820151816003015560808201518160040160006101000a81548160ff021916908360048111156127b6577f4e487b7100000000000000000000000000000000000000000000000000000000600052602160045260246000fd5b02179055509050507f66494901f6d8103f9e520ebfae3e91ccbdbfb608805cae99cebc1209eafa45f0816040516127ed91906134dc565b60405180910390a15b50505050565b600660008273ffffffffffffffffffffffffffffffffffffffff1673ffffffffffffffffffffffffffffffffffffffff16815260200190815260200160002060009054906101000a900460ff16612888576040517f08c379a000000000000000000000000000000000000000000000000000000000815260040161287f906133bc565b60405180910390fd5b600034116128cb576040517f08c379a00000000000000000000000000000000000000000000000000000000081526004016128c29061347c565b60405180910390fd5b60003390506000349050600560008373ffffffffffffffffffffffffffffffffffffffff1673ffffffffffffffffffffffffffffffffffffffff16815260200190815260200160002060009054906101000a900460ff1661297f576001600560008473ffffffffffffffffffffffffffffffffffffffff1673ffffffffffffffffffffffffffffffffffffffff16815260200190815260200160002060006101000a81548160ff0219169083151502179055505b600061298b6003612c40565b905060006040518060a001604052808381526020018573ffffffffffffffffffffffffffffffffffffffff1681526020018673ffffffffffffffffffffffffffffffffffffffff16815260200184815260200160006004811115612a18577f4e487b7100000000000000000000000000000000000000000000000000000000600052602160045260246000fd5b815250905080600460008481526020019081526020016000206000820151816000015560208201518160010160006101000a81548173ffffffffffffffffffffffffffffffffffffffff021916908373ffffffffffffffffffffffffffffffffffffffff16021790555060408201518160020160006101000a81548173ffffffffffffffffffffffffffffffffffffffff021916908373ffffffffffffffffffffffffffffffffffffffff1602179055506060820151816003015560808201518160040160006101000a81548160ff02191690836004811115612b24577f4e487b7100000000000000000000000000000000000000000000000000000000600052602160045260246000fd5b0217905550905050600860008573ffffffffffffffffffffffffffffffffffffffff1673ffffffffffffffffffffffffffffffffffffffff168152602001908152602001600020829080600181540180825580915050600190039060005260206000200160009091909190915055600960008673ffffffffffffffffffffffffffffffffffffffff1673ffffffffffffffffffffffffffffffffffffffff168152602001908152602001600020829080600181540180825580915050600190039060005260206000200160009091909190915055612c026003612c4e565b7f0bfcf83939c39dc1f2abaa43e6796d697726666dcc2a160e743e7922c332e89081604051612c3191906134dc565b60405180910390a15050505050565b600081600001549050919050565b6001816000016000828254019250508190555050565b6040518060a0016040528060008152602001600073ffffffffffffffffffffffffffffffffffffffff168152602001600073ffffffffffffffffffffffffffffffffffffffff1681526020016000815260200160006004811115612cf1577f4e487b7100000000000000000000000000000000000000000000000000000000600052602160045260246000fd5b81525090565b600081359050612d06816136c3565b92915050565b600081359050612d1b816136da565b92915050565b600081359050612d30816136f1565b92915050565b600060208284031215612d4857600080fd5b6000612d5684828501612cf7565b91505092915050565b600060208284031215612d7157600080fd5b6000612d7f84828501612d0c565b91505092915050565b600060208284031215612d9a57600080fd5b6000612da884828501612d21565b91505092915050565b6000612dbd8383612df0565b60208301905092915050565b6000612dd5838361326f565b60a08301905092915050565b612dea816135a7565b82525050565b612df981613595565b82525050565b612e0881613595565b82525050565b6000612e1982613532565b612e238185613562565b9350612e2e83613512565b8060005b83811015612e5f578151612e468882612db1565b9750612e5183613548565b925050600181019050612e32565b5085935050505092915050565b6000612e778261353d565b612e818185613573565b9350612e8c83613522565b8060005b83811015612ebd578151612ea48882612dc9565b9750612eaf83613555565b925050600181019050612e90565b5085935050505092915050565b612ed3816135f6565b82525050565b6000612ee6603483613584565b91507f4552524f523a20546869732073656c6c65722069736e2774207265676973746560008301527f72656420696e206f757220706c6174666f726d2e0000000000000000000000006020830152604082019050919050565b6000612f4c602083613584565b91507f4552524f523a20596f752061726520616c726561647920612073656c6c65722e6000830152602082019050919050565b6000612f8c602383613584565b91507f4552524f523a20596f752063616e27742064656c6574652074686973206f726460008301527f65722e00000000000000000000000000000000000000000000000000000000006020830152604082019050919050565b6000612ff2604783613584565b91507f4552524f523a2054686520616d6f756e7420796f752077616e74656420746f2060008301527f73656e64206973206e6f7420657175616c20746f20746865206f72646572277360208301527f2070726963652e000000000000000000000000000000000000000000000000006040830152606082019050919050565b600061307e602c83613584565b91507f546869732075736572206973206e6f74207265676973746572656420696e206f60008301527f757220706c6174666f726d2e00000000000000000000000000000000000000006020830152604082019050919050565b60006130e4602b83613584565b91507f4552524f523a20596f752063616e27742061736b20726566756e6420666f722060008301527f74686973206f726465722e0000000000000000000000000000000000000000006020830152604082019050919050565b600061314a602683613584565b91507f4552524f523a20546865206f7264657220616d6f756e742063616e277420626560008301527f206e756c6c2e00000000000000000000000000000000000000000000000000006020830152604082019050919050565b60006131b0603183613584565b91507f4552524f523a20596f752063616e277420706572666f726d206120726566756e60008301527f6420666f722074686973206f726465722e0000000000000000000000000000006020830152604082019050919050565b6000613216602483613584565b91507f4552524f523a20596f752063616e277420636f6e6669726d2074686973206f7260008301527f6465722e000000000000000000000000000000000000000000000000000000006020830152604082019050919050565b60a082016000820151613285600085018261333f565b5060208201516132986020850182612de1565b5060408201516132ab6040850182612de1565b5060608201516132be606085018261333f565b5060808201516132d16080850182612eca565b50505050565b60a0820160008201516132ed600085018261333f565b5060208201516133006020850182612de1565b5060408201516133136040850182612de1565b506060820151613326606085018261333f565b5060808201516133396080850182612eca565b50505050565b613348816135ec565b82525050565b613357816135ec565b82525050565b60006020820190506133726000830184612dff565b92915050565b600060208201905081810360008301526133928184612e0e565b905092915050565b600060208201905081810360008301526133b48184612e6c565b905092915050565b600060208201905081810360008301526133d581612ed9565b9050919050565b600060208201905081810360008301526133f581612f3f565b9050919050565b6000602082019050818103600083015261341581612f7f565b9050919050565b6000602082019050818103600083015261343581612fe5565b9050919050565b6000602082019050818103600083015261345581613071565b9050919050565b60006020820190508181036000830152613475816130d7565b9050919050565b600060208201905081810360008301526134958161313d565b9050919050565b600060208201905081810360008301526134b5816131a3565b9050919050565b600060208201905081810360008301526134d581613209565b9050919050565b600060a0820190506134f160008301846132d7565b92915050565b600060208201905061350c600083018461334e565b92915050565b6000819050602082019050919050565b6000819050602082019050919050565b600081519050919050565b600081519050919050565b6000602082019050919050565b6000602082019050919050565b600082825260208201905092915050565b600082825260208201905092915050565b600082825260208201905092915050565b60006135a0826135cc565b9050919050565b60006135b2826135cc565b9050919050565b60008190506135c7826136af565b919050565b600073ffffffffffffffffffffffffffffffffffffffff82169050919050565b6000819050919050565b6000613601826135b9565b9050919050565b6000613613826135ec565b91507fffffffffffffffffffffffffffffffffffffffffffffffffffffffffffffffff82141561364657613645613651565b5b600182019050919050565b7f4e487b7100000000000000000000000000000000000000000000000000000000600052601160045260246000fd5b7f4e487b7100000000000000000000000000000000000000000000000000000000600052602160045260246000fd5b600581106136c0576136bf613680565b5b50565b6136cc81613595565b81146136d757600080fd5b50565b6136e3816135a7565b81146136ee57600080fd5b50565b6136fa816135ec565b811461370557600080fd5b5056fea2646970667358221220593024d46899d7276193dbab8a4d8f25cc09c3a4916899ae492aa312904b581d64736f6c63430008000033",
  "linkReferences": {},
  "deployedLinkReferences": {}
}