{
  "_format": "hh-sol-artifact-1",
  "contractName": "SCEscrow",
  "sourceName": "contracts/SCEscrow.sol",
  "abi": [
    {
      "inputs": [],
      "stateMutability": "nonpayable",
      "type": "constructor"
    },
    {
      "anonymous": false,
      "inputs": [
        {
          "indexed": false,
          "internalType": "address",
          "name": "",
          "type": "address"
        }
      ],
      "name": "DataFeedSet",
      "type": "event"
    },
    {
      "anonymous": false,
      "inputs": [
        {
          "components": [
            {
              "internalType": "uint256",
              "name": "id",
              "type": "uint256"
            },
            {
              "internalType": "address payable",
              "name": "buyer",
              "type": "address"
            },
            {
              "internalType": "address payable",
              "name": "seller",
              "type": "address"
            },
            {
              "internalType": "uint256",
              "name": "amount",
              "type": "uint256"
            },
            {
              "internalType": "enum SCEscrow.State",
              "name": "state",
              "type": "uint8"
            }
          ],
          "indexed": false,
          "internalType": "struct SCEscrow.Order",
          "name": "",
          "type": "tuple"
        }
      ],
      "name": "OrderConfirmed",
      "type": "event"
    },
    {
      "anonymous": false,
      "inputs": [
        {
          "components": [
            {
              "internalType": "uint256",
              "name": "id",
              "type": "uint256"
            },
            {
              "internalType": "address payable",
              "name": "buyer",
              "type": "address"
            },
            {
              "internalType": "address payable",
              "name": "seller",
              "type": "address"
            },
            {
              "internalType": "uint256",
              "name": "amount",
              "type": "uint256"
            },
            {
              "internalType": "enum SCEscrow.State",
              "name": "state",
              "type": "uint8"
            }
          ],
          "indexed": false,
          "internalType": "struct SCEscrow.Order",
          "name": "",
          "type": "tuple"
        }
      ],
      "name": "OrderCreated",
      "type": "event"
    },
    {
      "anonymous": false,
      "inputs": [
        {
          "components": [
            {
              "internalType": "uint256",
              "name": "id",
              "type": "uint256"
            },
            {
              "internalType": "address payable",
              "name": "buyer",
              "type": "address"
            },
            {
              "internalType": "address payable",
              "name": "seller",
              "type": "address"
            },
            {
              "internalType": "uint256",
              "name": "amount",
              "type": "uint256"
            },
            {
              "internalType": "enum SCEscrow.State",
              "name": "state",
              "type": "uint8"
            }
          ],
          "indexed": false,
          "internalType": "struct SCEscrow.Order",
          "name": "",
          "type": "tuple"
        }
      ],
      "name": "OrderDeleted",
      "type": "event"
    },
    {
      "anonymous": false,
      "inputs": [
        {
          "components": [
            {
              "internalType": "uint256",
              "name": "id",
              "type": "uint256"
            },
            {
              "internalType": "address payable",
              "name": "buyer",
              "type": "address"
            },
            {
              "internalType": "address payable",
              "name": "seller",
              "type": "address"
            },
            {
              "internalType": "uint256",
              "name": "amount",
              "type": "uint256"
            },
            {
              "internalType": "enum SCEscrow.State",
              "name": "state",
              "type": "uint8"
            }
          ],
          "indexed": false,
          "internalType": "struct SCEscrow.Order",
          "name": "",
          "type": "tuple"
        }
      ],
      "name": "OrderRefunded",
      "type": "event"
    },
    {
      "anonymous": false,
      "inputs": [
        {
          "components": [
            {
              "internalType": "uint256",
              "name": "id",
              "type": "uint256"
            },
            {
              "internalType": "address payable",
              "name": "buyer",
              "type": "address"
            },
            {
              "internalType": "address payable",
              "name": "seller",
              "type": "address"
            },
            {
              "internalType": "uint256",
              "name": "amount",
              "type": "uint256"
            },
            {
              "internalType": "enum SCEscrow.State",
              "name": "state",
              "type": "uint8"
            }
          ],
          "indexed": false,
          "internalType": "struct SCEscrow.Order",
          "name": "",
          "type": "tuple"
        }
      ],
      "name": "OrderShipped",
      "type": "event"
    },
    {
      "anonymous": false,
      "inputs": [
        {
          "indexed": false,
          "internalType": "uint256",
          "name": "",
          "type": "uint256"
        }
      ],
      "name": "PegThresholdSet",
      "type": "event"
    },
    {
      "anonymous": false,
      "inputs": [
        {
          "components": [
            {
              "internalType": "uint256",
              "name": "id",
              "type": "uint256"
            },
            {
              "internalType": "address payable",
              "name": "buyer",
              "type": "address"
            },
            {
              "internalType": "address payable",
              "name": "seller",
              "type": "address"
            },
            {
              "internalType": "uint256",
              "name": "amount",
              "type": "uint256"
            },
            {
              "internalType": "enum SCEscrow.State",
              "name": "state",
              "type": "uint8"
            }
          ],
          "indexed": false,
          "internalType": "struct SCEscrow.Order",
          "name": "",
          "type": "tuple"
        }
      ],
      "name": "RefundAsked",
      "type": "event"
    },
    {
      "anonymous": false,
      "inputs": [
        {
          "indexed": false,
          "internalType": "address",
          "name": "",
          "type": "address"
        }
      ],
      "name": "SellerRegistered",
      "type": "event"
    },
    {
      "anonymous": false,
      "inputs": [
        {
          "indexed": false,
          "internalType": "address",
          "name": "",
          "type": "address"
        }
      ],
      "name": "StablecoinSet",
      "type": "event"
    },
    {
      "inputs": [],
      "name": "STABLECOIN",
      "outputs": [
        {
          "internalType": "address",
          "name": "",
          "type": "address"
        }
      ],
      "stateMutability": "view",
      "type": "function"
    },
    {
      "inputs": [],
      "name": "WAVAX",
      "outputs": [
        {
          "internalType": "address",
          "name": "",
          "type": "address"
        }
      ],
      "stateMutability": "view",
      "type": "function"
    },
    {
      "inputs": [
        {
          "internalType": "uint256",
          "name": "orderId",
          "type": "uint256"
        }
      ],
      "name": "askRefund",
      "outputs": [],
      "stateMutability": "nonpayable",
      "type": "function"
    },
    {
      "inputs": [
        {
          "internalType": "uint256",
          "name": "orderId",
          "type": "uint256"
        }
      ],
      "name": "confirmOrder",
      "outputs": [],
      "stateMutability": "nonpayable",
      "type": "function"
    },
    {
      "inputs": [],
      "name": "contractAddress",
      "outputs": [
        {
          "internalType": "address",
          "name": "",
          "type": "address"
        }
      ],
      "stateMutability": "view",
      "type": "function"
    },
    {
      "inputs": [
        {
          "internalType": "address payable",
          "name": "seller",
          "type": "address"
        },
        {
          "internalType": "uint256",
          "name": "amount",
          "type": "uint256"
        }
      ],
      "name": "createOrderWithAVAXToStable",
      "outputs": [
        {
          "internalType": "uint256[]",
          "name": "amounts",
          "type": "uint256[]"
        }
      ],
      "stateMutability": "payable",
      "type": "function"
    },
    {
      "inputs": [
        {
          "internalType": "address payable",
          "name": "seller",
          "type": "address"
        },
        {
          "internalType": "uint256",
          "name": "amount",
          "type": "uint256"
        }
      ],
      "name": "createOrderWithStable",
      "outputs": [],
      "stateMutability": "payable",
      "type": "function"
    },
    {
      "inputs": [
        {
          "internalType": "address payable",
          "name": "seller",
          "type": "address"
        },
        {
          "internalType": "uint256",
          "name": "amount",
          "type": "uint256"
        },
        {
          "internalType": "uint256",
          "name": "amountInMax",
          "type": "uint256"
        },
        {
          "internalType": "address",
          "name": "tokenIn",
          "type": "address"
        }
      ],
      "name": "createOrderWithTokensToStable",
      "outputs": [
        {
          "internalType": "uint256[]",
          "name": "amounts",
          "type": "uint256[]"
        }
      ],
      "stateMutability": "payable",
      "type": "function"
    },
    {
      "inputs": [
        {
          "internalType": "uint256",
          "name": "orderId",
          "type": "uint256"
        }
      ],
      "name": "deleteOrder",
      "outputs": [],
      "stateMutability": "nonpayable",
      "type": "function"
    },
    {
      "inputs": [],
      "name": "getBalance",
      "outputs": [
        {
          "internalType": "uint256",
          "name": "",
          "type": "uint256"
        }
      ],
      "stateMutability": "view",
      "type": "function"
    },
    {
      "inputs": [
        {
          "internalType": "uint256",
          "name": "orderId",
          "type": "uint256"
        }
      ],
      "name": "getLogsOfOrder",
      "outputs": [
        {
          "components": [
            {
              "internalType": "enum SCEscrow.State",
              "name": "state",
              "type": "uint8"
            },
            {
              "internalType": "uint256",
              "name": "timestamp",
              "type": "uint256"
            }
          ],
          "internalType": "struct SCEscrow.Log[]",
          "name": "",
          "type": "tuple[]"
        }
      ],
      "stateMutability": "view",
      "type": "function"
    },
    {
      "inputs": [
        {
          "internalType": "uint256",
          "name": "id",
          "type": "uint256"
        }
      ],
      "name": "getOrder",
      "outputs": [
        {
          "components": [
            {
              "internalType": "uint256",
              "name": "id",
              "type": "uint256"
            },
            {
              "internalType": "address payable",
              "name": "buyer",
              "type": "address"
            },
            {
              "internalType": "address payable",
              "name": "seller",
              "type": "address"
            },
            {
              "internalType": "uint256",
              "name": "amount",
              "type": "uint256"
            },
            {
              "internalType": "enum SCEscrow.State",
              "name": "state",
              "type": "uint8"
            }
          ],
          "internalType": "struct SCEscrow.Order",
          "name": "",
          "type": "tuple"
        }
      ],
      "stateMutability": "view",
      "type": "function"
    },
    {
      "inputs": [],
      "name": "getOrders",
      "outputs": [
        {
          "components": [
            {
              "internalType": "uint256",
              "name": "id",
              "type": "uint256"
            },
            {
              "internalType": "address payable",
              "name": "buyer",
              "type": "address"
            },
            {
              "internalType": "address payable",
              "name": "seller",
              "type": "address"
            },
            {
              "internalType": "uint256",
              "name": "amount",
              "type": "uint256"
            },
            {
              "internalType": "enum SCEscrow.State",
              "name": "state",
              "type": "uint8"
            }
          ],
          "internalType": "struct SCEscrow.Order[]",
          "name": "",
          "type": "tuple[]"
        }
      ],
      "stateMutability": "view",
      "type": "function"
    },
    {
      "inputs": [
        {
          "internalType": "address",
          "name": "user",
          "type": "address"
        }
      ],
      "name": "getOrdersOfUser",
      "outputs": [
        {
          "components": [
            {
              "internalType": "uint256",
              "name": "id",
              "type": "uint256"
            },
            {
              "internalType": "address payable",
              "name": "buyer",
              "type": "address"
            },
            {
              "internalType": "address payable",
              "name": "seller",
              "type": "address"
            },
            {
              "internalType": "uint256",
              "name": "amount",
              "type": "uint256"
            },
            {
              "internalType": "enum SCEscrow.State",
              "name": "state",
              "type": "uint8"
            }
          ],
          "internalType": "struct SCEscrow.Order[]",
          "name": "",
          "type": "tuple[]"
        }
      ],
      "stateMutability": "view",
      "type": "function"
    },
    {
      "inputs": [],
      "name": "getPriceStablecoin",
      "outputs": [
        {
          "internalType": "uint256",
          "name": "",
          "type": "uint256"
        }
      ],
      "stateMutability": "view",
      "type": "function"
    },
    {
      "inputs": [],
      "name": "getSellers",
      "outputs": [
        {
          "internalType": "address[]",
          "name": "",
          "type": "address[]"
        }
      ],
      "stateMutability": "view",
      "type": "function"
    },
    {
      "inputs": [],
      "name": "getTotalOrders",
      "outputs": [
        {
          "internalType": "uint256",
          "name": "",
          "type": "uint256"
        }
      ],
      "stateMutability": "view",
      "type": "function"
    },
    {
      "inputs": [],
      "name": "getTotalSellers",
      "outputs": [
        {
          "internalType": "uint256",
          "name": "",
          "type": "uint256"
        }
      ],
      "stateMutability": "view",
      "type": "function"
    },
    {
      "inputs": [],
      "name": "lowerBoundThreshold",
      "outputs": [
        {
          "internalType": "uint256",
          "name": "",
          "type": "uint256"
        }
      ],
      "stateMutability": "view",
      "type": "function"
    },
    {
      "inputs": [],
      "name": "owner",
      "outputs": [
        {
          "internalType": "address",
          "name": "",
          "type": "address"
        }
      ],
      "stateMutability": "view",
      "type": "function"
    },
    {
      "inputs": [],
      "name": "pegThreshold",
      "outputs": [
        {
          "internalType": "uint256",
          "name": "",
          "type": "uint256"
        }
      ],
      "stateMutability": "view",
      "type": "function"
    },
    {
      "inputs": [
        {
          "internalType": "uint256",
          "name": "orderId",
          "type": "uint256"
        },
        {
          "internalType": "uint256",
          "name": "amount",
          "type": "uint256"
        }
      ],
      "name": "refundBuyer",
      "outputs": [],
      "stateMutability": "payable",
      "type": "function"
    },
    {
      "inputs": [],
      "name": "registerAsSeller",
      "outputs": [],
      "stateMutability": "nonpayable",
      "type": "function"
    },
    {
      "inputs": [
        {
          "internalType": "address",
          "name": "newAddress",
          "type": "address"
        }
      ],
      "name": "setStablecoinAddress",
      "outputs": [],
      "stateMutability": "nonpayable",
      "type": "function"
    },
    {
      "inputs": [
        {
          "internalType": "address",
          "name": "newDataFeed",
          "type": "address"
        }
      ],
      "name": "setStablecoinDataFeed",
      "outputs": [],
      "stateMutability": "nonpayable",
      "type": "function"
    },
    {
      "inputs": [
        {
          "internalType": "uint256",
          "name": "newThreshold",
          "type": "uint256"
        }
      ],
      "name": "setStablecoinPegThreshold",
      "outputs": [],
      "stateMutability": "nonpayable",
      "type": "function"
    },
    {
      "inputs": [
        {
          "internalType": "uint256",
          "name": "orderId",
          "type": "uint256"
        }
      ],
      "name": "shipOrder",
      "outputs": [],
      "stateMutability": "nonpayable",
      "type": "function"
    },
    {
      "inputs": [],
      "name": "stablecoinIsPegged",
      "outputs": [
        {
          "internalType": "bool",
          "name": "",
          "type": "bool"
        }
      ],
      "stateMutability": "view",
      "type": "function"
    },
    {
      "inputs": [],
      "name": "tjFactory",
      "outputs": [
        {
          "internalType": "contract IJoeFactory",
          "name": "",
          "type": "address"
        }
      ],
      "stateMutability": "view",
      "type": "function"
    },
    {
      "inputs": [],
      "name": "tjRouter",
      "outputs": [
        {
          "internalType": "contract IJoeRouter01",
          "name": "",
          "type": "address"
        }
      ],
      "stateMutability": "view",
      "type": "function"
    },
    {
      "inputs": [],
      "name": "upperBoundThreshold",
      "outputs": [
        {
          "internalType": "uint256",
          "name": "",
          "type": "uint256"
        }
      ],
      "stateMutability": "view",
      "type": "function"
    },
    {
      "stateMutability": "payable",
      "type": "receive"
    }
  ],
  "bytecode": "0x6101606040527360ae616a2155ee3d9a68541ba4544862310933d473ffffffffffffffffffffffffffffffffffffffff1660809073ffffffffffffffffffffffffffffffffffffffff1660601b815250739ad6c38be94206ca50bb0d90783181662f0cfa1073ffffffffffffffffffffffffffffffffffffffff1660a09073ffffffffffffffffffffffffffffffffffffffff1660601b81525073f096872672f44d6eba71458d74fe67f9a77a23b96000806101000a81548173ffffffffffffffffffffffffffffffffffffffff021916908373ffffffffffffffffffffffffffffffffffffffff16021790555073b31f66aa3c1e785363f0875a1b74e27b85fd66c773ffffffffffffffffffffffffffffffffffffffff1660c09073ffffffffffffffffffffffffffffffffffffffff1660601b81525073b97ef9ef8734c71904d8002f8b6bc66dd9c48a6e600160006101000a81548173ffffffffffffffffffffffffffffffffffffffff021916908373ffffffffffffffffffffffffffffffffffffffff160217905550662386f26fc1000060025566038d7ea4c6800060e09081525066b1a2bc2ec50000610100908152503073ffffffffffffffffffffffffffffffffffffffff166101209073ffffffffffffffffffffffffffffffffffffffff1660601b8152503480156101f757600080fd5b503373ffffffffffffffffffffffffffffffffffffffff166101408173ffffffffffffffffffffffffffffffffffffffff1660601b8152505060805160601c60a05160601c60c05160601c60e051610100516101205160601c6101405160601c617617620002fc60003960008181611621015281816120a9015281816134240152613474015260008181611ec501526151a50152600081816116da0152612b9d0152600081816116af0152612b79015260008181612bc1015281816135b101528181613cf501526153e3015260008181612be5015261357401526000818161208501528181613b3c01528181613e2101528181613f40015261550f01526176176000f3fe6080604052600436106101dc5760003560e01c806373b295c2116101025780639ff41c9911610095578063e47cad7511610064578063e47cad751461067d578063f11828fa146106a6578063f6b4dfb4146106c2578063fffd5ebf146106ed576101e3565b80639ff41c99146105a8578063a80a79cc146105e5578063d09ef24114610615578063d356518b14610652576101e3565b80638da5cb5b116100d15780638da5cb5b146104fe5780638fdf7c821461052957806393a39776146105545780639ecd05001461057f576101e3565b806373b295c21461045457806378000d4a1461047f5780637ee454cb146104aa5780638ac7d79c146104d5576101e3565b806318f97af51161017a5780632e2dc43e116101495780632e2dc43e146103a8578063375f16a7146103d35780636729fa85146103fe57806368acb46014610429576101e3565b806318f97af514610300578063194c302c14610329578063245cd4011461035257806324e9c1291461037d576101e3565b806311a00327116101b657806311a003271461026a57806312065fe014610293578063128b8532146102be5780631355dadf146102d5576101e3565b8063044ce308146101e85780630d4b18e8146102045780631018efbb14610241576101e3565b366101e357005b600080fd5b61020260048036038101906101fd9190615dc7565b61071d565b005b34801561021057600080fd5b5061022b60048036038101906102269190615c1a565b610e1e565b6040516102389190616cb7565b60405180910390f35b34801561024d57600080fd5b5061026860048036038101906102639190615d75565b61161f565b005b34801561027657600080fd5b50610291600480360381019061028c9190615d75565b61177f565b005b34801561029f57600080fd5b506102a8611ec1565b6040516102b59190617047565b60405180910390f35b3480156102ca57600080fd5b506102d3611f00565b005b3480156102e157600080fd5b506102ea612083565b6040516102f79190616d31565b60405180910390f35b34801561030c57600080fd5b5061032760048036038101906103229190615c1a565b6120a7565b005b34801561033557600080fd5b50610350600480360381019061034b9190615d75565b61226c565b005b34801561035e57600080fd5b50610367612833565b6040516103749190617047565b60405180910390f35b34801561038957600080fd5b50610392612844565b60405161039f9190616cfb565b60405180910390f35b3480156103b457600080fd5b506103bd612907565b6040516103ca9190616cb7565b60405180910390f35b3480156103df57600080fd5b506103e8612b66565b6040516103f59190617047565b60405180910390f35b34801561040a57600080fd5b50610413612b77565b6040516104209190617047565b60405180910390f35b34801561043557600080fd5b5061043e612b9b565b60405161044b9190617047565b60405180910390f35b34801561046057600080fd5b50610469612bbf565b6040516104769190616b46565b60405180910390f35b34801561048b57600080fd5b50610494612be3565b6040516104a19190616d16565b60405180910390f35b3480156104b657600080fd5b506104bf612c07565b6040516104cc9190616c73565b60405180910390f35b3480156104e157600080fd5b506104fc60048036038101906104f79190615d75565b612d59565b005b34801561050a57600080fd5b50610513613422565b6040516105209190616b46565b60405180910390f35b34801561053557600080fd5b5061053e613446565b60405161054b9190617047565b60405180910390f35b34801561056057600080fd5b5061056961344c565b6040516105769190616b46565b60405180910390f35b34801561058b57600080fd5b506105a660048036038101906105a19190615c1a565b613472565b005b3480156105b457600080fd5b506105cf60048036038101906105ca9190615d75565b61374d565b6040516105dc9190616c95565b60405180910390f35b6105ff60048036038101906105fa9190615ca8565b61389e565b60405161060c9190616cd9565b60405180910390f35b34801561062157600080fd5b5061063c60048036038101906106379190615d75565b614132565b604051610649919061702c565b60405180910390f35b34801561065e57600080fd5b506106676142f4565b6040516106749190617047565b60405180910390f35b34801561068957600080fd5b506106a4600480360381019061069f9190615d75565b6143b8565b005b6106c060048036038101906106bb9190615c6c565b614f90565b005b3480156106ce57600080fd5b506106d76151a3565b6040516106e49190616b46565b60405180910390f35b61070760048036038101906107029190615c6c565b6151c7565b6040516107149190616cd9565b60405180910390f35b8161072860046155ce565b81111561076a576040517f08c379a00000000000000000000000000000000000000000000000000000000081526004016107619061700c565b60405180910390fd5b823373ffffffffffffffffffffffffffffffffffffffff166005600083815260200190815260200160002060020160009054906101000a900473ffffffffffffffffffffffffffffffffffffffff1673ffffffffffffffffffffffffffffffffffffffff161461080f576040517f08c379a000000000000000000000000000000000000000000000000000000000815260040161080690616d8c565b60405180910390fd5b6000600560008681526020019081526020016000206040518060a0016040529081600082015481526020016001820160009054906101000a900473ffffffffffffffffffffffffffffffffffffffff1673ffffffffffffffffffffffffffffffffffffffff1673ffffffffffffffffffffffffffffffffffffffff1681526020016002820160009054906101000a900473ffffffffffffffffffffffffffffffffffffffff1673ffffffffffffffffffffffffffffffffffffffff1673ffffffffffffffffffffffffffffffffffffffff168152602001600382015481526020016004820160009054906101000a900460ff16600581111561093a577f4e487b7100000000000000000000000000000000000000000000000000000000600052602160045260246000fd5b6005811115610972577f4e487b7100000000000000000000000000000000000000000000000000000000600052602160045260246000fd5b815250509050600460058111156109b2577f4e487b7100000000000000000000000000000000000000000000000000000000600052602160045260246000fd5b816080015160058111156109ef577f4e487b7100000000000000000000000000000000000000000000000000000000600052602160045260246000fd5b14610a2f576040517f08c379a0000000000000000000000000000000000000000000000000000000008152600401610a2690616fcc565b60405180910390fd5b80606001518414610a75576040517f08c379a0000000000000000000000000000000000000000000000000000000008152600401610a6c90616e4c565b60405180910390fd5b600581608001906005811115610ab4577f4e487b7100000000000000000000000000000000000000000000000000000000600052602160045260246000fd5b90816005811115610aee577f4e487b7100000000000000000000000000000000000000000000000000000000600052602160045260246000fd5b8152505080600560008781526020019081526020016000206000820151816000015560208201518160010160006101000a81548173ffffffffffffffffffffffffffffffffffffffff021916908373ffffffffffffffffffffffffffffffffffffffff16021790555060408201518160020160006101000a81548173ffffffffffffffffffffffffffffffffffffffff021916908373ffffffffffffffffffffffffffffffffffffffff1602179055506060820151816003015560808201518160040160006101000a81548160ff02191690836005811115610bf9577f4e487b7100000000000000000000000000000000000000000000000000000000600052602160045260246000fd5b02179055509050507fe4abc940b5524be9ddb12bce78b2c90d7a2cf10a9baea081b6fb59df6f944dbc81604051610c30919061702c565b60405180910390a1600b60008681526020019081526020016000206040518060400160405280600580811115610c8f577f4e487b7100000000000000000000000000000000000000000000000000000000600052602160045260246000fd5b815260200142815250908060018154018082558091505060019003906000526020600020906002020160009091909190915060008201518160000160006101000a81548160ff02191690836005811115610d12577f4e487b7100000000000000000000000000000000000000000000000000000000600052602160045260246000fd5b0217905550602082015181600101555050600160009054906101000a900473ffffffffffffffffffffffffffffffffffffffff1673ffffffffffffffffffffffffffffffffffffffff166323b872dd338360200151876040518463ffffffff1660e01b8152600401610d8693929190616bb3565b602060405180830381600087803b158015610da057600080fd5b505af1158015610db4573d6000803e3d6000fd5b505050506040513d601f19601f82011682018060405250810190610dd89190615d4c565b610e17576040517f08c379a0000000000000000000000000000000000000000000000000000000008152600401610e0e90616eac565b60405180910390fd5b5050505050565b606060008067ffffffffffffffff811115610e62577f4e487b7100000000000000000000000000000000000000000000000000000000600052604160045260246000fd5b604051908082528060200260200182016040528015610e9b57816020015b610e88615a49565b815260200190600190039081610e805790505b509050600660008473ffffffffffffffffffffffffffffffffffffffff1673ffffffffffffffffffffffffffffffffffffffff16815260200190815260200160002060009054906101000a900460ff161561123c57600960008473ffffffffffffffffffffffffffffffffffffffff1673ffffffffffffffffffffffffffffffffffffffff1681526020019081526020016000208054905067ffffffffffffffff811115610f72577f4e487b7100000000000000000000000000000000000000000000000000000000600052604160045260246000fd5b604051908082528060200260200182016040528015610fab57816020015b610f98615a49565b815260200190600190039081610f905790505b50905060005b600960008573ffffffffffffffffffffffffffffffffffffffff1673ffffffffffffffffffffffffffffffffffffffff168152602001908152602001600020805490508110156112365760056000600960008773ffffffffffffffffffffffffffffffffffffffff1673ffffffffffffffffffffffffffffffffffffffff1681526020019081526020016000208381548110611076577f4e487b7100000000000000000000000000000000000000000000000000000000600052603260045260246000fd5b906000526020600020015481526020019081526020016000206040518060a0016040529081600082015481526020016001820160009054906101000a900473ffffffffffffffffffffffffffffffffffffffff1673ffffffffffffffffffffffffffffffffffffffff1673ffffffffffffffffffffffffffffffffffffffff1681526020016002820160009054906101000a900473ffffffffffffffffffffffffffffffffffffffff1673ffffffffffffffffffffffffffffffffffffffff1673ffffffffffffffffffffffffffffffffffffffff168152602001600382015481526020016004820160009054906101000a900460ff1660058111156111a5577f4e487b7100000000000000000000000000000000000000000000000000000000600052602160045260246000fd5b60058111156111dd577f4e487b7100000000000000000000000000000000000000000000000000000000600052602160045260246000fd5b8152505082828151811061121a577f4e487b7100000000000000000000000000000000000000000000000000000000600052603260045260246000fd5b60200260200101819052508061122f9061746d565b9050610fb1565b50611616565b600760008473ffffffffffffffffffffffffffffffffffffffff1673ffffffffffffffffffffffffffffffffffffffff16815260200190815260200160002060009054906101000a900460ff16156115da57600a60008473ffffffffffffffffffffffffffffffffffffffff1673ffffffffffffffffffffffffffffffffffffffff1681526020019081526020016000208054905067ffffffffffffffff811115611310577f4e487b7100000000000000000000000000000000000000000000000000000000600052604160045260246000fd5b60405190808252806020026020018201604052801561134957816020015b611336615a49565b81526020019060019003908161132e5790505b50905060005b600a60008573ffffffffffffffffffffffffffffffffffffffff1673ffffffffffffffffffffffffffffffffffffffff168152602001908152602001600020805490508110156115d45760056000600a60008773ffffffffffffffffffffffffffffffffffffffff1673ffffffffffffffffffffffffffffffffffffffff1681526020019081526020016000208381548110611414577f4e487b7100000000000000000000000000000000000000000000000000000000600052603260045260246000fd5b906000526020600020015481526020019081526020016000206040518060a0016040529081600082015481526020016001820160009054906101000a900473ffffffffffffffffffffffffffffffffffffffff1673ffffffffffffffffffffffffffffffffffffffff1673ffffffffffffffffffffffffffffffffffffffff1681526020016002820160009054906101000a900473ffffffffffffffffffffffffffffffffffffffff1673ffffffffffffffffffffffffffffffffffffffff1673ffffffffffffffffffffffffffffffffffffffff168152602001600382015481526020016004820160009054906101000a900460ff166005811115611543577f4e487b7100000000000000000000000000000000000000000000000000000000600052602160045260246000fd5b600581111561157b577f4e487b7100000000000000000000000000000000000000000000000000000000600052602160045260246000fd5b815250508282815181106115b8577f4e487b7100000000000000000000000000000000000000000000000000000000600052603260045260246000fd5b6020026020010181905250806115cd9061746d565b905061134f565b50611615565b6040517f08c379a000000000000000000000000000000000000000000000000000000000815260040161160c90616f2c565b60405180910390fd5b5b80915050919050565b7f000000000000000000000000000000000000000000000000000000000000000073ffffffffffffffffffffffffffffffffffffffff163373ffffffffffffffffffffffffffffffffffffffff16146116ad576040517f08c379a00000000000000000000000000000000000000000000000000000000081526004016116a490616f6c565b60405180910390fd5b7f000000000000000000000000000000000000000000000000000000000000000081101580156116fd57507f00000000000000000000000000000000000000000000000000000000000000008111155b61173c576040517f08c379a000000000000000000000000000000000000000000000000000000000815260040161173390616f4c565b60405180910390fd5b806002819055507f0e7b26966cadbb5041eb3d80a66355b5d5e19844b954f24ec3ea3c0b2936fef06002546040516117749190617047565b60405180910390a150565b8061178a60046155ce565b8111156117cc576040517f08c379a00000000000000000000000000000000000000000000000000000000081526004016117c39061700c565b60405180910390fd5b813373ffffffffffffffffffffffffffffffffffffffff166005600083815260200190815260200160002060020160009054906101000a900473ffffffffffffffffffffffffffffffffffffffff1673ffffffffffffffffffffffffffffffffffffffff1614611871576040517f08c379a000000000000000000000000000000000000000000000000000000000815260040161186890616d8c565b60405180910390fd5b6000600560008581526020019081526020016000206040518060a0016040529081600082015481526020016001820160009054906101000a900473ffffffffffffffffffffffffffffffffffffffff1673ffffffffffffffffffffffffffffffffffffffff1673ffffffffffffffffffffffffffffffffffffffff1681526020016002820160009054906101000a900473ffffffffffffffffffffffffffffffffffffffff1673ffffffffffffffffffffffffffffffffffffffff1673ffffffffffffffffffffffffffffffffffffffff168152602001600382015481526020016004820160009054906101000a900460ff16600581111561199c577f4e487b7100000000000000000000000000000000000000000000000000000000600052602160045260246000fd5b60058111156119d4577f4e487b7100000000000000000000000000000000000000000000000000000000600052602160045260246000fd5b81525050905060006005811115611a14577f4e487b7100000000000000000000000000000000000000000000000000000000600052602160045260246000fd5b81608001516005811115611a51577f4e487b7100000000000000000000000000000000000000000000000000000000600052602160045260246000fd5b1480611ad1575060016005811115611a92577f4e487b7100000000000000000000000000000000000000000000000000000000600052602160045260246000fd5b81608001516005811115611acf577f4e487b7100000000000000000000000000000000000000000000000000000000600052602160045260246000fd5b145b611b10576040517f08c379a0000000000000000000000000000000000000000000000000000000008152600401611b0790616dec565b60405180910390fd5b600081606001519050600382608001906005811115611b58577f4e487b7100000000000000000000000000000000000000000000000000000000600052602160045260246000fd5b90816005811115611b92577f4e487b7100000000000000000000000000000000000000000000000000000000600052602160045260246000fd5b8152505081600560008781526020019081526020016000206000820151816000015560208201518160010160006101000a81548173ffffffffffffffffffffffffffffffffffffffff021916908373ffffffffffffffffffffffffffffffffffffffff16021790555060408201518160020160006101000a81548173ffffffffffffffffffffffffffffffffffffffff021916908373ffffffffffffffffffffffffffffffffffffffff1602179055506060820151816003015560808201518160040160006101000a81548160ff02191690836005811115611c9d577f4e487b7100000000000000000000000000000000000000000000000000000000600052602160045260246000fd5b02179055509050507f2267760a98555bb0f97ee96e0fe62f8e95dadf36b987aaa899363b7d6ff03f8d82604051611cd4919061702c565b60405180910390a1600b6000868152602001908152602001600020604051806040016040528060036005811115611d34577f4e487b7100000000000000000000000000000000000000000000000000000000600052602160045260246000fd5b815260200142815250908060018154018082558091505060019003906000526020600020906002020160009091909190915060008201518160000160006101000a81548160ff02191690836005811115611db7577f4e487b7100000000000000000000000000000000000000000000000000000000600052602160045260246000fd5b0217905550602082015181600101555050600160009054906101000a900473ffffffffffffffffffffffffffffffffffffffff1673ffffffffffffffffffffffffffffffffffffffff1663a9059cbb8360200151836040518363ffffffff1660e01b8152600401611e29929190616b61565b602060405180830381600087803b158015611e4357600080fd5b505af1158015611e57573d6000803e3d6000fd5b505050506040513d601f19601f82011682018060405250810190611e7b9190615d4c565b611eba576040517f08c379a0000000000000000000000000000000000000000000000000000000008152600401611eb190616e2c565b60405180910390fd5b5050505050565b60007f000000000000000000000000000000000000000000000000000000000000000073ffffffffffffffffffffffffffffffffffffffff1631905090565b600760003373ffffffffffffffffffffffffffffffffffffffff1673ffffffffffffffffffffffffffffffffffffffff16815260200190815260200160002060009054906101000a900460ff1615611f8d576040517f08c379a0000000000000000000000000000000000000000000000000000000008152600401611f8490616d6c565b60405180910390fd5b6001600760003373ffffffffffffffffffffffffffffffffffffffff1673ffffffffffffffffffffffffffffffffffffffff16815260200190815260200160002060006101000a81548160ff0219169083151502179055503360086000611ff460036155ce565b815260200190815260200160002060006101000a81548173ffffffffffffffffffffffffffffffffffffffff021916908373ffffffffffffffffffffffffffffffffffffffff16021790555061204a60036155dc565b7f4d97d287a8f631378031b05cb24c876085261ddaa7b8f584477370ef473fbb3d336040516120799190616b46565b60405180910390a1565b7f000000000000000000000000000000000000000000000000000000000000000081565b7f000000000000000000000000000000000000000000000000000000000000000073ffffffffffffffffffffffffffffffffffffffff163373ffffffffffffffffffffffffffffffffffffffff1614612135576040517f08c379a000000000000000000000000000000000000000000000000000000000815260040161212c90616f6c565b60405180910390fd5b806000806101000a81548173ffffffffffffffffffffffffffffffffffffffff021916908373ffffffffffffffffffffffffffffffffffffffff1602179055503073ffffffffffffffffffffffffffffffffffffffff166324e9c1296040518163ffffffff1660e01b815260040160206040518083038186803b1580156121bb57600080fd5b505afa1580156121cf573d6000803e3d6000fd5b505050506040513d601f19601f820116820180604052508101906121f39190615d4c565b612232576040517f08c379a000000000000000000000000000000000000000000000000000000000815260040161222990616f8c565b60405180910390fd5b7f904e31ea43ecc6411d9c8f5c0704fcef15895bd6c834cd67eed1e8768d7c9243816040516122619190616b46565b60405180910390a150565b8061227760046155ce565b8111156122b9576040517f08c379a00000000000000000000000000000000000000000000000000000000081526004016122b09061700c565b60405180910390fd5b813373ffffffffffffffffffffffffffffffffffffffff166005600083815260200190815260200160002060020160009054906101000a900473ffffffffffffffffffffffffffffffffffffffff1673ffffffffffffffffffffffffffffffffffffffff161461235e576040517f08c379a000000000000000000000000000000000000000000000000000000000815260040161235590616d8c565b60405180910390fd5b6000600560008581526020019081526020016000206040518060a0016040529081600082015481526020016001820160009054906101000a900473ffffffffffffffffffffffffffffffffffffffff1673ffffffffffffffffffffffffffffffffffffffff1673ffffffffffffffffffffffffffffffffffffffff1681526020016002820160009054906101000a900473ffffffffffffffffffffffffffffffffffffffff1673ffffffffffffffffffffffffffffffffffffffff1673ffffffffffffffffffffffffffffffffffffffff168152602001600382015481526020016004820160009054906101000a900460ff166005811115612489577f4e487b7100000000000000000000000000000000000000000000000000000000600052602160045260246000fd5b60058111156124c1577f4e487b7100000000000000000000000000000000000000000000000000000000600052602160045260246000fd5b81525050905060006005811115612501577f4e487b7100000000000000000000000000000000000000000000000000000000600052602160045260246000fd5b8160800151600581111561253e577f4e487b7100000000000000000000000000000000000000000000000000000000600052602160045260246000fd5b1461257e576040517f08c379a000000000000000000000000000000000000000000000000000000000815260040161257590616ecc565b60405180910390fd5b6001816080019060058111156125bd577f4e487b7100000000000000000000000000000000000000000000000000000000600052602160045260246000fd5b908160058111156125f7577f4e487b7100000000000000000000000000000000000000000000000000000000600052602160045260246000fd5b8152505080600560008681526020019081526020016000206000820151816000015560208201518160010160006101000a81548173ffffffffffffffffffffffffffffffffffffffff021916908373ffffffffffffffffffffffffffffffffffffffff16021790555060408201518160020160006101000a81548173ffffffffffffffffffffffffffffffffffffffff021916908373ffffffffffffffffffffffffffffffffffffffff1602179055506060820151816003015560808201518160040160006101000a81548160ff02191690836005811115612702577f4e487b7100000000000000000000000000000000000000000000000000000000600052602160045260246000fd5b02179055509050507f3555e7cc004c34a850ba34c02e56afc2ad9410f106cd800dd981874158eb9f9581604051612739919061702c565b60405180910390a1600b6000858152602001908152602001600020604051806040016040528060016005811115612799577f4e487b7100000000000000000000000000000000000000000000000000000000600052602160045260246000fd5b815260200142815250908060018154018082558091505060019003906000526020600020906002020160009091909190915060008201518160000160006101000a81548160ff0219169083600581111561281c577f4e487b7100000000000000000000000000000000000000000000000000000000600052602160045260246000fd5b021790555060208201518160010155505050505050565b600061283f60036155ce565b905090565b6000803073ffffffffffffffffffffffffffffffffffffffff1663d356518b6040518163ffffffff1660e01b815260040160206040518083038186803b15801561288d57600080fd5b505afa1580156128a1573d6000803e3d6000fd5b505050506040513d601f19601f820116820180604052508101906128c59190615d9e565b9050600254670de0b6b3a76400006128dd919061730a565b81101580156129015750600254670de0b6b3a76400006128fd919061725a565b8111155b91505090565b6060600061291560046155ce565b67ffffffffffffffff811115612954577f4e487b7100000000000000000000000000000000000000000000000000000000600052604160045260246000fd5b60405190808252806020026020018201604052801561298d57816020015b61297a615a49565b8152602001906001900390816129725790505b50905060005b61299d60046155ce565b811015612b5e57600560008281526020019081526020016000206040518060a0016040529081600082015481526020016001820160009054906101000a900473ffffffffffffffffffffffffffffffffffffffff1673ffffffffffffffffffffffffffffffffffffffff1673ffffffffffffffffffffffffffffffffffffffff1681526020016002820160009054906101000a900473ffffffffffffffffffffffffffffffffffffffff1673ffffffffffffffffffffffffffffffffffffffff1673ffffffffffffffffffffffffffffffffffffffff168152602001600382015481526020016004820160009054906101000a900460ff166005811115612acd577f4e487b7100000000000000000000000000000000000000000000000000000000600052602160045260246000fd5b6005811115612b05577f4e487b7100000000000000000000000000000000000000000000000000000000600052602160045260246000fd5b81525050828281518110612b42577f4e487b7100000000000000000000000000000000000000000000000000000000600052603260045260246000fd5b602002602001018190525080612b579061746d565b9050612993565b508091505090565b6000612b7260046155ce565b905090565b7f000000000000000000000000000000000000000000000000000000000000000081565b7f000000000000000000000000000000000000000000000000000000000000000081565b7f000000000000000000000000000000000000000000000000000000000000000081565b7f000000000000000000000000000000000000000000000000000000000000000081565b60606000612c1560036155ce565b67ffffffffffffffff811115612c54577f4e487b7100000000000000000000000000000000000000000000000000000000600052604160045260246000fd5b604051908082528060200260200182016040528015612c825781602001602082028036833780820191505090505b50905060005b612c9260036155ce565b811015612d51576008600082815260200190815260200160002060009054906101000a900473ffffffffffffffffffffffffffffffffffffffff16828281518110612d06577f4e487b7100000000000000000000000000000000000000000000000000000000600052603260045260246000fd5b602002602001019073ffffffffffffffffffffffffffffffffffffffff16908173ffffffffffffffffffffffffffffffffffffffff168152505080612d4a9061746d565b9050612c88565b508091505090565b80612d6460046155ce565b811115612da6576040517f08c379a0000000000000000000000000000000000000000000000000000000008152600401612d9d9061700c565b60405180910390fd5b813373ffffffffffffffffffffffffffffffffffffffff166005600083815260200190815260200160002060010160009054906101000a900473ffffffffffffffffffffffffffffffffffffffff1673ffffffffffffffffffffffffffffffffffffffff1614612e4b576040517f08c379a0000000000000000000000000000000000000000000000000000000008152600401612e4290616dac565b60405180910390fd5b6000600560008581526020019081526020016000206040518060a0016040529081600082015481526020016001820160009054906101000a900473ffffffffffffffffffffffffffffffffffffffff1673ffffffffffffffffffffffffffffffffffffffff1673ffffffffffffffffffffffffffffffffffffffff1681526020016002820160009054906101000a900473ffffffffffffffffffffffffffffffffffffffff1673ffffffffffffffffffffffffffffffffffffffff1673ffffffffffffffffffffffffffffffffffffffff168152602001600382015481526020016004820160009054906101000a900460ff166005811115612f76577f4e487b7100000000000000000000000000000000000000000000000000000000600052602160045260246000fd5b6005811115612fae577f4e487b7100000000000000000000000000000000000000000000000000000000600052602160045260246000fd5b81525050905060016005811115612fee577f4e487b7100000000000000000000000000000000000000000000000000000000600052602160045260246000fd5b8160800151600581111561302b577f4e487b7100000000000000000000000000000000000000000000000000000000600052602160045260246000fd5b1461306b576040517f08c379a000000000000000000000000000000000000000000000000000000000815260040161306290616fec565b60405180910390fd5b6000816060015190506000826040015190506002836080019060058111156130bc577f4e487b7100000000000000000000000000000000000000000000000000000000600052602160045260246000fd5b908160058111156130f6577f4e487b7100000000000000000000000000000000000000000000000000000000600052602160045260246000fd5b8152505082600560008881526020019081526020016000206000820151816000015560208201518160010160006101000a81548173ffffffffffffffffffffffffffffffffffffffff021916908373ffffffffffffffffffffffffffffffffffffffff16021790555060408201518160020160006101000a81548173ffffffffffffffffffffffffffffffffffffffff021916908373ffffffffffffffffffffffffffffffffffffffff1602179055506060820151816003015560808201518160040160006101000a81548160ff02191690836005811115613201577f4e487b7100000000000000000000000000000000000000000000000000000000600052602160045260246000fd5b02179055509050507ff29c49891c531905f19a342b02854f2f6055275bb7ccf2c3cb101ae5565e082583604051613238919061702c565b60405180910390a1600b6000878152602001908152602001600020604051806040016040528060026005811115613298577f4e487b7100000000000000000000000000000000000000000000000000000000600052602160045260246000fd5b815260200142815250908060018154018082558091505060019003906000526020600020906002020160009091909190915060008201518160000160006101000a81548160ff0219169083600581111561331b577f4e487b7100000000000000000000000000000000000000000000000000000000600052602160045260246000fd5b0217905550602082015181600101555050600160009054906101000a900473ffffffffffffffffffffffffffffffffffffffff1673ffffffffffffffffffffffffffffffffffffffff1663a9059cbb82846040518363ffffffff1660e01b8152600401613389929190616b61565b602060405180830381600087803b1580156133a357600080fd5b505af11580156133b7573d6000803e3d6000fd5b505050506040513d601f19601f820116820180604052508101906133db9190615d4c565b61341a576040517f08c379a000000000000000000000000000000000000000000000000000000000815260040161341190616e2c565b60405180910390fd5b505050505050565b7f000000000000000000000000000000000000000000000000000000000000000081565b60025481565b600160009054906101000a900473ffffffffffffffffffffffffffffffffffffffff1681565b7f000000000000000000000000000000000000000000000000000000000000000073ffffffffffffffffffffffffffffffffffffffff163373ffffffffffffffffffffffffffffffffffffffff1614613500576040517f08c379a00000000000000000000000000000000000000000000000000000000081526004016134f790616f6c565b60405180910390fd5b600073ffffffffffffffffffffffffffffffffffffffff168173ffffffffffffffffffffffffffffffffffffffff161415613570576040517f08c379a000000000000000000000000000000000000000000000000000000000815260040161356790616eec565b60405180910390fd5b60007f000000000000000000000000000000000000000000000000000000000000000073ffffffffffffffffffffffffffffffffffffffff1663e6a43905837f00000000000000000000000000000000000000000000000000000000000000006040518363ffffffff1660e01b81526004016135ed929190616b8a565b60206040518083038186803b15801561360557600080fd5b505afa158015613619573d6000803e3d6000fd5b505050506040513d601f19601f8201168201806040525081019061363d9190615c43565b9050600073ffffffffffffffffffffffffffffffffffffffff168173ffffffffffffffffffffffffffffffffffffffff1614156136af576040517f08c379a00000000000000000000000000000000000000000000000000000000081526004016136a690616dcc565b60405180910390fd5b81600160006101000a81548173ffffffffffffffffffffffffffffffffffffffff021916908373ffffffffffffffffffffffffffffffffffffffff1602179055507fb5d731a19edd905e799678edb014e703a37fa5d42ed912c389e3b76816a6171f600160009054906101000a900473ffffffffffffffffffffffffffffffffffffffff166040516137419190616b46565b60405180910390a15050565b60608161375a60046155ce565b81111561379c576040517f08c379a00000000000000000000000000000000000000000000000000000000081526004016137939061700c565b60405180910390fd5b600b6000848152602001908152602001600020805480602002602001604051908101604052809291908181526020016000905b8282101561389257838290600052602060002090600202016040518060400160405290816000820160009054906101000a900460ff16600581111561383d577f4e487b7100000000000000000000000000000000000000000000000000000000600052602160045260246000fd5b6005811115613875577f4e487b7100000000000000000000000000000000000000000000000000000000600052602160045260246000fd5b8152602001600182015481525050815260200190600101906137cf565b50505050915050919050565b606084600760008273ffffffffffffffffffffffffffffffffffffffff1673ffffffffffffffffffffffffffffffffffffffff16815260200190815260200160002060009054906101000a900460ff1661392d576040517f08c379a000000000000000000000000000000000000000000000000000000000815260040161392490616d4c565b60405180910390fd5b3073ffffffffffffffffffffffffffffffffffffffff166324e9c1296040518163ffffffff1660e01b815260040160206040518083038186803b15801561397357600080fd5b505afa158015613987573d6000803e3d6000fd5b505050506040513d601f19601f820116820180604052508101906139ab9190615d4c565b6139ea576040517f08c379a00000000000000000000000000000000000000000000000000000000081526004016139e190616e6c565b60405180910390fd5b6000851180156139fa5750600084115b8015613a065750600034145b613a45576040517f08c379a0000000000000000000000000000000000000000000000000000000008152600401613a3c90616f0c565b60405180910390fd5b613a503387876155f2565b8273ffffffffffffffffffffffffffffffffffffffff166323b872dd3330876040518463ffffffff1660e01b8152600401613a8d93929190616bea565b602060405180830381600087803b158015613aa757600080fd5b505af1158015613abb573d6000803e3d6000fd5b505050506040513d601f19601f82011682018060405250810190613adf9190615d4c565b613b1e576040517f08c379a0000000000000000000000000000000000000000000000000000000008152600401613b1590616eac565b60405180910390fd5b8273ffffffffffffffffffffffffffffffffffffffff1663095ea7b37f0000000000000000000000000000000000000000000000000000000000000000866040518363ffffffff1660e01b8152600401613b79929190616c4a565b602060405180830381600087803b158015613b9357600080fd5b505af1158015613ba7573d6000803e3d6000fd5b505050506040513d601f19601f82011682018060405250810190613bcb9190615d4c565b613c0a576040517f08c379a0000000000000000000000000000000000000000000000000000000008152600401613c0190616e0c565b60405180910390fd5b6000600367ffffffffffffffff811115613c4d577f4e487b7100000000000000000000000000000000000000000000000000000000600052604160045260246000fd5b604051908082528060200260200182016040528015613c7b5781602001602082028036833780820191505090505b5090508381600081518110613cb9577f4e487b7100000000000000000000000000000000000000000000000000000000600052603260045260246000fd5b602002602001019073ffffffffffffffffffffffffffffffffffffffff16908173ffffffffffffffffffffffffffffffffffffffff16815250507f000000000000000000000000000000000000000000000000000000000000000081600181518110613d4e577f4e487b7100000000000000000000000000000000000000000000000000000000600052603260045260246000fd5b602002602001019073ffffffffffffffffffffffffffffffffffffffff16908173ffffffffffffffffffffffffffffffffffffffff1681525050600160009054906101000a900473ffffffffffffffffffffffffffffffffffffffff1681600281518110613de5577f4e487b7100000000000000000000000000000000000000000000000000000000600052603260045260246000fd5b602002602001019073ffffffffffffffffffffffffffffffffffffffff16908173ffffffffffffffffffffffffffffffffffffffff16815250507f000000000000000000000000000000000000000000000000000000000000000073ffffffffffffffffffffffffffffffffffffffff16638803dbee87878430426040518663ffffffff1660e01b8152600401613e809594939291906170ae565b600060405180830381600087803b158015613e9a57600080fd5b505af1158015613eae573d6000803e3d6000fd5b505050506040513d6000823e3d601f19601f82011682018060405250810190613ed79190615d0b565b92508483600081518110613f14577f4e487b7100000000000000000000000000000000000000000000000000000000600052603260045260246000fd5b60200260200101511015614128578373ffffffffffffffffffffffffffffffffffffffff1663095ea7b37f000000000000000000000000000000000000000000000000000000000000000060006040518363ffffffff1660e01b8152600401613f7e929190616c21565b602060405180830381600087803b158015613f9857600080fd5b505af1158015613fac573d6000803e3d6000fd5b505050506040513d601f19601f82011682018060405250810190613fd09190615d4c565b61400f576040517f08c379a000000000000000000000000000000000000000000000000000000000815260040161400690616e0c565b60405180910390fd5b8373ffffffffffffffffffffffffffffffffffffffff1663a9059cbb3385600081518110614066577f4e487b7100000000000000000000000000000000000000000000000000000000600052603260045260246000fd5b602002602001015188614079919061730a565b6040518363ffffffff1660e01b8152600401614096929190616c4a565b602060405180830381600087803b1580156140b057600080fd5b505af11580156140c4573d6000803e3d6000fd5b505050506040513d601f19601f820116820180604052508101906140e89190615d4c565b614127576040517f08c379a000000000000000000000000000000000000000000000000000000000815260040161411e90616e2c565b60405180910390fd5b5b5050949350505050565b61413a615a49565b8161414560046155ce565b811115614187576040517f08c379a000000000000000000000000000000000000000000000000000000000815260040161417e9061700c565b60405180910390fd5b600560008481526020019081526020016000206040518060a0016040529081600082015481526020016001820160009054906101000a900473ffffffffffffffffffffffffffffffffffffffff1673ffffffffffffffffffffffffffffffffffffffff1673ffffffffffffffffffffffffffffffffffffffff1681526020016002820160009054906101000a900473ffffffffffffffffffffffffffffffffffffffff1673ffffffffffffffffffffffffffffffffffffffff1673ffffffffffffffffffffffffffffffffffffffff168152602001600382015481526020016004820160009054906101000a900460ff1660058111156142b0577f4e487b7100000000000000000000000000000000000000000000000000000000600052602160045260246000fd5b60058111156142e8577f4e487b7100000000000000000000000000000000000000000000000000000000600052602160045260246000fd5b81525050915050919050565b60008060008054906101000a900473ffffffffffffffffffffffffffffffffffffffff1673ffffffffffffffffffffffffffffffffffffffff1663feaf968c6040518163ffffffff1660e01b815260040160a06040518083038186803b15801561435d57600080fd5b505afa158015614371573d6000803e3d6000fd5b505050506040513d601f19601f820116820180604052508101906143959190615e03565b50505091505060006402540be400826143ae91906172b0565b9050809250505090565b806143c360046155ce565b811115614405576040517f08c379a00000000000000000000000000000000000000000000000000000000081526004016143fc9061700c565b60405180910390fd5b813373ffffffffffffffffffffffffffffffffffffffff166005600083815260200190815260200160002060010160009054906101000a900473ffffffffffffffffffffffffffffffffffffffff1673ffffffffffffffffffffffffffffffffffffffff16146144aa576040517f08c379a00000000000000000000000000000000000000000000000000000000081526004016144a190616dac565b60405180910390fd5b6000600560008581526020019081526020016000206040518060a0016040529081600082015481526020016001820160009054906101000a900473ffffffffffffffffffffffffffffffffffffffff1673ffffffffffffffffffffffffffffffffffffffff1673ffffffffffffffffffffffffffffffffffffffff1681526020016002820160009054906101000a900473ffffffffffffffffffffffffffffffffffffffff1673ffffffffffffffffffffffffffffffffffffffff1673ffffffffffffffffffffffffffffffffffffffff168152602001600382015481526020016004820160009054906101000a900460ff1660058111156145d5577f4e487b7100000000000000000000000000000000000000000000000000000000600052602160045260246000fd5b600581111561460d577f4e487b7100000000000000000000000000000000000000000000000000000000600052602160045260246000fd5b8152505090506000600581111561464d577f4e487b7100000000000000000000000000000000000000000000000000000000600052602160045260246000fd5b8160800151600581111561468a577f4e487b7100000000000000000000000000000000000000000000000000000000600052602160045260246000fd5b148061470a5750600160058111156146cb577f4e487b7100000000000000000000000000000000000000000000000000000000600052602160045260246000fd5b81608001516005811115614708577f4e487b7100000000000000000000000000000000000000000000000000000000600052602160045260246000fd5b145b8061478957506002600581111561474a577f4e487b7100000000000000000000000000000000000000000000000000000000600052602160045260246000fd5b81608001516005811115614787577f4e487b7100000000000000000000000000000000000000000000000000000000600052602160045260246000fd5b145b6147c8576040517f08c379a00000000000000000000000000000000000000000000000000000000081526004016147bf90616e8c565b60405180910390fd5b60006005811115614802577f4e487b7100000000000000000000000000000000000000000000000000000000600052602160045260246000fd5b8160800151600581111561483f577f4e487b7100000000000000000000000000000000000000000000000000000000600052602160045260246000fd5b1415614cda57600581608001906005811115614884577f4e487b7100000000000000000000000000000000000000000000000000000000600052602160045260246000fd5b908160058111156148be577f4e487b7100000000000000000000000000000000000000000000000000000000600052602160045260246000fd5b8152505080600560008681526020019081526020016000206000820151816000015560208201518160010160006101000a81548173ffffffffffffffffffffffffffffffffffffffff021916908373ffffffffffffffffffffffffffffffffffffffff16021790555060408201518160020160006101000a81548173ffffffffffffffffffffffffffffffffffffffff021916908373ffffffffffffffffffffffffffffffffffffffff1602179055506060820151816003015560808201518160040160006101000a81548160ff021916908360058111156149c9577f4e487b7100000000000000000000000000000000000000000000000000000000600052602160045260246000fd5b02179055509050507fe4abc940b5524be9ddb12bce78b2c90d7a2cf10a9baea081b6fb59df6f944dbc81604051614a00919061702c565b60405180910390a1600b6000858152602001908152602001600020604051806040016040528060046005811115614a60577f4e487b7100000000000000000000000000000000000000000000000000000000600052602160045260246000fd5b815260200142815250908060018154018082558091505060019003906000526020600020906002020160009091909190915060008201518160000160006101000a81548160ff02191690836005811115614ae3577f4e487b7100000000000000000000000000000000000000000000000000000000600052602160045260246000fd5b0217905550602082015181600101555050600b60008581526020019081526020016000206040518060400160405280600580811115614b4b577f4e487b7100000000000000000000000000000000000000000000000000000000600052602160045260246000fd5b815260200142815250908060018154018082558091505060019003906000526020600020906002020160009091909190915060008201518160000160006101000a81548160ff02191690836005811115614bce577f4e487b7100000000000000000000000000000000000000000000000000000000600052602160045260246000fd5b0217905550602082015181600101555050600160009054906101000a900473ffffffffffffffffffffffffffffffffffffffff1673ffffffffffffffffffffffffffffffffffffffff1663a9059cbb826020015183606001516040518363ffffffff1660e01b8152600401614c44929190616b61565b602060405180830381600087803b158015614c5e57600080fd5b505af1158015614c72573d6000803e3d6000fd5b505050506040513d601f19601f82011682018060405250810190614c969190615d4c565b614cd5576040517f08c379a0000000000000000000000000000000000000000000000000000000008152600401614ccc90616e2c565b60405180910390fd5b614f8a565b600481608001906005811115614d19577f4e487b7100000000000000000000000000000000000000000000000000000000600052602160045260246000fd5b90816005811115614d53577f4e487b7100000000000000000000000000000000000000000000000000000000600052602160045260246000fd5b8152505080600560008681526020019081526020016000206000820151816000015560208201518160010160006101000a81548173ffffffffffffffffffffffffffffffffffffffff021916908373ffffffffffffffffffffffffffffffffffffffff16021790555060408201518160020160006101000a81548173ffffffffffffffffffffffffffffffffffffffff021916908373ffffffffffffffffffffffffffffffffffffffff1602179055506060820151816003015560808201518160040160006101000a81548160ff02191690836005811115614e5e577f4e487b7100000000000000000000000000000000000000000000000000000000600052602160045260246000fd5b02179055509050507f66494901f6d8103f9e520ebfae3e91ccbdbfb608805cae99cebc1209eafa45f081604051614e95919061702c565b60405180910390a1600b6000858152602001908152602001600020604051806040016040528060046005811115614ef5577f4e487b7100000000000000000000000000000000000000000000000000000000600052602160045260246000fd5b815260200142815250908060018154018082558091505060019003906000526020600020906002020160009091909190915060008201518160000160006101000a81548160ff02191690836005811115614f78577f4e487b7100000000000000000000000000000000000000000000000000000000600052602160045260246000fd5b02179055506020820151816001015550505b50505050565b81600760008273ffffffffffffffffffffffffffffffffffffffff1673ffffffffffffffffffffffffffffffffffffffff16815260200190815260200160002060009054906101000a900460ff1661501d576040517f08c379a000000000000000000000000000000000000000000000000000000000815260040161501490616d4c565b60405180910390fd5b60003414615060576040517f08c379a000000000000000000000000000000000000000000000000000000000815260040161505790616fac565b60405180910390fd5b600082116150a3576040517f08c379a000000000000000000000000000000000000000000000000000000000815260040161509a90616f0c565b60405180910390fd5b6150ae3384846155f2565b600160009054906101000a900473ffffffffffffffffffffffffffffffffffffffff1673ffffffffffffffffffffffffffffffffffffffff166323b872dd3330856040518463ffffffff1660e01b815260040161510d93929190616bea565b602060405180830381600087803b15801561512757600080fd5b505af115801561513b573d6000803e3d6000fd5b505050506040513d601f19601f8201168201806040525081019061515f9190615d4c565b61519e576040517f08c379a000000000000000000000000000000000000000000000000000000000815260040161519590616eac565b60405180910390fd5b505050565b7f000000000000000000000000000000000000000000000000000000000000000081565b606082600760008273ffffffffffffffffffffffffffffffffffffffff1673ffffffffffffffffffffffffffffffffffffffff16815260200190815260200160002060009054906101000a900460ff16615256576040517f08c379a000000000000000000000000000000000000000000000000000000000815260040161524d90616d4c565b60405180910390fd5b3073ffffffffffffffffffffffffffffffffffffffff166324e9c1296040518163ffffffff1660e01b815260040160206040518083038186803b15801561529c57600080fd5b505afa1580156152b0573d6000803e3d6000fd5b505050506040513d601f19601f820116820180604052508101906152d49190615d4c565b615313576040517f08c379a000000000000000000000000000000000000000000000000000000000815260040161530a90616e6c565b60405180910390fd5b6000831180156153235750600034115b615362576040517f08c379a000000000000000000000000000000000000000000000000000000000815260040161535990616f0c565b60405180910390fd5b61536d3385856155f2565b6000600267ffffffffffffffff8111156153b0577f4e487b7100000000000000000000000000000000000000000000000000000000600052604160045260246000fd5b6040519080825280602002602001820160405280156153de5781602001602082028036833780820191505090505b5090507f00000000000000000000000000000000000000000000000000000000000000008160008151811061543c577f4e487b7100000000000000000000000000000000000000000000000000000000600052603260045260246000fd5b602002602001019073ffffffffffffffffffffffffffffffffffffffff16908173ffffffffffffffffffffffffffffffffffffffff1681525050600160009054906101000a900473ffffffffffffffffffffffffffffffffffffffff16816001815181106154d3577f4e487b7100000000000000000000000000000000000000000000000000000000600052603260045260246000fd5b602002602001019073ffffffffffffffffffffffffffffffffffffffff16908173ffffffffffffffffffffffffffffffffffffffff16815250507f000000000000000000000000000000000000000000000000000000000000000073ffffffffffffffffffffffffffffffffffffffff16638a657e6734868430426040518663ffffffff1660e01b815260040161556d9493929190617062565b6000604051808303818588803b15801561558657600080fd5b505af115801561559a573d6000803e3d6000fd5b50505050506040513d6000823e3d601f19601f820116820180604052508101906155c49190615d0b565b9250505092915050565b600081600001549050919050565b6001816000016000828254019250508190555050565b600660008473ffffffffffffffffffffffffffffffffffffffff1673ffffffffffffffffffffffffffffffffffffffff16815260200190815260200160002060009054906101000a900460ff1661569c576001600660008573ffffffffffffffffffffffffffffffffffffffff1673ffffffffffffffffffffffffffffffffffffffff16815260200190815260200160002060006101000a81548160ff0219169083151502179055505b60006156a860046155ce565b9050600b6000828152602001908152602001600020604051806040016040528060006005811115615702577f4e487b7100000000000000000000000000000000000000000000000000000000600052602160045260246000fd5b815260200142815250908060018154018082558091505060019003906000526020600020906002020160009091909190915060008201518160000160006101000a81548160ff02191690836005811115615785577f4e487b7100000000000000000000000000000000000000000000000000000000600052602160045260246000fd5b021790555060208201518160010155505060006040518060a001604052808381526020018673ffffffffffffffffffffffffffffffffffffffff1681526020018573ffffffffffffffffffffffffffffffffffffffff16815260200184815260200160006005811115615821577f4e487b7100000000000000000000000000000000000000000000000000000000600052602160045260246000fd5b815250905080600560008481526020019081526020016000206000820151816000015560208201518160010160006101000a81548173ffffffffffffffffffffffffffffffffffffffff021916908373ffffffffffffffffffffffffffffffffffffffff16021790555060408201518160020160006101000a81548173ffffffffffffffffffffffffffffffffffffffff021916908373ffffffffffffffffffffffffffffffffffffffff1602179055506060820151816003015560808201518160040160006101000a81548160ff0219169083600581111561592d577f4e487b7100000000000000000000000000000000000000000000000000000000600052602160045260246000fd5b0217905550905050600960008673ffffffffffffffffffffffffffffffffffffffff1673ffffffffffffffffffffffffffffffffffffffff168152602001908152602001600020829080600181540180825580915050600190039060005260206000200160009091909190915055600a60008573ffffffffffffffffffffffffffffffffffffffff1673ffffffffffffffffffffffffffffffffffffffff168152602001908152602001600020829080600181540180825580915050600190039060005260206000200160009091909190915055615a0b60046155dc565b7f0bfcf83939c39dc1f2abaa43e6796d697726666dcc2a160e743e7922c332e89081604051615a3a919061702c565b60405180910390a15050505050565b6040518060a0016040528060008152602001600073ffffffffffffffffffffffffffffffffffffffff168152602001600073ffffffffffffffffffffffffffffffffffffffff1681526020016000815260200160006005811115615ad6577f4e487b7100000000000000000000000000000000000000000000000000000000600052602160045260246000fd5b81525090565b6000615aef615aea84617139565b617108565b90508083825260208201905082856020860282011115615b0e57600080fd5b60005b85811015615b3e5781615b248882615bf0565b845260208401935060208301925050600181019050615b11565b5050509392505050565b600081359050615b5781617557565b92915050565b600081519050615b6c81617557565b92915050565b600081359050615b818161756e565b92915050565b600082601f830112615b9857600080fd5b8151615ba8848260208601615adc565b91505092915050565b600081519050615bc081617585565b92915050565b600081519050615bd58161759c565b92915050565b600081359050615bea816175b3565b92915050565b600081519050615bff816175b3565b92915050565b600081519050615c14816175ca565b92915050565b600060208284031215615c2c57600080fd5b6000615c3a84828501615b48565b91505092915050565b600060208284031215615c5557600080fd5b6000615c6384828501615b5d565b91505092915050565b60008060408385031215615c7f57600080fd5b6000615c8d85828601615b72565b9250506020615c9e85828601615bdb565b9150509250929050565b60008060008060808587031215615cbe57600080fd5b6000615ccc87828801615b72565b9450506020615cdd87828801615bdb565b9350506040615cee87828801615bdb565b9250506060615cff87828801615b48565b91505092959194509250565b600060208284031215615d1d57600080fd5b600082015167ffffffffffffffff811115615d3757600080fd5b615d4384828501615b87565b91505092915050565b600060208284031215615d5e57600080fd5b6000615d6c84828501615bb1565b91505092915050565b600060208284031215615d8757600080fd5b6000615d9584828501615bdb565b91505092915050565b600060208284031215615db057600080fd5b6000615dbe84828501615bf0565b91505092915050565b60008060408385031215615dda57600080fd5b6000615de885828601615bdb565b9250506020615df985828601615bdb565b9150509250929050565b600080600080600060a08688031215615e1b57600080fd5b6000615e2988828901615c05565b9550506020615e3a88828901615bc6565b9450506040615e4b88828901615bf0565b9350506060615e5c88828901615bf0565b9250506080615e6d88828901615c05565b9150509295509295909350565b6000615e868383615ef8565b60208301905092915050565b6000615e9e8383616a29565b60408301905092915050565b6000615eb68383616a58565b60a08301905092915050565b6000615ece8383616b28565b60208301905092915050565b615ee3816173cb565b82525050565b615ef281617350565b82525050565b615f018161733e565b82525050565b615f108161733e565b82525050565b6000615f21826171a5565b615f2b8185617205565b9350615f3683617165565b8060005b83811015615f67578151615f4e8882615e7a565b9750615f59836171d1565b925050600181019050615f3a565b5085935050505092915050565b6000615f7f826171b0565b615f898185617216565b9350615f9483617175565b8060005b83811015615fc5578151615fac8882615e92565b9750615fb7836171de565b925050600181019050615f98565b5085935050505092915050565b6000615fdd826171bb565b615fe78185617227565b9350615ff283617185565b8060005b8381101561602357815161600a8882615eaa565b9750616015836171eb565b925050600181019050615ff6565b5085935050505092915050565b600061603b826171c6565b6160458185617238565b935061605083617195565b8060005b838110156160815781516160688882615ec2565b9750616073836171f8565b925050600181019050616054565b5085935050505092915050565b61609781617362565b82525050565b6160a6816173dd565b82525050565b6160b581617401565b82525050565b6160c481617425565b82525050565b6160d381617437565b82525050565b60006160e6603483617249565b91507f4552524f523a20546869732073656c6c65722069736e2774207265676973746560008301527f72656420696e206f757220706c6174666f726d2e0000000000000000000000006020830152604082019050919050565b600061614c602083617249565b91507f4552524f523a20596f752061726520616c726561647920612073656c6c65722e6000830152602082019050919050565b600061618c602b83617249565b91507f4552524f523a20596f75277265206e6f74207468652073656c6c6572206f662060008301527f74686973206f726465722e0000000000000000000000000000000000000000006020830152604082019050919050565b60006161f2602a83617249565b91507f4552524f523a20596f75277265206e6f7420746865206275796572206f66207460008301527f686973206f726465722e000000000000000000000000000000000000000000006020830152604082019050919050565b6000616258604283617249565b91507f4552524f523a2054686520706169722057415641582f276e657741646472657360008301527f732720646f6573206e6f74206578697374206f6e206465636c6172656420444560208301527f582e0000000000000000000000000000000000000000000000000000000000006040830152606082019050919050565b60006162e4602383617249565b91507f4552524f523a20596f752063616e27742064656c6574652074686973206f726460008301527f65722e00000000000000000000000000000000000000000000000000000000006020830152604082019050919050565b600061634a601683617249565b91507f4552524f523a20617070726f7665206661696c65642e000000000000000000006000830152602082019050919050565b600061638a601783617249565b91507f4552524f523a207472616e73666572206661696c65642e0000000000000000006000830152602082019050919050565b60006163ca604783617249565b91507f4552524f523a2054686520616d6f756e7420796f752077616e74656420746f2060008301527f73656e64206973206e6f7420657175616c20746f20746865206f72646572277360208301527f2070726963652e000000000000000000000000000000000000000000000000006040830152606082019050919050565b6000616456603483617249565b91507f4552524f523a20546865206465636c6172656420737461626c65636f696e206960008301527f73206e6f742070656767656420746f205553442e0000000000000000000000006020830152604082019050919050565b60006164bc602b83617249565b91507f4552524f523a20596f752063616e27742061736b20726566756e6420666f722060008301527f74686973206f726465722e0000000000000000000000000000000000000000006020830152604082019050919050565b6000616522601b83617249565b91507f4552524f523a207472616e7366657246726f6d206661696c65642e00000000006000830152602082019050919050565b6000616562602183617249565b91507f4552524f523a20596f752063616e277420736869702074686973206f7264657260008301527f2e000000000000000000000000000000000000000000000000000000000000006020830152604082019050919050565b60006165c8602883617249565b91507f4552524f523a20546865206164647265737320796f7520696e7365727465642060008301527f6973206e756c6c2e0000000000000000000000000000000000000000000000006020830152604082019050919050565b600061662e602683617249565b91507f4552524f523a20546865206f7264657220616d6f756e742063616e277420626560008301527f206e756c6c2e00000000000000000000000000000000000000000000000000006020830152604082019050919050565b6000616694603383617249565b91507f4552524f523a20546869732075736572206973206e6f7420726567697374657260008301527f656420696e206f757220706c6174666f726d2e000000000000000000000000006020830152604082019050919050565b60006166fa604283617249565b91507f4552524f523a205468726573686f6c64206d757374206265206265747765656e60008301527f20736574746564206c6f776572426f756e6420616e6420686967686572426f7560208301527f6e640000000000000000000000000000000000000000000000000000000000006040830152606082019050919050565b6000616786604583617249565b91507f4552524f523a204f6e6c7920746865206f776e6572206f66207468697320736d60008301527f61727420636f6e74726163742063616e20706572666f726d207468697320616360208301527f74696f6e2e0000000000000000000000000000000000000000000000000000006040830152606082019050919050565b6000616812604183617249565b91507f4552524f523a20596f75277265206368616e67696e672074686520646174612060008301527f6665656420746f2061206e6f6e2d737461626c65636f696e207761746368657260208301527f2e000000000000000000000000000000000000000000000000000000000000006040830152606082019050919050565b600061689e602383617249565b91507f4552524f523a20596f7527726520747279696e6720746f207370656e6420415660008301527f41582e00000000000000000000000000000000000000000000000000000000006020830152604082019050919050565b6000616904603183617249565b91507f4552524f523a20596f752063616e277420706572666f726d206120726566756e60008301527f6420666f722074686973206f726465722e0000000000000000000000000000006020830152604082019050919050565b600061696a602483617249565b91507f4552524f523a20596f752063616e277420636f6e6669726d2074686973206f7260008301527f6465722e000000000000000000000000000000000000000000000000000000006020830152604082019050919050565b60006169d0602183617249565b91507f4552524f523a2054686973206f7264657220646f6573206e6f7420657869737460008301527f2e000000000000000000000000000000000000000000000000000000000000006020830152604082019050919050565b604082016000820151616a3f60008501826160bb565b506020820151616a526020850182616b28565b50505050565b60a082016000820151616a6e6000850182616b28565b506020820151616a816020850182615ee9565b506040820151616a946040850182615ee9565b506060820151616aa76060850182616b28565b506080820151616aba60808501826160bb565b50505050565b60a082016000820151616ad66000850182616b28565b506020820151616ae96020850182615ee9565b506040820151616afc6040850182615ee9565b506060820151616b0f6060850182616b28565b506080820151616b2260808501826160bb565b50505050565b616b31816173ab565b82525050565b616b40816173ab565b82525050565b6000602082019050616b5b6000830184615f07565b92915050565b6000604082019050616b766000830185615eda565b616b836020830184616b37565b9392505050565b6000604082019050616b9f6000830185615f07565b616bac6020830184615f07565b9392505050565b6000606082019050616bc86000830186615f07565b616bd56020830185615eda565b616be26040830184616b37565b949350505050565b6000606082019050616bff6000830186615f07565b616c0c6020830185615f07565b616c196040830184616b37565b949350505050565b6000604082019050616c366000830185615f07565b616c4360208301846160ca565b9392505050565b6000604082019050616c5f6000830185615f07565b616c6c6020830184616b37565b9392505050565b60006020820190508181036000830152616c8d8184615f16565b905092915050565b60006020820190508181036000830152616caf8184615f74565b905092915050565b60006020820190508181036000830152616cd18184615fd2565b905092915050565b60006020820190508181036000830152616cf38184616030565b905092915050565b6000602082019050616d10600083018461608e565b92915050565b6000602082019050616d2b600083018461609d565b92915050565b6000602082019050616d4660008301846160ac565b92915050565b60006020820190508181036000830152616d65816160d9565b9050919050565b60006020820190508181036000830152616d858161613f565b9050919050565b60006020820190508181036000830152616da58161617f565b9050919050565b60006020820190508181036000830152616dc5816161e5565b9050919050565b60006020820190508181036000830152616de58161624b565b9050919050565b60006020820190508181036000830152616e05816162d7565b9050919050565b60006020820190508181036000830152616e258161633d565b9050919050565b60006020820190508181036000830152616e458161637d565b9050919050565b60006020820190508181036000830152616e65816163bd565b9050919050565b60006020820190508181036000830152616e8581616449565b9050919050565b60006020820190508181036000830152616ea5816164af565b9050919050565b60006020820190508181036000830152616ec581616515565b9050919050565b60006020820190508181036000830152616ee581616555565b9050919050565b60006020820190508181036000830152616f05816165bb565b9050919050565b60006020820190508181036000830152616f2581616621565b9050919050565b60006020820190508181036000830152616f4581616687565b9050919050565b60006020820190508181036000830152616f65816166ed565b9050919050565b60006020820190508181036000830152616f8581616779565b9050919050565b60006020820190508181036000830152616fa581616805565b9050919050565b60006020820190508181036000830152616fc581616891565b9050919050565b60006020820190508181036000830152616fe5816168f7565b9050919050565b600060208201905081810360008301526170058161695d565b9050919050565b60006020820190508181036000830152617025816169c3565b9050919050565b600060a0820190506170416000830184616ac0565b92915050565b600060208201905061705c6000830184616b37565b92915050565b60006080820190506170776000830187616b37565b81810360208301526170898186615f16565b90506170986040830185615f07565b6170a56060830184616b37565b95945050505050565b600060a0820190506170c36000830188616b37565b6170d06020830187616b37565b81810360408301526170e28186615f16565b90506170f16060830185615f07565b6170fe6080830184616b37565b9695505050505050565b6000604051905081810181811067ffffffffffffffff8211171561712f5761712e617514565b5b8060405250919050565b600067ffffffffffffffff82111561715457617153617514565b5b602082029050602081019050919050565b6000819050602082019050919050565b6000819050602082019050919050565b6000819050602082019050919050565b6000819050602082019050919050565b600081519050919050565b600081519050919050565b600081519050919050565b600081519050919050565b6000602082019050919050565b6000602082019050919050565b6000602082019050919050565b6000602082019050919050565b600082825260208201905092915050565b600082825260208201905092915050565b600082825260208201905092915050565b600082825260208201905092915050565b600082825260208201905092915050565b6000617265826173ab565b9150617270836173ab565b9250827fffffffffffffffffffffffffffffffffffffffffffffffffffffffffffffffff038211156172a5576172a46174b6565b5b828201905092915050565b60006172bb826173ab565b91506172c6836173ab565b9250817fffffffffffffffffffffffffffffffffffffffffffffffffffffffffffffffff04831182151516156172ff576172fe6174b6565b5b828202905092915050565b6000617315826173ab565b9150617320836173ab565b925082821015617333576173326174b6565b5b828203905092915050565b60006173498261738b565b9050919050565b600061735b8261738b565b9050919050565b60008115159050919050565b600081905061737c82617543565b919050565b6000819050919050565b600073ffffffffffffffffffffffffffffffffffffffff82169050919050565b6000819050919050565b600069ffffffffffffffffffff82169050919050565b60006173d682617449565b9050919050565b60006173e8826173ef565b9050919050565b60006173fa8261738b565b9050919050565b600061740c82617413565b9050919050565b600061741e8261738b565b9050919050565b60006174308261736e565b9050919050565b6000617442826173ab565b9050919050565b60006174548261745b565b9050919050565b60006174668261738b565b9050919050565b6000617478826173ab565b91507fffffffffffffffffffffffffffffffffffffffffffffffffffffffffffffffff8214156174ab576174aa6174b6565b5b600182019050919050565b7f4e487b7100000000000000000000000000000000000000000000000000000000600052601160045260246000fd5b7f4e487b7100000000000000000000000000000000000000000000000000000000600052602160045260246000fd5b7f4e487b7100000000000000000000000000000000000000000000000000000000600052604160045260246000fd5b60068110617554576175536174e5565b5b50565b6175608161733e565b811461756b57600080fd5b50565b61757781617350565b811461758257600080fd5b50565b61758e81617362565b811461759957600080fd5b50565b6175a581617381565b81146175b057600080fd5b50565b6175bc816173ab565b81146175c757600080fd5b50565b6175d3816173b5565b81146175de57600080fd5b5056fea2646970667358221220fac5677d14a7350e257a2e5b75ba7fc65f2f2fa63fb212c97da75bc50336305264736f6c63430008000033",
  "linkReferences": {},
  "deployedLinkReferences": {}
}