{
  "_format": "hh-sol-artifact-1",
  "contractName": "SCEscrow",
  "sourceName": "contracts/SCEscrow.sol",
  "abi": [
    {
      "inputs": [],
      "stateMutability": "nonpayable",
      "type": "constructor"
    },
    {
      "anonymous": false,
      "inputs": [
        {
          "indexed": false,
          "internalType": "address",
          "name": "",
          "type": "address"
        }
      ],
      "name": "DataFeedSet",
      "type": "event"
    },
    {
      "anonymous": false,
      "inputs": [
        {
          "components": [
            {
              "internalType": "uint256",
              "name": "id",
              "type": "uint256"
            },
            {
              "internalType": "address payable",
              "name": "buyer",
              "type": "address"
            },
            {
              "internalType": "address payable",
              "name": "seller",
              "type": "address"
            },
            {
              "internalType": "uint256",
              "name": "amount",
              "type": "uint256"
            },
            {
              "internalType": "enum SCEscrow.State",
              "name": "state",
              "type": "uint8"
            }
          ],
          "indexed": false,
          "internalType": "struct SCEscrow.Order",
          "name": "",
          "type": "tuple"
        }
      ],
      "name": "OrderConfirmed",
      "type": "event"
    },
    {
      "anonymous": false,
      "inputs": [
        {
          "components": [
            {
              "internalType": "uint256",
              "name": "id",
              "type": "uint256"
            },
            {
              "internalType": "address payable",
              "name": "buyer",
              "type": "address"
            },
            {
              "internalType": "address payable",
              "name": "seller",
              "type": "address"
            },
            {
              "internalType": "uint256",
              "name": "amount",
              "type": "uint256"
            },
            {
              "internalType": "enum SCEscrow.State",
              "name": "state",
              "type": "uint8"
            }
          ],
          "indexed": false,
          "internalType": "struct SCEscrow.Order",
          "name": "",
          "type": "tuple"
        }
      ],
      "name": "OrderCreated",
      "type": "event"
    },
    {
      "anonymous": false,
      "inputs": [
        {
          "components": [
            {
              "internalType": "uint256",
              "name": "id",
              "type": "uint256"
            },
            {
              "internalType": "address payable",
              "name": "buyer",
              "type": "address"
            },
            {
              "internalType": "address payable",
              "name": "seller",
              "type": "address"
            },
            {
              "internalType": "uint256",
              "name": "amount",
              "type": "uint256"
            },
            {
              "internalType": "enum SCEscrow.State",
              "name": "state",
              "type": "uint8"
            }
          ],
          "indexed": false,
          "internalType": "struct SCEscrow.Order",
          "name": "",
          "type": "tuple"
        }
      ],
      "name": "OrderDeleted",
      "type": "event"
    },
    {
      "anonymous": false,
      "inputs": [
        {
          "components": [
            {
              "internalType": "uint256",
              "name": "id",
              "type": "uint256"
            },
            {
              "internalType": "address payable",
              "name": "buyer",
              "type": "address"
            },
            {
              "internalType": "address payable",
              "name": "seller",
              "type": "address"
            },
            {
              "internalType": "uint256",
              "name": "amount",
              "type": "uint256"
            },
            {
              "internalType": "enum SCEscrow.State",
              "name": "state",
              "type": "uint8"
            }
          ],
          "indexed": false,
          "internalType": "struct SCEscrow.Order",
          "name": "",
          "type": "tuple"
        }
      ],
      "name": "OrderRefunded",
      "type": "event"
    },
    {
      "anonymous": false,
      "inputs": [
        {
          "components": [
            {
              "internalType": "uint256",
              "name": "id",
              "type": "uint256"
            },
            {
              "internalType": "address payable",
              "name": "buyer",
              "type": "address"
            },
            {
              "internalType": "address payable",
              "name": "seller",
              "type": "address"
            },
            {
              "internalType": "uint256",
              "name": "amount",
              "type": "uint256"
            },
            {
              "internalType": "enum SCEscrow.State",
              "name": "state",
              "type": "uint8"
            }
          ],
          "indexed": false,
          "internalType": "struct SCEscrow.Order",
          "name": "",
          "type": "tuple"
        }
      ],
      "name": "OrderShipped",
      "type": "event"
    },
    {
      "anonymous": false,
      "inputs": [
        {
          "indexed": false,
          "internalType": "uint256",
          "name": "",
          "type": "uint256"
        }
      ],
      "name": "PegThresholdSet",
      "type": "event"
    },
    {
      "anonymous": false,
      "inputs": [
        {
          "components": [
            {
              "internalType": "uint256",
              "name": "id",
              "type": "uint256"
            },
            {
              "internalType": "address payable",
              "name": "buyer",
              "type": "address"
            },
            {
              "internalType": "address payable",
              "name": "seller",
              "type": "address"
            },
            {
              "internalType": "uint256",
              "name": "amount",
              "type": "uint256"
            },
            {
              "internalType": "enum SCEscrow.State",
              "name": "state",
              "type": "uint8"
            }
          ],
          "indexed": false,
          "internalType": "struct SCEscrow.Order",
          "name": "",
          "type": "tuple"
        }
      ],
      "name": "RefundAsked",
      "type": "event"
    },
    {
      "anonymous": false,
      "inputs": [
        {
          "indexed": false,
          "internalType": "address",
          "name": "",
          "type": "address"
        }
      ],
      "name": "SellerRegistered",
      "type": "event"
    },
    {
      "anonymous": false,
      "inputs": [
        {
          "indexed": false,
          "internalType": "address",
          "name": "",
          "type": "address"
        }
      ],
      "name": "StablecoinSet",
      "type": "event"
    },
    {
      "inputs": [],
      "name": "STABLECOIN",
      "outputs": [
        {
          "internalType": "address",
          "name": "",
          "type": "address"
        }
      ],
      "stateMutability": "view",
      "type": "function"
    },
    {
      "inputs": [],
      "name": "WAVAX",
      "outputs": [
        {
          "internalType": "address",
          "name": "",
          "type": "address"
        }
      ],
      "stateMutability": "view",
      "type": "function"
    },
    {
      "inputs": [
        {
          "internalType": "uint256",
          "name": "orderId",
          "type": "uint256"
        }
      ],
      "name": "askRefund",
      "outputs": [],
      "stateMutability": "nonpayable",
      "type": "function"
    },
    {
      "inputs": [
        {
          "internalType": "uint256",
          "name": "orderId",
          "type": "uint256"
        }
      ],
      "name": "confirmOrder",
      "outputs": [],
      "stateMutability": "nonpayable",
      "type": "function"
    },
    {
      "inputs": [],
      "name": "contractAddress",
      "outputs": [
        {
          "internalType": "address",
          "name": "",
          "type": "address"
        }
      ],
      "stateMutability": "view",
      "type": "function"
    },
    {
      "inputs": [
        {
          "internalType": "address payable",
          "name": "seller",
          "type": "address"
        },
        {
          "internalType": "uint256",
          "name": "amount",
          "type": "uint256"
        }
      ],
      "name": "createOrderWithAVAXToStable",
      "outputs": [
        {
          "internalType": "uint256[]",
          "name": "amounts",
          "type": "uint256[]"
        }
      ],
      "stateMutability": "payable",
      "type": "function"
    },
    {
      "inputs": [
        {
          "internalType": "address payable",
          "name": "seller",
          "type": "address"
        },
        {
          "internalType": "uint256",
          "name": "amount",
          "type": "uint256"
        }
      ],
      "name": "createOrderWithStable",
      "outputs": [],
      "stateMutability": "payable",
      "type": "function"
    },
    {
      "inputs": [
        {
          "internalType": "address payable",
          "name": "seller",
          "type": "address"
        },
        {
          "internalType": "uint256",
          "name": "amount",
          "type": "uint256"
        },
        {
          "internalType": "uint256",
          "name": "amountInMax",
          "type": "uint256"
        },
        {
          "internalType": "address",
          "name": "tokenIn",
          "type": "address"
        }
      ],
      "name": "createOrderWithTokensToStable",
      "outputs": [
        {
          "internalType": "uint256[]",
          "name": "amounts",
          "type": "uint256[]"
        }
      ],
      "stateMutability": "payable",
      "type": "function"
    },
    {
      "inputs": [
        {
          "internalType": "uint256",
          "name": "orderId",
          "type": "uint256"
        }
      ],
      "name": "deleteOrder",
      "outputs": [],
      "stateMutability": "nonpayable",
      "type": "function"
    },
    {
      "inputs": [],
      "name": "getBalance",
      "outputs": [
        {
          "internalType": "uint256",
          "name": "",
          "type": "uint256"
        }
      ],
      "stateMutability": "view",
      "type": "function"
    },
    {
      "inputs": [
        {
          "internalType": "uint256",
          "name": "orderId",
          "type": "uint256"
        }
      ],
      "name": "getLogsOfOrder",
      "outputs": [
        {
          "components": [
            {
              "internalType": "enum SCEscrow.State",
              "name": "state",
              "type": "uint8"
            },
            {
              "internalType": "uint256",
              "name": "timestamp",
              "type": "uint256"
            }
          ],
          "internalType": "struct SCEscrow.Log[]",
          "name": "",
          "type": "tuple[]"
        }
      ],
      "stateMutability": "view",
      "type": "function"
    },
    {
      "inputs": [
        {
          "internalType": "uint256",
          "name": "id",
          "type": "uint256"
        }
      ],
      "name": "getOrder",
      "outputs": [
        {
          "components": [
            {
              "internalType": "uint256",
              "name": "id",
              "type": "uint256"
            },
            {
              "internalType": "address payable",
              "name": "buyer",
              "type": "address"
            },
            {
              "internalType": "address payable",
              "name": "seller",
              "type": "address"
            },
            {
              "internalType": "uint256",
              "name": "amount",
              "type": "uint256"
            },
            {
              "internalType": "enum SCEscrow.State",
              "name": "state",
              "type": "uint8"
            }
          ],
          "internalType": "struct SCEscrow.Order",
          "name": "",
          "type": "tuple"
        }
      ],
      "stateMutability": "view",
      "type": "function"
    },
    {
      "inputs": [],
      "name": "getOrders",
      "outputs": [
        {
          "components": [
            {
              "internalType": "uint256",
              "name": "id",
              "type": "uint256"
            },
            {
              "internalType": "address payable",
              "name": "buyer",
              "type": "address"
            },
            {
              "internalType": "address payable",
              "name": "seller",
              "type": "address"
            },
            {
              "internalType": "uint256",
              "name": "amount",
              "type": "uint256"
            },
            {
              "internalType": "enum SCEscrow.State",
              "name": "state",
              "type": "uint8"
            }
          ],
          "internalType": "struct SCEscrow.Order[]",
          "name": "",
          "type": "tuple[]"
        }
      ],
      "stateMutability": "view",
      "type": "function"
    },
    {
      "inputs": [
        {
          "internalType": "address",
          "name": "user",
          "type": "address"
        }
      ],
      "name": "getOrdersOfUser",
      "outputs": [
        {
          "components": [
            {
              "internalType": "uint256",
              "name": "id",
              "type": "uint256"
            },
            {
              "internalType": "address payable",
              "name": "buyer",
              "type": "address"
            },
            {
              "internalType": "address payable",
              "name": "seller",
              "type": "address"
            },
            {
              "internalType": "uint256",
              "name": "amount",
              "type": "uint256"
            },
            {
              "internalType": "enum SCEscrow.State",
              "name": "state",
              "type": "uint8"
            }
          ],
          "internalType": "struct SCEscrow.Order[]",
          "name": "",
          "type": "tuple[]"
        }
      ],
      "stateMutability": "view",
      "type": "function"
    },
    {
      "inputs": [],
      "name": "getPriceStablecoin",
      "outputs": [
        {
          "internalType": "uint256",
          "name": "",
          "type": "uint256"
        }
      ],
      "stateMutability": "view",
      "type": "function"
    },
    {
      "inputs": [],
      "name": "getSellers",
      "outputs": [
        {
          "internalType": "address[]",
          "name": "",
          "type": "address[]"
        }
      ],
      "stateMutability": "view",
      "type": "function"
    },
    {
      "inputs": [],
      "name": "getTotalOrders",
      "outputs": [
        {
          "internalType": "uint256",
          "name": "",
          "type": "uint256"
        }
      ],
      "stateMutability": "view",
      "type": "function"
    },
    {
      "inputs": [],
      "name": "getTotalSellers",
      "outputs": [
        {
          "internalType": "uint256",
          "name": "",
          "type": "uint256"
        }
      ],
      "stateMutability": "view",
      "type": "function"
    },
    {
      "inputs": [],
      "name": "lowerBoundThreshold",
      "outputs": [
        {
          "internalType": "uint256",
          "name": "",
          "type": "uint256"
        }
      ],
      "stateMutability": "view",
      "type": "function"
    },
    {
      "inputs": [],
      "name": "owner",
      "outputs": [
        {
          "internalType": "address",
          "name": "",
          "type": "address"
        }
      ],
      "stateMutability": "view",
      "type": "function"
    },
    {
      "inputs": [],
      "name": "pegThreshold",
      "outputs": [
        {
          "internalType": "uint256",
          "name": "",
          "type": "uint256"
        }
      ],
      "stateMutability": "view",
      "type": "function"
    },
    {
      "inputs": [
        {
          "internalType": "uint256",
          "name": "orderId",
          "type": "uint256"
        },
        {
          "internalType": "uint256",
          "name": "amount",
          "type": "uint256"
        }
      ],
      "name": "refundBuyer",
      "outputs": [],
      "stateMutability": "payable",
      "type": "function"
    },
    {
      "inputs": [],
      "name": "registerAsSeller",
      "outputs": [],
      "stateMutability": "nonpayable",
      "type": "function"
    },
    {
      "inputs": [
        {
          "internalType": "address",
          "name": "newAddress",
          "type": "address"
        }
      ],
      "name": "setStablecoinAddress",
      "outputs": [],
      "stateMutability": "nonpayable",
      "type": "function"
    },
    {
      "inputs": [
        {
          "internalType": "address",
          "name": "newDataFeed",
          "type": "address"
        }
      ],
      "name": "setStablecoinDataFeed",
      "outputs": [],
      "stateMutability": "nonpayable",
      "type": "function"
    },
    {
      "inputs": [
        {
          "internalType": "uint256",
          "name": "newThreshold",
          "type": "uint256"
        }
      ],
      "name": "setStablecoinPegThreshold",
      "outputs": [],
      "stateMutability": "nonpayable",
      "type": "function"
    },
    {
      "inputs": [
        {
          "internalType": "uint256",
          "name": "orderId",
          "type": "uint256"
        }
      ],
      "name": "shipOrder",
      "outputs": [],
      "stateMutability": "nonpayable",
      "type": "function"
    },
    {
      "inputs": [],
      "name": "stablecoinIsPegged",
      "outputs": [
        {
          "internalType": "bool",
          "name": "",
          "type": "bool"
        }
      ],
      "stateMutability": "view",
      "type": "function"
    },
    {
      "inputs": [],
      "name": "tjFactory",
      "outputs": [
        {
          "internalType": "contract IJoeFactory",
          "name": "",
          "type": "address"
        }
      ],
      "stateMutability": "view",
      "type": "function"
    },
    {
      "inputs": [],
      "name": "tjRouter",
      "outputs": [
        {
          "internalType": "contract IJoeRouter01",
          "name": "",
          "type": "address"
        }
      ],
      "stateMutability": "view",
      "type": "function"
    },
    {
      "inputs": [],
      "name": "upperBoundThreshold",
      "outputs": [
        {
          "internalType": "uint256",
          "name": "",
          "type": "uint256"
        }
      ],
      "stateMutability": "view",
      "type": "function"
    },
    {
      "stateMutability": "payable",
      "type": "receive"
    }
  ],
  "bytecode": "0x6101606040527360ae616a2155ee3d9a68541ba4544862310933d473ffffffffffffffffffffffffffffffffffffffff1660809073ffffffffffffffffffffffffffffffffffffffff1660601b815250739ad6c38be94206ca50bb0d90783181662f0cfa1073ffffffffffffffffffffffffffffffffffffffff1660a09073ffffffffffffffffffffffffffffffffffffffff1660601b81525073f096872672f44d6eba71458d74fe67f9a77a23b96000806101000a81548173ffffffffffffffffffffffffffffffffffffffff021916908373ffffffffffffffffffffffffffffffffffffffff16021790555073b31f66aa3c1e785363f0875a1b74e27b85fd66c773ffffffffffffffffffffffffffffffffffffffff1660c09073ffffffffffffffffffffffffffffffffffffffff1660601b81525073b97ef9ef8734c71904d8002f8b6bc66dd9c48a6e600160006101000a81548173ffffffffffffffffffffffffffffffffffffffff021916908373ffffffffffffffffffffffffffffffffffffffff160217905550662386f26fc1000060025566038d7ea4c6800060e09081525066b1a2bc2ec50000610100908152503073ffffffffffffffffffffffffffffffffffffffff166101209073ffffffffffffffffffffffffffffffffffffffff1660601b815250348015620001f857600080fd5b506200022d7f70009a1fa17b90c0c7f9823a594774a264a3ab76ab02a31632cf4f5a4cea8f6c60001b620002d360201b60201c565b620002617fd7abe0aa9756b124e209ed3f12faf0ed3f58dfb6222ee7861b26348bc257afc460001b620002d360201b60201c565b620002957f649e7e9b8226ff841755937ad9679e332c35ec7e00b8ff8971ea4fecb2ba076960001b620002d360201b60201c565b3373ffffffffffffffffffffffffffffffffffffffff166101408173ffffffffffffffffffffffffffffffffffffffff1660601b81525050620002d6565b50565b60805160601c60a05160601c60c05160601c60e051610100516101205160601c6101405160601c61c0eb620003a2600039600081816121790152818161370101528181615e310152615f31015260008181613231015261959f01526000818161233a0152614e1a01526000818161230f0152614df6015260008181614e3e015281816161fa015281816170110152619a0b015260008181614e6201526161bd01526000818161362d01528181616d24015281816171ed015281816174140152619be7015261c0eb6000f3fe6080604052600436106101dc5760003560e01c806373b295c2116101025780639ff41c9911610095578063e47cad7511610064578063e47cad751461067d578063f11828fa146106a6578063f6b4dfb4146106c2578063fffd5ebf146106ed576101e3565b80639ff41c99146105a8578063a80a79cc146105e5578063d09ef24114610615578063d356518b14610652576101e3565b80638da5cb5b116100d15780638da5cb5b146104fe5780638fdf7c821461052957806393a39776146105545780639ecd05001461057f576101e3565b806373b295c21461045457806378000d4a1461047f5780637ee454cb146104aa5780638ac7d79c146104d5576101e3565b806318f97af51161017a5780632e2dc43e116101495780632e2dc43e146103a8578063375f16a7146103d35780636729fa85146103fe57806368acb46014610429576101e3565b806318f97af514610300578063194c302c14610329578063245cd4011461035257806324e9c1291461037d576101e3565b806311a00327116101b657806311a003271461026a57806312065fe014610293578063128b8532146102be5780631355dadf146102d5576101e3565b8063044ce308146101e85780630d4b18e8146102045780631018efbb14610241576101e3565b366101e357005b600080fd5b61020260048036038101906101fd919061a89b565b61071d565b005b34801561021057600080fd5b5061022b6004803603810190610226919061a6ee565b611422565b604051610238919061b78b565b60405180910390f35b34801561024d57600080fd5b506102686004803603810190610263919061a849565b6120c7565b005b34801561027657600080fd5b50610291600480360381019061028c919061a849565b6124bb565b005b34801561029f57600080fd5b506102a86131a9565b6040516102b5919061bb1b565b60405180910390f35b3480156102ca57600080fd5b506102d361326c565b005b3480156102e157600080fd5b506102ea61362b565b6040516102f7919061b805565b60405180910390f35b34801561030c57600080fd5b506103276004803603810190610322919061a6ee565b61364f565b005b34801561033557600080fd5b50610350600480360381019061034b919061a849565b613cd4565b005b34801561035e57600080fd5b5061036761473f565b604051610374919061bb1b565b60405180910390f35b34801561038957600080fd5b506103926147d4565b60405161039f919061b7cf565b60405180910390f35b3480156103b457600080fd5b506103bd614974565b6040516103ca919061b78b565b60405180910390f35b3480156103df57600080fd5b506103e8614d5f565b6040516103f5919061bb1b565b60405180910390f35b34801561040a57600080fd5b50610413614df4565b604051610420919061bb1b565b60405180910390f35b34801561043557600080fd5b5061043e614e18565b60405161044b919061bb1b565b60405180910390f35b34801561046057600080fd5b50610469614e3c565b604051610476919061b61a565b60405180910390f35b34801561048b57600080fd5b50610494614e60565b6040516104a1919061b7ea565b60405180910390f35b3480156104b657600080fd5b506104bf614e84565b6040516104cc919061b747565b60405180910390f35b3480156104e157600080fd5b506104fc60048036038101906104f7919061a849565b615162565b005b34801561050a57600080fd5b50610513615e2f565b604051610520919061b61a565b60405180910390f35b34801561053557600080fd5b5061053e615e53565b60405161054b919061bb1b565b60405180910390f35b34801561056057600080fd5b50610569615e59565b604051610576919061b61a565b60405180910390f35b34801561058b57600080fd5b506105a660048036038101906105a1919061a6ee565b615e7f565b005b3480156105b457600080fd5b506105cf60048036038101906105ca919061a849565b6164f6565b6040516105dc919061b769565b60405180910390f35b6105ff60048036038101906105fa919061a77c565b6167d3565b60405161060c919061b7ad565b60405180910390f35b34801561062157600080fd5b5061063c6004803603810190610637919061a849565b617713565b604051610649919061bb00565b60405180910390f35b34801561065e57600080fd5b50610667617a61565b604051610674919061bb1b565b60405180910390f35b34801561068957600080fd5b506106a4600480360381019061069f919061a849565b617c5b565b005b6106c060048036038101906106bb919061a740565b618fef565b005b3480156106ce57600080fd5b506106d761959d565b6040516106e4919061b61a565b60405180910390f35b6107076004803603810190610702919061a740565b6195c1565b604051610714919061b7ad565b60405180910390f35b8161074a7fc250fcc7c666f2b170c8be2b932a63a82882767ef2d69a346e14009c71d315ee60001b619ca6565b6107767f4d9785700f8161122e9aa891bcebb05ab1a394fb8476345175413771ebb37dba60001b619ca6565b6107a27ff6fd6add7f241ecfe34d79239dc0b99e9f4878d54e19a3de732be144bdb5874860001b619ca6565b6107ce7f3189d129b2d9ee2c5a8479781fb034e151d59b557a6eab1e8e3624f8ebfacd8260001b619ca6565b6107d86004619ca9565b81111561081a576040517f08c379a00000000000000000000000000000000000000000000000000000000081526004016108119061bae0565b60405180910390fd5b6108467f1aa3bac20e6ad34b701bf984a8eabcdee95578a88dc8b398dcd8ada4aac6a37260001b619ca6565b6108727f459115f158cf17cd3b1d75ad7c49381ef41d2cbc9901890fae3afd1ff0f8152660001b619ca6565b8261089f7f763cf9efe81d4adc51745eb9acc8fa51d3da1177d62d9dc0bfd0fa76bb1a003f60001b619ca6565b6108cb7ff9f60ee516ae7fc23be51d9d303f9d6e9102330ba094f9a1182381a8512bda2360001b619ca6565b6108f77f0f18a7d93ac86841df08126d311c1e4c18bd557b22e3f33fa4a67cac1560de5460001b619ca6565b6109237f3ec7cd6f323464df838a78ce176a85fccf5c8be3278cbdf2d19e80950c586ed160001b619ca6565b3373ffffffffffffffffffffffffffffffffffffffff166005600083815260200190815260200160002060020160009054906101000a900473ffffffffffffffffffffffffffffffffffffffff1673ffffffffffffffffffffffffffffffffffffffff16146109c7576040517f08c379a00000000000000000000000000000000000000000000000000000000081526004016109be9061b860565b60405180910390fd5b6109f37f9dd85500a2bd5ce0eb31cf00f3cca408df5f5a9e7405cb159d8342388f948fa760001b619ca6565b610a1f7f9fefbe709cab4c548990a70dc0c2ffcc9c1e457d8ba1c54f2326cbf1daad950060001b619ca6565b610a4b7f8945d96c75a38ee02787f4e5eb9ab35b14865074708570799c3e7fd8e051b5de60001b619ca6565b610a777fbfdb07ba1939c8b36712a4e87353048a9955774c7532cb233b234a5a7f73a38b60001b619ca6565b610aa37f17063365b437d3f9b5a6da6b1e1d4928bec496e45e666d7f433aa2820e016be960001b619ca6565b6000600560008681526020019081526020016000206040518060a0016040529081600082015481526020016001820160009054906101000a900473ffffffffffffffffffffffffffffffffffffffff1673ffffffffffffffffffffffffffffffffffffffff1673ffffffffffffffffffffffffffffffffffffffff1681526020016002820160009054906101000a900473ffffffffffffffffffffffffffffffffffffffff1673ffffffffffffffffffffffffffffffffffffffff1673ffffffffffffffffffffffffffffffffffffffff168152602001600382015481526020016004820160009054906101000a900460ff166005811115610bce577f4e487b7100000000000000000000000000000000000000000000000000000000600052602160045260246000fd5b6005811115610c06577f4e487b7100000000000000000000000000000000000000000000000000000000600052602160045260246000fd5b815250509050610c387fcf5332b22ec2fc046f040b8797a24ce41142e07918eb6b22dfd13121e6904ff760001b619ca6565b610c647f4cc3ed0d016040a2ea453b8fa8a9c84d65b751244e62771f1c04869b60b0a10760001b619ca6565b610c907ffaec5f7193bd832a24b20082d8a8a669424c808b640af0744fe2f0d7c5d84b5260001b619ca6565b60046005811115610cca577f4e487b7100000000000000000000000000000000000000000000000000000000600052602160045260246000fd5b81608001516005811115610d07577f4e487b7100000000000000000000000000000000000000000000000000000000600052602160045260246000fd5b14610d47576040517f08c379a0000000000000000000000000000000000000000000000000000000008152600401610d3e9061baa0565b60405180910390fd5b610d737f4eab508d9d88285222b5fc21606ee103c625a439df5ad867b33528790ecc746b60001b619ca6565b610d9f7f2288e1a76a2ecdefa9bc0aa4986a2c78e9161f6d1f5c8e1870ebc9325eb29dd860001b619ca6565b610dcb7f6422c43fb7aed7f9b517944640549c8eadcec50c1f1c1ef901f7563e2ab20d5f60001b619ca6565b610df77fe21235e13207c74928e3d4227980e60f144cfd79c12f46b7061fe0d2f5a242b260001b619ca6565b80606001518414610e3d576040517f08c379a0000000000000000000000000000000000000000000000000000000008152600401610e349061b920565b60405180910390fd5b610e697ff63cf7541c38f1d5ecda4ab6e4b4b0be6df679b39f5b806cea8b4c8f51ddc4c660001b619ca6565b610e957f17c8204e3f4935b936a270b4a2924c84fd86480754dbbca3cb485ab1eb67133660001b619ca6565b610ec17fd08f5e689ba23e03e77fe927574d08060db75de804cb06afb90ef4a03a0c7e6b60001b619ca6565b600581608001906005811115610f00577f4e487b7100000000000000000000000000000000000000000000000000000000600052602160045260246000fd5b90816005811115610f3a577f4e487b7100000000000000000000000000000000000000000000000000000000600052602160045260246000fd5b81525050610f6a7fa00eacdb3ad64e6fe9e0bbea1117c0f1b99be96f9a7b17bc1bee1f353b75ee9560001b619ca6565b610f967f20b38e8bd858a74ddfb30d20995b699177ae762e7835d617a486a3a65874b16f60001b619ca6565b80600560008781526020019081526020016000206000820151816000015560208201518160010160006101000a81548173ffffffffffffffffffffffffffffffffffffffff021916908373ffffffffffffffffffffffffffffffffffffffff16021790555060408201518160020160006101000a81548173ffffffffffffffffffffffffffffffffffffffff021916908373ffffffffffffffffffffffffffffffffffffffff1602179055506060820151816003015560808201518160040160006101000a81548160ff0219169083600581111561109d577f4e487b7100000000000000000000000000000000000000000000000000000000600052602160045260246000fd5b02179055509050506110d17fd318392d3197a6fa579cf11e7e0241fa6ae9d65e338ece501e83c70809480d6460001b619ca6565b6110fd7f17dae23ec22564666a4c3fb4312039a0afec7bb79f60ee25784bbf2546b2560c60001b619ca6565b7fe4abc940b5524be9ddb12bce78b2c90d7a2cf10a9baea081b6fb59df6f944dbc8160405161112c919061bb00565b60405180910390a16111607f856cc32ec8cae0634479a418fc0551acb2d011b05cd38b3d2be1eee8bc5574bf60001b619ca6565b61118c7f4bb01005f4e222e595b153adffeab7e72af7fd2867c512b40a45fa2c2628cda560001b619ca6565b600b600086815260200190815260200160002060405180604001604052806005808111156111e3577f4e487b7100000000000000000000000000000000000000000000000000000000600052602160045260246000fd5b815260200142815250908060018154018082558091505060019003906000526020600020906002020160009091909190915060008201518160000160006101000a81548160ff02191690836005811115611266577f4e487b7100000000000000000000000000000000000000000000000000000000600052602160045260246000fd5b02179055506020820151816001015550506112a37f57b8ff93b255c6c9e0d4836339d308962471ead4d5673ebe94ca8e71bd7a88f060001b619ca6565b6112cf7f5ceae8a569e73417ade6f0f1f76b2ec0b1ff6c8ac9bd2448342428a0d9d2f59260001b619ca6565b6112fb7fd60f8be848e844740494dd675a670fbb1c6181437f3da249e2882b58e3af261d60001b619ca6565b600160009054906101000a900473ffffffffffffffffffffffffffffffffffffffff1673ffffffffffffffffffffffffffffffffffffffff166323b872dd338360200151876040518463ffffffff1660e01b815260040161135e9392919061b687565b602060405180830381600087803b15801561137857600080fd5b505af115801561138c573d6000803e3d6000fd5b505050506040513d601f19601f820116820180604052508101906113b0919061a820565b6113ef576040517f08c379a00000000000000000000000000000000000000000000000000000000081526004016113e69061b960565b60405180910390fd5b61141b7f8a49596502a6117816dc447a152df5e09f8864ddd12924acf04de3307cf01d2460001b619ca6565b5050505050565b60606114507f346bc5260464c695e141c84e3d84e84b3eb76776b13e1495a397ae4a9e256abf60001b619ca6565b61147c7f903b77c6740a015f44fb277421d2aec3f897a7e725ec732588ac8178ad8ada0f60001b619ca6565b6114a87f33f03e628af5460350b202498a46f7e3614559a7cfb8efcdead7dfad9e2337dc60001b619ca6565b60008067ffffffffffffffff8111156114ea577f4e487b7100000000000000000000000000000000000000000000000000000000600052604160045260246000fd5b60405190808252806020026020018201604052801561152357816020015b61151061a51d565b8152602001906001900390816115085790505b5090506115527fdb2416a2cd68fe97aadef8d080218f753977c85f79061d4a5e9cca7c509ff33a60001b619ca6565b61157e7f3c90ec733477db274a2595821fe4c46e865b3a7a0c2cde1a7c464122416a9c2b60001b619ca6565b600660008473ffffffffffffffffffffffffffffffffffffffff1673ffffffffffffffffffffffffffffffffffffffff16815260200190815260200160002060009054906101000a900460ff1615611a50576115fc7fbfdaa60bf06822c99a822b5cccf51d02c84a099942ce39311354c8eb9df983fa60001b619ca6565b6116287f29b2037af62cfa063b90767e1da3291ca5ceb9b43ac7fddd60a0133b3df7ad6060001b619ca6565b6116547f16ba844e5951d297679a9d94b79f8f0106ebc2e59ae679042e7fc4a58a273f2f60001b619ca6565b600960008473ffffffffffffffffffffffffffffffffffffffff1673ffffffffffffffffffffffffffffffffffffffff1681526020019081526020016000208054905067ffffffffffffffff8111156116d6577f4e487b7100000000000000000000000000000000000000000000000000000000600052604160045260246000fd5b60405190808252806020026020018201604052801561170f57816020015b6116fc61a51d565b8152602001906001900390816116f45790505b50905061173e7f197e70ffdb3af0342026d99adda6a5b3d68d6e6e2da74a053ec8702810e168f960001b619ca6565b61176a7f756ced9f2fc70095405fa1186570dc252a4d1f328314e3a7ecb348ed10d7a57b60001b619ca6565b60005b600960008573ffffffffffffffffffffffffffffffffffffffff1673ffffffffffffffffffffffffffffffffffffffff16815260200190815260200160002080549050811015611a4a576117e37fa6c9f8da59416c9b12fda4f8d93e81fe63134263c26d5745aaf6192ee85d8ab560001b619ca6565b61180f7f60218e6c071d1c677bdbb9cf4a569dd5b9803924e8c7a5f5b1a8857dbff477d560001b619ca6565b60056000600960008773ffffffffffffffffffffffffffffffffffffffff1673ffffffffffffffffffffffffffffffffffffffff168152602001908152602001600020838154811061188a577f4e487b7100000000000000000000000000000000000000000000000000000000600052603260045260246000fd5b906000526020600020015481526020019081526020016000206040518060a0016040529081600082015481526020016001820160009054906101000a900473ffffffffffffffffffffffffffffffffffffffff1673ffffffffffffffffffffffffffffffffffffffff1673ffffffffffffffffffffffffffffffffffffffff1681526020016002820160009054906101000a900473ffffffffffffffffffffffffffffffffffffffff1673ffffffffffffffffffffffffffffffffffffffff1673ffffffffffffffffffffffffffffffffffffffff168152602001600382015481526020016004820160009054906101000a900460ff1660058111156119b9577f4e487b7100000000000000000000000000000000000000000000000000000000600052602160045260246000fd5b60058111156119f1577f4e487b7100000000000000000000000000000000000000000000000000000000600052602160045260246000fd5b81525050828281518110611a2e577f4e487b7100000000000000000000000000000000000000000000000000000000600052603260045260246000fd5b602002602001018190525080611a439061bf41565b905061176d565b50612066565b611a7c7f6f695b8b50a4f2a5be02cab975d58845defc795cea82fe2fc6bb7d12acf343b860001b619ca6565b611aa87f2dedf92fa74c5a573dd3c082f7c38e767443efac2897ac2ce7f961101aa9343760001b619ca6565b611ad47faa35a0c4df90f6f2bed9555d11a77cb87cb86b275766d97bc86d4231ef13454860001b619ca6565b600760008473ffffffffffffffffffffffffffffffffffffffff1673ffffffffffffffffffffffffffffffffffffffff16815260200190815260200160002060009054906101000a900460ff1615611fa657611b527fec0dc897a355f758544b1cc33c4f0bb39dc8a2f138e9239e1f805581ccbb773c60001b619ca6565b611b7e7fb670a5f9601cefabed40f58e239413f6534b5f9f2af6996389d421f7688952f660001b619ca6565b611baa7fc294ba5f2ce46539c2531e94d355c8a0ca197ce95275277e8d7aa6adc05c07f960001b619ca6565b600a60008473ffffffffffffffffffffffffffffffffffffffff1673ffffffffffffffffffffffffffffffffffffffff1681526020019081526020016000208054905067ffffffffffffffff811115611c2c577f4e487b7100000000000000000000000000000000000000000000000000000000600052604160045260246000fd5b604051908082528060200260200182016040528015611c6557816020015b611c5261a51d565b815260200190600190039081611c4a5790505b509050611c947f4fd514a824bebae412a5e07e1e9303ddea1d62251146a6e2e44ebc6ad084637360001b619ca6565b611cc07f289a6dd352fc5e41927cc8072f50078a4a9c283838b0bfe49fc52b2ac7fadc0960001b619ca6565b60005b600a60008573ffffffffffffffffffffffffffffffffffffffff1673ffffffffffffffffffffffffffffffffffffffff16815260200190815260200160002080549050811015611fa057611d397f43f42146e48614d150570368bc967f894a7bfb433790885046302a05308794af60001b619ca6565b611d657f6ee99d70c952960da2d4ee8bdd326ebe1219f29a3f9c48bcefa1f48b8198c1ff60001b619ca6565b60056000600a60008773ffffffffffffffffffffffffffffffffffffffff1673ffffffffffffffffffffffffffffffffffffffff1681526020019081526020016000208381548110611de0577f4e487b7100000000000000000000000000000000000000000000000000000000600052603260045260246000fd5b906000526020600020015481526020019081526020016000206040518060a0016040529081600082015481526020016001820160009054906101000a900473ffffffffffffffffffffffffffffffffffffffff1673ffffffffffffffffffffffffffffffffffffffff1673ffffffffffffffffffffffffffffffffffffffff1681526020016002820160009054906101000a900473ffffffffffffffffffffffffffffffffffffffff1673ffffffffffffffffffffffffffffffffffffffff1673ffffffffffffffffffffffffffffffffffffffff168152602001600382015481526020016004820160009054906101000a900460ff166005811115611f0f577f4e487b7100000000000000000000000000000000000000000000000000000000600052602160045260246000fd5b6005811115611f47577f4e487b7100000000000000000000000000000000000000000000000000000000600052602160045260246000fd5b81525050828281518110611f84577f4e487b7100000000000000000000000000000000000000000000000000000000600052603260045260246000fd5b602002602001018190525080611f999061bf41565b9050611cc3565b50612065565b611fd27f39726abcced937f3f06425e2289501ff8c827d1157bf0d1b26c80423ec46f54360001b619ca6565b611ffe7f489e78c2614f73ff702b2992ee4337ae93ca9c4a41964d264ddcea0e12e8830560001b619ca6565b61202a7f0c265cb5a24b9935823c815ac139708556cad2153ce81d5520f526d68d5fde5c60001b619ca6565b6040517f08c379a000000000000000000000000000000000000000000000000000000000815260040161205c9061b9e0565b60405180910390fd5b5b6120927f861a52fc22fd7ef1f3d176a0f04ae80822517a445dda92d465ccee66216bfd4b60001b619ca6565b6120be7f6e9dde4f87fa468247185cdd458065395d4c3a1037054c3d580f967a9082dd5a60001b619ca6565b80915050919050565b6120f37fb604af745e407ead1d9c464fe130e4468b6de4d7bc92a38e2b5d53903b613ce760001b619ca6565b61211f7f2fed21d70abb1bb4cd02e25bac89136c4b47888945a417965def1478043a0e0860001b619ca6565b61214b7f1ddab6d604345718b8cb508ddefb337c0a01ccf76624d95f9444bdbf4e64814460001b619ca6565b6121777f180f9c229beb7314e7670a95cd7231e18a553ebad39493e8901fabc8d4f4463660001b619ca6565b7f000000000000000000000000000000000000000000000000000000000000000073ffffffffffffffffffffffffffffffffffffffff163373ffffffffffffffffffffffffffffffffffffffff1614612205576040517f08c379a00000000000000000000000000000000000000000000000000000000081526004016121fc9061ba20565b60405180910390fd5b6122317fb847adf766efdc0c372ccbcb94b214930e4127b0459799f157301c729ed656cb60001b619ca6565b61225d7fd1d972197f39c9abbe07945c3b4a5e9180214368da3d800f07e79c4ed859dd3660001b619ca6565b6122897f684989256d952537e987c60b041f527e199d40dd255aa65298b4b2367079172c60001b619ca6565b6122b57fea57fdfb4b1132e16760377c1fe673c616087c4b522b8c3ed228b54ee6e2974160001b619ca6565b6122e17f91b1d3d1cda8685449f4c8c9c8e061b04f7d4f6f3f8db69c556f0fa44320213160001b619ca6565b61230d7ff484d83c8a8f0e9be024ea6220e649dd3d1f295711ff201e68ee35879a54184360001b619ca6565b7f0000000000000000000000000000000000000000000000000000000000000000811015801561235d57507f00000000000000000000000000000000000000000000000000000000000000008111155b61239c576040517f08c379a00000000000000000000000000000000000000000000000000000000081526004016123939061ba00565b60405180910390fd5b6123c87f662a8acc725a92a6b58a333764c23355ccefd23e5e5c10e6e076fdc605a2a14960001b619ca6565b6123f47f2dd23f390013fca8b694d5dc8eb84a56f6008738f87b193b1c59c77da20d95a660001b619ca6565b6124207fda59513cb94d9661ef394750ebf85eb06379e2ef5dfb38bd35c41a0705a6400b60001b619ca6565b806002819055506124537fd98636c7049472d9ef29376641db9da5f51d6551a3376b19daf4af7b6a64b4e360001b619ca6565b61247f7f20c2ef18b8fe47d7c3101c94a337f549be24e63710cdc73a47cb4156752ce49c60001b619ca6565b7f0e7b26966cadbb5041eb3d80a66355b5d5e19844b954f24ec3ea3c0b2936fef06002546040516124b0919061bb1b565b60405180910390a150565b806124e87fc250fcc7c666f2b170c8be2b932a63a82882767ef2d69a346e14009c71d315ee60001b619ca6565b6125147f4d9785700f8161122e9aa891bcebb05ab1a394fb8476345175413771ebb37dba60001b619ca6565b6125407ff6fd6add7f241ecfe34d79239dc0b99e9f4878d54e19a3de732be144bdb5874860001b619ca6565b61256c7f3189d129b2d9ee2c5a8479781fb034e151d59b557a6eab1e8e3624f8ebfacd8260001b619ca6565b6125766004619ca9565b8111156125b8576040517f08c379a00000000000000000000000000000000000000000000000000000000081526004016125af9061bae0565b60405180910390fd5b6125e47f1aa3bac20e6ad34b701bf984a8eabcdee95578a88dc8b398dcd8ada4aac6a37260001b619ca6565b6126107f459115f158cf17cd3b1d75ad7c49381ef41d2cbc9901890fae3afd1ff0f8152660001b619ca6565b8161263d7f763cf9efe81d4adc51745eb9acc8fa51d3da1177d62d9dc0bfd0fa76bb1a003f60001b619ca6565b6126697ff9f60ee516ae7fc23be51d9d303f9d6e9102330ba094f9a1182381a8512bda2360001b619ca6565b6126957f0f18a7d93ac86841df08126d311c1e4c18bd557b22e3f33fa4a67cac1560de5460001b619ca6565b6126c17f3ec7cd6f323464df838a78ce176a85fccf5c8be3278cbdf2d19e80950c586ed160001b619ca6565b3373ffffffffffffffffffffffffffffffffffffffff166005600083815260200190815260200160002060020160009054906101000a900473ffffffffffffffffffffffffffffffffffffffff1673ffffffffffffffffffffffffffffffffffffffff1614612765576040517f08c379a000000000000000000000000000000000000000000000000000000000815260040161275c9061b860565b60405180910390fd5b6127917f9dd85500a2bd5ce0eb31cf00f3cca408df5f5a9e7405cb159d8342388f948fa760001b619ca6565b6127bd7f9fefbe709cab4c548990a70dc0c2ffcc9c1e457d8ba1c54f2326cbf1daad950060001b619ca6565b6127e97fb8fbb3e882c61ba6032e2ffbb0a5d1777ad7eb4753f4f7293f59ee0ac8f0f41c60001b619ca6565b6128157f3d1e38e12533919b91539fe87bda6681bb8ed30e1a146ee6be420ffc9b37760d60001b619ca6565b6128417fb10579504ef6380a642331c53b490ce1e21fffbfc520c026efdc06d2492dbee360001b619ca6565b6000600560008581526020019081526020016000206040518060a0016040529081600082015481526020016001820160009054906101000a900473ffffffffffffffffffffffffffffffffffffffff1673ffffffffffffffffffffffffffffffffffffffff1673ffffffffffffffffffffffffffffffffffffffff1681526020016002820160009054906101000a900473ffffffffffffffffffffffffffffffffffffffff1673ffffffffffffffffffffffffffffffffffffffff1673ffffffffffffffffffffffffffffffffffffffff168152602001600382015481526020016004820160009054906101000a900460ff16600581111561296c577f4e487b7100000000000000000000000000000000000000000000000000000000600052602160045260246000fd5b60058111156129a4577f4e487b7100000000000000000000000000000000000000000000000000000000600052602160045260246000fd5b8152505090506129d67fbde6a623475743af79d3001f89f3d5e6858ff93cfbad0d75b3ae0abcdccce01c60001b619ca6565b612a027fb963e474cbbdf3b8786479eebf53cef156333f5b3f2b5160ab3ef3341919d8a060001b619ca6565b612a2e7f411f474edb5c801ad89410d99657ac585038acca25ecac1335e74fc445acc0d460001b619ca6565b60006005811115612a68577f4e487b7100000000000000000000000000000000000000000000000000000000600052602160045260246000fd5b81608001516005811115612aa5577f4e487b7100000000000000000000000000000000000000000000000000000000600052602160045260246000fd5b1480612b25575060016005811115612ae6577f4e487b7100000000000000000000000000000000000000000000000000000000600052602160045260246000fd5b81608001516005811115612b23577f4e487b7100000000000000000000000000000000000000000000000000000000600052602160045260246000fd5b145b612b64576040517f08c379a0000000000000000000000000000000000000000000000000000000008152600401612b5b9061b8c0565b60405180910390fd5b612b907fba9db95cae24b0bf6d47cb5302e58a8f6d3a79ecea47e801ee2b81486249767660001b619ca6565b612bbc7f1b12a30ea648765fb532e2d9daaa0c1df9dc668806b3fd09e34656018046b30560001b619ca6565b612be87fc9b0d052a70c7dba40d414074d76db90dad9943e7e2001a887ff0f97194d814660001b619ca6565b600081606001519050612c1d7fd73280efc77566bbf1e3f9e136170fa7d1e2bb383a0152447754da710609fc8060001b619ca6565b612c497f8a9cffdad7f7705b0a188d74fcc41c4734db041aab1eea8adb982a35e26c4d0560001b619ca6565b600382608001906005811115612c88577f4e487b7100000000000000000000000000000000000000000000000000000000600052602160045260246000fd5b90816005811115612cc2577f4e487b7100000000000000000000000000000000000000000000000000000000600052602160045260246000fd5b81525050612cf27f7cdb511829a01eb123226bac237dbb14a65e9ff6549ba486ddcacc0f05f726f960001b619ca6565b612d1e7fcce59ad110e7a728de078143bb5f5b2629a8ef9691641c894b954f67faab657760001b619ca6565b81600560008781526020019081526020016000206000820151816000015560208201518160010160006101000a81548173ffffffffffffffffffffffffffffffffffffffff021916908373ffffffffffffffffffffffffffffffffffffffff16021790555060408201518160020160006101000a81548173ffffffffffffffffffffffffffffffffffffffff021916908373ffffffffffffffffffffffffffffffffffffffff1602179055506060820151816003015560808201518160040160006101000a81548160ff02191690836005811115612e25577f4e487b7100000000000000000000000000000000000000000000000000000000600052602160045260246000fd5b0217905550905050612e597f06f3bc9e8a7fa60dda8df76ad1c37ad71de2906c55f44c2f1f93920efa62a35a60001b619ca6565b612e857f6325be5c2dd68a0a1be4202bf5118557f93ef25eacf91ebd6546056751f45c2960001b619ca6565b7f2267760a98555bb0f97ee96e0fe62f8e95dadf36b987aaa899363b7d6ff03f8d82604051612eb4919061bb00565b60405180910390a1612ee87f225e91df135bbc2d58ddbbbcbbf0782d613bc6811213fec575474dca39a385a660001b619ca6565b612f147feca14eab09b3f982ea999f5a4f7026c3a53dd401ab730fe61a4ce5e5a8ca0bee60001b619ca6565b600b6000868152602001908152602001600020604051806040016040528060036005811115612f6c577f4e487b7100000000000000000000000000000000000000000000000000000000600052602160045260246000fd5b815260200142815250908060018154018082558091505060019003906000526020600020906002020160009091909190915060008201518160000160006101000a81548160ff02191690836005811115612fef577f4e487b7100000000000000000000000000000000000000000000000000000000600052602160045260246000fd5b021790555060208201518160010155505061302c7fdfe72834f7a1dc0d5a4c96f8c2607a54dbe9a3b677daf48bbb743c71299a60ec60001b619ca6565b6130587f0893552772568d7aabfbe2b96c74c84fa1a8b7b8b6e2e8e8be17b5da419283ee60001b619ca6565b6130847f46243a9a2c9c811e10f4552daa9bca32e41d1387ae4e82fde6cf83227f1712f560001b619ca6565b600160009054906101000a900473ffffffffffffffffffffffffffffffffffffffff1673ffffffffffffffffffffffffffffffffffffffff1663a9059cbb8360200151836040518363ffffffff1660e01b81526004016130e592919061b635565b602060405180830381600087803b1580156130ff57600080fd5b505af1158015613113573d6000803e3d6000fd5b505050506040513d601f19601f82011682018060405250810190613137919061a820565b613176576040517f08c379a000000000000000000000000000000000000000000000000000000000815260040161316d9061b900565b60405180910390fd5b6131a27f8eda39e238964c39d0b1a6f526888862e002ac731d9110afd6c9e6c1e0e9b0ab60001b619ca6565b5050505050565b60006131d77f548cd3ff66a3e6a4a87deaf85cf1ef80c275a33574e6eae9a8c8d71e5bb635d860001b619ca6565b6132037ff2bcc6adeff0265d47bc94e3a0ede54109636a9f295374dd87aa747d07d04a6760001b619ca6565b61322f7fbb3b6223a38e49a6babceb34ad8df7f04ab0672197319b7f8359972a1c227f4260001b619ca6565b7f000000000000000000000000000000000000000000000000000000000000000073ffffffffffffffffffffffffffffffffffffffff1631905090565b6132987f2f3825373e1cfab1f6060869a70308ae05706232be1e0a0c62e87ea90faec39860001b619ca6565b6132c47f523fef4e54ef1eba4c8a9c42eb51323c25593795c78f1f3594b9e520f1e14c5660001b619ca6565b6132f07fa7972995d9fb6a1d3fc47447d8206aa976fc823787d6609fc5401150b4e5060e60001b619ca6565b61331c7f88c5784dfc373346b16c3572f91087020b379443f57f7f2c9fa6804c0724e11e60001b619ca6565b600760003373ffffffffffffffffffffffffffffffffffffffff1673ffffffffffffffffffffffffffffffffffffffff16815260200190815260200160002060009054906101000a900460ff16156133a9576040517f08c379a00000000000000000000000000000000000000000000000000000000081526004016133a09061b840565b60405180910390fd5b6133d57f248592ef049af73116591a8a79298a6ec3787e972424e25c425104116cc3f50b60001b619ca6565b6134017fb9060db3d2220d0d145faf6ef01dd1a5285c8b2936f17b8de827e3a912080b1060001b619ca6565b61342d7f92281566680b4df278321039f4e93ad7be644e58ec1e527521866e29457bd33360001b619ca6565b6001600760003373ffffffffffffffffffffffffffffffffffffffff1673ffffffffffffffffffffffffffffffffffffffff16815260200190815260200160002060006101000a81548160ff0219169083151502179055506134b17f5459869fafb2482bb5cdf17d9dd851836d1dde01e22506e111580e429c103be060001b619ca6565b6134dd7f3d7a17d2a9ec8a2d894231c1afdb7f522c1daa2ecafa589549b11986b87be85f60001b619ca6565b33600860006134ec6003619ca9565b815260200190815260200160002060006101000a81548173ffffffffffffffffffffffffffffffffffffffff021916908373ffffffffffffffffffffffffffffffffffffffff1602179055506135647fca95b55e8b954ce1ab99d259d06a73bec2d302b684a196ad141ac5f93467b6d960001b619ca6565b6135907f089abad6cf579817862c7c7503903fa1d413c7981dd02adeb37cf955fa27614d60001b619ca6565b61359a6003619cb7565b6135c67fd396ed3a00802ff75b2e47490340cd7860aacdf1e46cf682a25c8df0e6dc1b0760001b619ca6565b6135f27f3835ba42ab81e44818d330a641d08b8183e08e8622c43574787eb56946622b8460001b619ca6565b7f4d97d287a8f631378031b05cb24c876085261ddaa7b8f584477370ef473fbb3d33604051613621919061b61a565b60405180910390a1565b7f000000000000000000000000000000000000000000000000000000000000000081565b61367b7fb604af745e407ead1d9c464fe130e4468b6de4d7bc92a38e2b5d53903b613ce760001b619ca6565b6136a77f2fed21d70abb1bb4cd02e25bac89136c4b47888945a417965def1478043a0e0860001b619ca6565b6136d37f1ddab6d604345718b8cb508ddefb337c0a01ccf76624d95f9444bdbf4e64814460001b619ca6565b6136ff7f180f9c229beb7314e7670a95cd7231e18a553ebad39493e8901fabc8d4f4463660001b619ca6565b7f000000000000000000000000000000000000000000000000000000000000000073ffffffffffffffffffffffffffffffffffffffff163373ffffffffffffffffffffffffffffffffffffffff161461378d576040517f08c379a00000000000000000000000000000000000000000000000000000000081526004016137849061ba20565b60405180910390fd5b6137b97fb847adf766efdc0c372ccbcb94b214930e4127b0459799f157301c729ed656cb60001b619ca6565b6137e57fd1d972197f39c9abbe07945c3b4a5e9180214368da3d800f07e79c4ed859dd3660001b619ca6565b806138127fc28f0108b4d68f5dbcf2d8ed52cfbd21c2d0f0346591eb76b2d8b5e489df311160001b619ca6565b61383e7fbb3dfa8969e9be88fba249e6cf93b9a92b2d55aab9c706f6499d6ae6cb5f715860001b619ca6565b61386a7f9040c26c806af0ce2cadc8ccffaa7347f4a655043e56940f91b03e984268550060001b619ca6565b60008173ffffffffffffffffffffffffffffffffffffffff1663feaf968c6040518163ffffffff1660e01b815260040160a06040518083038186803b1580156138b257600080fd5b505afa1580156138c6573d6000803e3d6000fd5b505050506040513d601f19601f820116820180604052508101906138ea919061a8d7565b50505091505061391c7f996949697e6b362502f7346079792a070f3b85274a796bc1b31a3daf31a8053360001b619ca6565b6139487f90e6a8260f772c11ffbbd8531950f077e54657828bde49a92843ed5e495e1e0960001b619ca6565b6139747fa685371408beb2e9ad4b960da6acac150016ee1da9508471f0a302bb3d92a4de60001b619ca6565b600081136139b7576040517f08c379a00000000000000000000000000000000000000000000000000000000081526004016139ae9061ba60565b60405180910390fd5b6139e37f1e03d8404cc9f6b50135cad3b5946eee8e0b6230f3acd3b82cbb53d04bf69e2a60001b619ca6565b613a0f7f826c3ace63c3a45cdff69a0a768c15f64bbfb0f758bd00f972cd175de95bd78360001b619ca6565b613a3b7f8082298fe2baaf7b8117d8ba7ed3813c9590221e2a2dac7c6f8c6979d7b01d0660001b619ca6565b613a677f939140d12d5695bac19f9cd0b87600a2762bf2316583ced953986f7c7137dfa760001b619ca6565b613a937f79e4c2c3c82d3b93c73bf83bbe9b07958f16d1c15bf30a0a315a1d83591cc1b860001b619ca6565b826000806101000a81548173ffffffffffffffffffffffffffffffffffffffff021916908373ffffffffffffffffffffffffffffffffffffffff160217905550613aff7fc9c52d64c425a984aa0afb18deec3c5270abcca1bcad7f24c75f5ad758d0b80960001b619ca6565b613b2b7fdec0857801c268e60f8cc8e77e71c383356a8342734c4e08befb58396fb6db6060001b619ca6565b613b577fdd15b8b5c07ee2eb471860f842764dc6c276df80837f2bde78669a07f87539e560001b619ca6565b3073ffffffffffffffffffffffffffffffffffffffff166324e9c1296040518163ffffffff1660e01b815260040160206040518083038186803b158015613b9d57600080fd5b505afa158015613bb1573d6000803e3d6000fd5b505050506040513d601f19601f82011682018060405250810190613bd5919061a820565b613c14576040517f08c379a0000000000000000000000000000000000000000000000000000000008152600401613c0b9061ba40565b60405180910390fd5b613c407f0b41e68e4784e79774ab5b684b84b3e0f74b2ec3de30b0c994c84b303f59290460001b619ca6565b613c6c7f388f78d9932ac40e21f35215940db14782f543306d234abdf3396f85a45126a560001b619ca6565b613c987f039fc19f10c7f62898d7c4caca565a815f9530ad1ec4d2eea74ffbbeec1001db60001b619ca6565b7f904e31ea43ecc6411d9c8f5c0704fcef15895bd6c834cd67eed1e8768d7c924383604051613cc7919061b61a565b60405180910390a1505050565b80613d017fc250fcc7c666f2b170c8be2b932a63a82882767ef2d69a346e14009c71d315ee60001b619ca6565b613d2d7f4d9785700f8161122e9aa891bcebb05ab1a394fb8476345175413771ebb37dba60001b619ca6565b613d597ff6fd6add7f241ecfe34d79239dc0b99e9f4878d54e19a3de732be144bdb5874860001b619ca6565b613d857f3189d129b2d9ee2c5a8479781fb034e151d59b557a6eab1e8e3624f8ebfacd8260001b619ca6565b613d8f6004619ca9565b811115613dd1576040517f08c379a0000000000000000000000000000000000000000000000000000000008152600401613dc89061bae0565b60405180910390fd5b613dfd7f1aa3bac20e6ad34b701bf984a8eabcdee95578a88dc8b398dcd8ada4aac6a37260001b619ca6565b613e297f459115f158cf17cd3b1d75ad7c49381ef41d2cbc9901890fae3afd1ff0f8152660001b619ca6565b81613e567f763cf9efe81d4adc51745eb9acc8fa51d3da1177d62d9dc0bfd0fa76bb1a003f60001b619ca6565b613e827ff9f60ee516ae7fc23be51d9d303f9d6e9102330ba094f9a1182381a8512bda2360001b619ca6565b613eae7f0f18a7d93ac86841df08126d311c1e4c18bd557b22e3f33fa4a67cac1560de5460001b619ca6565b613eda7f3ec7cd6f323464df838a78ce176a85fccf5c8be3278cbdf2d19e80950c586ed160001b619ca6565b3373ffffffffffffffffffffffffffffffffffffffff166005600083815260200190815260200160002060020160009054906101000a900473ffffffffffffffffffffffffffffffffffffffff1673ffffffffffffffffffffffffffffffffffffffff1614613f7e576040517f08c379a0000000000000000000000000000000000000000000000000000000008152600401613f759061b860565b60405180910390fd5b613faa7f9dd85500a2bd5ce0eb31cf00f3cca408df5f5a9e7405cb159d8342388f948fa760001b619ca6565b613fd67f9fefbe709cab4c548990a70dc0c2ffcc9c1e457d8ba1c54f2326cbf1daad950060001b619ca6565b6140027f063dd22d070ba65d9c7b81544a19a09468ad74900fa28b067ff23d6b04bdb8c560001b619ca6565b61402e7fcb03c2c32a3c911d668599bae9c18dcededda7d7c061a53585ea562563e9e24160001b619ca6565b61405a7fe6612b5b5d8128155b843d91508d4bd318927f1db3b9768cf74cf8a1e821f9a360001b619ca6565b6000600560008581526020019081526020016000206040518060a0016040529081600082015481526020016001820160009054906101000a900473ffffffffffffffffffffffffffffffffffffffff1673ffffffffffffffffffffffffffffffffffffffff1673ffffffffffffffffffffffffffffffffffffffff1681526020016002820160009054906101000a900473ffffffffffffffffffffffffffffffffffffffff1673ffffffffffffffffffffffffffffffffffffffff1673ffffffffffffffffffffffffffffffffffffffff168152602001600382015481526020016004820160009054906101000a900460ff166005811115614185577f4e487b7100000000000000000000000000000000000000000000000000000000600052602160045260246000fd5b60058111156141bd577f4e487b7100000000000000000000000000000000000000000000000000000000600052602160045260246000fd5b8152505090506141ef7fdd85c8d131c15bc8beb16398a27ba6efb010cc18da3db2ab80a8d3896081416860001b619ca6565b61421b7f76c95f2e14e0bb585882002fa39c54055275569cf39e3faa4db2855f696e23cd60001b619ca6565b6142477fc1d19fc70ec8e0aa4d97cdae1d3305aff50c84b9d66e78f17a4e6360ad290acc60001b619ca6565b60006005811115614281577f4e487b7100000000000000000000000000000000000000000000000000000000600052602160045260246000fd5b816080015160058111156142be577f4e487b7100000000000000000000000000000000000000000000000000000000600052602160045260246000fd5b146142fe576040517f08c379a00000000000000000000000000000000000000000000000000000000081526004016142f59061b980565b60405180910390fd5b61432a7f4768d454f4b1fb9657524e366c4ed6960859ee003b51837b4592579fb185010360001b619ca6565b6143567f5b5dcafc92d650e60e404f6a3e0b455bacc716beffbbb58cec0ef788f0b87eba60001b619ca6565b6143827fd6dd7ae9f22380ed2661f7f7a794db3fffe9cd475889d6e90bd612b8bc8f1f1f60001b619ca6565b6001816080019060058111156143c1577f4e487b7100000000000000000000000000000000000000000000000000000000600052602160045260246000fd5b908160058111156143fb577f4e487b7100000000000000000000000000000000000000000000000000000000600052602160045260246000fd5b8152505061442b7f6e389a194f7fef918fcd3102e29d047bcb7bd130eca0c938f8196d7d2425e5b060001b619ca6565b6144577f2afc99afe0ba638cc8f7066d740d6848ba102d2dcc7be885f3e688f6ca8a8c0760001b619ca6565b80600560008681526020019081526020016000206000820151816000015560208201518160010160006101000a81548173ffffffffffffffffffffffffffffffffffffffff021916908373ffffffffffffffffffffffffffffffffffffffff16021790555060408201518160020160006101000a81548173ffffffffffffffffffffffffffffffffffffffff021916908373ffffffffffffffffffffffffffffffffffffffff1602179055506060820151816003015560808201518160040160006101000a81548160ff0219169083600581111561455e577f4e487b7100000000000000000000000000000000000000000000000000000000600052602160045260246000fd5b02179055509050506145927fb5c42adf6ec4d9863681f8f4d82b96d485f3f119b9b3ed5bf3daaede68f55dea60001b619ca6565b6145be7f808a67122288f6be5375d61314105a7b7b1a197f22bb6fd2484bf70d41c2554b60001b619ca6565b7f3555e7cc004c34a850ba34c02e56afc2ad9410f106cd800dd981874158eb9f95816040516145ed919061bb00565b60405180910390a16146217f9d44a7c8c8bf05db117ea93ddd7d0cf63122a95c75060b230a7190dd5735407e60001b619ca6565b61464d7f079f356b44b5025353f87267e25003d47cdd13143776ba89f17d2278d80877be60001b619ca6565b600b60008581526020019081526020016000206040518060400160405280600160058111156146a5577f4e487b7100000000000000000000000000000000000000000000000000000000600052602160045260246000fd5b815260200142815250908060018154018082558091505060019003906000526020600020906002020160009091909190915060008201518160000160006101000a81548160ff02191690836005811115614728577f4e487b7100000000000000000000000000000000000000000000000000000000600052602160045260246000fd5b021790555060208201518160010155505050505050565b600061476d7f2f20e79afa48b22afaeaf80a68c5a770555142e9347a5711a45e2ed630c68a8660001b619ca6565b6147997f6d11d2452c73fb7dfc6e65367f30e8b9167292bd98afc038c93f722f09730c2a60001b619ca6565b6147c57f5ce4a6956d852c686cf30a07eae516645522a010eb100082907220a9d2f8e76d60001b619ca6565b6147cf6003619ca9565b905090565b60006148027f0c5ae01ff03025e59989dc22f4a74e9d8f599833481044b9c2390fbc4428db0860001b619ca6565b61482e7ff96fb0e04455b0ece378dece3c4acba9d5d494f79f4266adec7c260297a41acd60001b619ca6565b61485a7f901ee1db9c5da0196e6a7c705a0a685c35d0a9b48b78c088eefcf67cdebef55b60001b619ca6565b60003073ffffffffffffffffffffffffffffffffffffffff1663d356518b6040518163ffffffff1660e01b815260040160206040518083038186803b1580156148a257600080fd5b505afa1580156148b6573d6000803e3d6000fd5b505050506040513d601f19601f820116820180604052508101906148da919061a872565b90506149087fb803efb9531672ff7b206a11f9f53a46550dbba36e129ecd618d225236a7bd3560001b619ca6565b6149347f565bc3a934ed96b1eaf762d98a5c1f18f3bb23b2b2b6360dc143afd57a65f78660001b619ca6565b600254670de0b6b3a764000061494a919061bdde565b811015801561496e5750600254670de0b6b3a764000061496a919061bd2e565b8111155b91505090565b60606149a27f24c5840f616cdbf5870474d1ed70013d78e836118747b81d284dea92511edf3160001b619ca6565b6149ce7f875b6903697284fe480f855db5a15a323746ca64656d5542132bc4292b947d9a60001b619ca6565b6149fa7f0a04776473b778e71caeaab7d52590fa4eecff316a44f8d30d37e8cd868e9b8460001b619ca6565b6000614a066004619ca9565b67ffffffffffffffff811115614a45577f4e487b7100000000000000000000000000000000000000000000000000000000600052604160045260246000fd5b604051908082528060200260200182016040528015614a7e57816020015b614a6b61a51d565b815260200190600190039081614a635790505b509050614aad7fe3b03d54dfc0350ec38277d494c021c2cdcb58a37d6dee34ccfb13e41b9ec26460001b619ca6565b614ad97fec86d80c824974a912846bcbec096978da045eb29fe85d732cd04f8b324f3bf360001b619ca6565b60005b614ae66004619ca9565b811015614cff57614b197fdebb08de17a98e0d65a69c2a73b69971c04b3692ef70315e1088ddf16f5b626860001b619ca6565b614b457fe4faaae3ece202ac76b4df42ef318b0d05956e01eba6f4d7117b4634f4f7edaf60001b619ca6565b600560008281526020019081526020016000206040518060a0016040529081600082015481526020016001820160009054906101000a900473ffffffffffffffffffffffffffffffffffffffff1673ffffffffffffffffffffffffffffffffffffffff1673ffffffffffffffffffffffffffffffffffffffff1681526020016002820160009054906101000a900473ffffffffffffffffffffffffffffffffffffffff1673ffffffffffffffffffffffffffffffffffffffff1673ffffffffffffffffffffffffffffffffffffffff168152602001600382015481526020016004820160009054906101000a900460ff166005811115614c6e577f4e487b7100000000000000000000000000000000000000000000000000000000600052602160045260246000fd5b6005811115614ca6577f4e487b7100000000000000000000000000000000000000000000000000000000600052602160045260246000fd5b81525050828281518110614ce3577f4e487b7100000000000000000000000000000000000000000000000000000000600052603260045260246000fd5b602002602001018190525080614cf89061bf41565b9050614adc565b50614d2c7f3d3fab4cf556a6737bbda56afff27c3086cfe768be9fab3ed23ce4dd88b4796c60001b619ca6565b614d587f5189972b280812bbd1cfddd621ccc72dc1df74634bdafd62d6d895e96007a43360001b619ca6565b8091505090565b6000614d8d7f75d799c61a301726bce0511bb6b53a470d04dc2a5ff9a12ebe6a609a3d523b1e60001b619ca6565b614db97f14efacf4c8fe554bcb200b65dee01d062e870475474562e7234db3c6bf71997260001b619ca6565b614de57fd58217f4ac86e0014b78091264effacdd3dd4cd11f68edf065d09f33d4be049d60001b619ca6565b614def6004619ca9565b905090565b7f000000000000000000000000000000000000000000000000000000000000000081565b7f000000000000000000000000000000000000000000000000000000000000000081565b7f000000000000000000000000000000000000000000000000000000000000000081565b7f000000000000000000000000000000000000000000000000000000000000000081565b6060614eb27f8e911593c1c4b0475e1675137d10a3742f923a730bbea538a6fd9c41f12938e260001b619ca6565b614ede7fc7e5ea93189d9eb83ceb08449830c25a054f11aa971aecadd30b0875357b491660001b619ca6565b614f0a7fd792a606b40161cd6579e85c287c562867e01527ead3989e784096a9de2cc45460001b619ca6565b6000614f166003619ca9565b67ffffffffffffffff811115614f55577f4e487b7100000000000000000000000000000000000000000000000000000000600052604160045260246000fd5b604051908082528060200260200182016040528015614f835781602001602082028036833780820191505090505b509050614fb27f7a418c3964c1972e8368815fb34c0d3a3220030e7945270e39ebbef8799a101b60001b619ca6565b614fde7fb7be7f111e1742ae8db06feb0e824800f2bfcb8dc4db1705db6e482d3a0aa08760001b619ca6565b60005b614feb6003619ca9565b8110156151025761501e7f3df14989f95aa1825c08fdf73844921e73517077ba1cc6e41aac35ddbfe183ad60001b619ca6565b61504a7f8b5138ef7968d3cabd2c238bac511f9f8b352dc7704e6b5eca5b220ecdfe4a7460001b619ca6565b6008600082815260200190815260200160002060009054906101000a900473ffffffffffffffffffffffffffffffffffffffff168282815181106150b7577f4e487b7100000000000000000000000000000000000000000000000000000000600052603260045260246000fd5b602002602001019073ffffffffffffffffffffffffffffffffffffffff16908173ffffffffffffffffffffffffffffffffffffffff1681525050806150fb9061bf41565b9050614fe1565b5061512f7f73dba121b497e639d5c0b91bd1fe4773e2511c14a14c8cf58293f512c6c2a77260001b619ca6565b61515b7fe7889d2dac9d72905568aa1b5c5eef7d67aa6362f032de74a1231898837b3e8360001b619ca6565b8091505090565b8061518f7fc250fcc7c666f2b170c8be2b932a63a82882767ef2d69a346e14009c71d315ee60001b619ca6565b6151bb7f4d9785700f8161122e9aa891bcebb05ab1a394fb8476345175413771ebb37dba60001b619ca6565b6151e77ff6fd6add7f241ecfe34d79239dc0b99e9f4878d54e19a3de732be144bdb5874860001b619ca6565b6152137f3189d129b2d9ee2c5a8479781fb034e151d59b557a6eab1e8e3624f8ebfacd8260001b619ca6565b61521d6004619ca9565b81111561525f576040517f08c379a00000000000000000000000000000000000000000000000000000000081526004016152569061bae0565b60405180910390fd5b61528b7f1aa3bac20e6ad34b701bf984a8eabcdee95578a88dc8b398dcd8ada4aac6a37260001b619ca6565b6152b77f459115f158cf17cd3b1d75ad7c49381ef41d2cbc9901890fae3afd1ff0f8152660001b619ca6565b816152e47fd7578770c68535c94e2cd912e8f1c1d7f52df11e838fd02eb4f52aaad868c72d60001b619ca6565b6153107f4c5eb086fadd57ea0c2c86e186a32ce69741795e297197b6297d145164456e2760001b619ca6565b61533c7f5079266e2b68f5451c854365c03536ae1b2411987122cb69f2bf98587d9a1dc060001b619ca6565b6153687fa4d07fcc7bd9680906dd26d6713b556627a82110faaf42df5c50fa72f5a34ac760001b619ca6565b3373ffffffffffffffffffffffffffffffffffffffff166005600083815260200190815260200160002060010160009054906101000a900473ffffffffffffffffffffffffffffffffffffffff1673ffffffffffffffffffffffffffffffffffffffff161461540c576040517f08c379a00000000000000000000000000000000000000000000000000000000081526004016154039061b880565b60405180910390fd5b6154387f46227a4af9e8a1c95fd0cc742f765315538c9ee1cbfc51d54d9e348075474cb260001b619ca6565b6154647f49de181d7814a0503a50ed395d1020c3ead897885463b5499358688a9a1733cd60001b619ca6565b6154907f930c5d17b203fc4e728cd572195b1393c20c5c88cc4c3db4bf113a6709f4931960001b619ca6565b6154bc7f9a97ed2627f27c4191a50eb783501808b8189f83d66c661db176b4af25a3356b60001b619ca6565b6154e87f7b7f422ca8638424d1a92aacc7c630d12d219125ae5b3bda27b249141c19c41f60001b619ca6565b6000600560008581526020019081526020016000206040518060a0016040529081600082015481526020016001820160009054906101000a900473ffffffffffffffffffffffffffffffffffffffff1673ffffffffffffffffffffffffffffffffffffffff1673ffffffffffffffffffffffffffffffffffffffff1681526020016002820160009054906101000a900473ffffffffffffffffffffffffffffffffffffffff1673ffffffffffffffffffffffffffffffffffffffff1673ffffffffffffffffffffffffffffffffffffffff168152602001600382015481526020016004820160009054906101000a900460ff166005811115615613577f4e487b7100000000000000000000000000000000000000000000000000000000600052602160045260246000fd5b600581111561564b577f4e487b7100000000000000000000000000000000000000000000000000000000600052602160045260246000fd5b81525050905061567d7f506ea12aa5ea9c11560808876865e19076d46cb507197356e360d771a57a953060001b619ca6565b6156a97fda74a4f40115d384c14db4fd7f14f1c29590341eeea40e55abde9f92c21bf07360001b619ca6565b6156d57f3998eb88a6d738b0de7469f45214be7dbc34b01e3570298cfe050b8c6e59055a60001b619ca6565b6001600581111561570f577f4e487b7100000000000000000000000000000000000000000000000000000000600052602160045260246000fd5b8160800151600581111561574c577f4e487b7100000000000000000000000000000000000000000000000000000000600052602160045260246000fd5b1461578c576040517f08c379a00000000000000000000000000000000000000000000000000000000081526004016157839061bac0565b60405180910390fd5b6157b87f13a1c7663c591635383b2c140ccf4e8005ff228264917aaa2bf75b6ccb40382660001b619ca6565b6157e47f4eb3a7accefde04458cec4bad47df8f77daca00760cc20e55c2ff1d1b5d2e1a060001b619ca6565b6158107f993a3f93c603774b6472a1914f9a39b68529d1a9c0e3d3a889eb99b6006d9a8960001b619ca6565b6000816060015190506158457f2aa7fcf6ed07cc57a6cd614c3c5b61ef808f55aeb0c5110941262f82654b98eb60001b619ca6565b6158717fcc9e3765058efa83918a7333f007befd3a563cd4ca129bd227759eacb85c012e60001b619ca6565b6000826040015190506158a67fcde50748ba846e5ebfebf2e0619dbe5e0504ea479e9933796997596f87662a9960001b619ca6565b6158d27f8284eec1883e551c43fc1c88827883c20d17e895c20a46c73ea1bbd7d2e4e44760001b619ca6565b600283608001906005811115615911577f4e487b7100000000000000000000000000000000000000000000000000000000600052602160045260246000fd5b9081600581111561594b577f4e487b7100000000000000000000000000000000000000000000000000000000600052602160045260246000fd5b8152505061597b7f58d0d8861f0ad9c360d3458e2bede550ee4964ee228667d627e863191123803060001b619ca6565b6159a77f75f95cbc48d50a1e156700034167713395e9a1b29a1b5d0cb73450bdab8432e960001b619ca6565b82600560008881526020019081526020016000206000820151816000015560208201518160010160006101000a81548173ffffffffffffffffffffffffffffffffffffffff021916908373ffffffffffffffffffffffffffffffffffffffff16021790555060408201518160020160006101000a81548173ffffffffffffffffffffffffffffffffffffffff021916908373ffffffffffffffffffffffffffffffffffffffff1602179055506060820151816003015560808201518160040160006101000a81548160ff02191690836005811115615aae577f4e487b7100000000000000000000000000000000000000000000000000000000600052602160045260246000fd5b0217905550905050615ae27fca56337e1ece8d2166e2f6ec85451118f3a35125d74492eaa192558c46930e5f60001b619ca6565b615b0e7f32924087790e6e1eff492998c5d21910216e80a3f2de2f16054ed4000dd9405960001b619ca6565b7ff29c49891c531905f19a342b02854f2f6055275bb7ccf2c3cb101ae5565e082583604051615b3d919061bb00565b60405180910390a1615b717f1955e4880f8116f32773f763ec79eca15f58c0bc653c6deec6624118d4897ee960001b619ca6565b615b9d7f602277403046c6012ec6627ed6065d4b9421f5fb9689520c678519cff8ef915960001b619ca6565b600b6000878152602001908152602001600020604051806040016040528060026005811115615bf5577f4e487b7100000000000000000000000000000000000000000000000000000000600052602160045260246000fd5b815260200142815250908060018154018082558091505060019003906000526020600020906002020160009091909190915060008201518160000160006101000a81548160ff02191690836005811115615c78577f4e487b7100000000000000000000000000000000000000000000000000000000600052602160045260246000fd5b0217905550602082015181600101555050615cb57f16ca36c84e3d0449e936e24118fa1bca3042e49658dfe9da3593c9163d54a9b060001b619ca6565b615ce17f16ae56b7b0278ec76288f4e97cf89315191caa52c823e3059826a7fd96eeaf7360001b619ca6565b615d0d7f03e300fadba84e8870ee63b7b2b92aa450823789361022f1b2c283924c587e8960001b619ca6565b600160009054906101000a900473ffffffffffffffffffffffffffffffffffffffff1673ffffffffffffffffffffffffffffffffffffffff1663a9059cbb82846040518363ffffffff1660e01b8152600401615d6a92919061b635565b602060405180830381600087803b158015615d8457600080fd5b505af1158015615d98573d6000803e3d6000fd5b505050506040513d601f19601f82011682018060405250810190615dbc919061a820565b615dfb576040517f08c379a0000000000000000000000000000000000000000000000000000000008152600401615df29061b900565b60405180910390fd5b615e277f10a01ffb18d7e0ed57cfd34386a9781fc6ab8446fcf796c7ffcc34abb9bc5a5d60001b619ca6565b505050505050565b7f000000000000000000000000000000000000000000000000000000000000000081565b60025481565b600160009054906101000a900473ffffffffffffffffffffffffffffffffffffffff1681565b615eab7fb604af745e407ead1d9c464fe130e4468b6de4d7bc92a38e2b5d53903b613ce760001b619ca6565b615ed77f2fed21d70abb1bb4cd02e25bac89136c4b47888945a417965def1478043a0e0860001b619ca6565b615f037f1ddab6d604345718b8cb508ddefb337c0a01ccf76624d95f9444bdbf4e64814460001b619ca6565b615f2f7f180f9c229beb7314e7670a95cd7231e18a553ebad39493e8901fabc8d4f4463660001b619ca6565b7f000000000000000000000000000000000000000000000000000000000000000073ffffffffffffffffffffffffffffffffffffffff163373ffffffffffffffffffffffffffffffffffffffff1614615fbd576040517f08c379a0000000000000000000000000000000000000000000000000000000008152600401615fb49061ba20565b60405180910390fd5b615fe97fb847adf766efdc0c372ccbcb94b214930e4127b0459799f157301c729ed656cb60001b619ca6565b6160157fd1d972197f39c9abbe07945c3b4a5e9180214368da3d800f07e79c4ed859dd3660001b619ca6565b6160417f2931727fb631bea2ddc082cf22d358908ff84626431a1a36bb14d0cb9e43130c60001b619ca6565b61606d7f5da850e4e109e1f00edad5cc1a38557305007f93a871afa5253986d96d093cba60001b619ca6565b6160997fea4507926f9eed11c0e14367861f90de5c79ca04a84b648a31e74614e84a288d60001b619ca6565b6160c57f369ab3220b7b1ce176e3c48e5500c313d1a84ea9cb1b19e300b98b8452c40cdf60001b619ca6565b600073ffffffffffffffffffffffffffffffffffffffff168173ffffffffffffffffffffffffffffffffffffffff161415616135576040517f08c379a000000000000000000000000000000000000000000000000000000000815260040161612c9061b9a0565b60405180910390fd5b6161617f44c6967599c748492f77c18615b4dc9c35aec394299f1d17d636e69d3618a4a960001b619ca6565b61618d7f96c0afeef3b07cbdd749d0975dbc29b7d772bef8ed3fc61b5639797b0ef71f3960001b619ca6565b6161b97f63158f2e34087a380678865308a355e96dbc48a86be907d7c7e44cdba5d3800460001b619ca6565b60007f000000000000000000000000000000000000000000000000000000000000000073ffffffffffffffffffffffffffffffffffffffff1663e6a43905837f00000000000000000000000000000000000000000000000000000000000000006040518363ffffffff1660e01b815260040161623692919061b65e565b60206040518083038186803b15801561624e57600080fd5b505afa158015616262573d6000803e3d6000fd5b505050506040513d601f19601f82011682018060405250810190616286919061a717565b90506162b47f9a5389f0db9a5841b7fc23e36448e7f9541287f35692790a962042491991149c60001b619ca6565b6162e07f30275bde106903d6f887a0d455e97869b75799380271dd0d45e65660771e593760001b619ca6565b61630c7f18aef1f57fd66247f613c2a78e35cd0186edb04ae929a4de6ad533b9190d0b4b60001b619ca6565b600073ffffffffffffffffffffffffffffffffffffffff168173ffffffffffffffffffffffffffffffffffffffff16141561637c576040517f08c379a00000000000000000000000000000000000000000000000000000000081526004016163739061b8a0565b60405180910390fd5b6163a87f54aa0efd241a9db137b263380ded5ef0f60c4de04e8b61f2bf23d2392b7f8d0060001b619ca6565b6163d47f1fcf03ada96474c4621578bb6e217d54130b1c9ec489ec0bf977619c9eda928a60001b619ca6565b6164007f0f1f194fc4968b90c0f92ca227632d7f909fa8d3ca6faf9fb6753e453acbffe860001b619ca6565b81600160006101000a81548173ffffffffffffffffffffffffffffffffffffffff021916908373ffffffffffffffffffffffffffffffffffffffff16021790555061646d7f1b38839911b7e0e2fd64ecdf237086de3a154308b6f68da3f555e1f4d092864860001b619ca6565b6164997fb613cec68bb1f6dfe40aa1947613c98ac9232dbc79bade0d5a6de35ef07817c760001b619ca6565b7fb5d731a19edd905e799678edb014e703a37fa5d42ed912c389e3b76816a6171f600160009054906101000a900473ffffffffffffffffffffffffffffffffffffffff166040516164ea919061b61a565b60405180910390a15050565b6060816165257fc250fcc7c666f2b170c8be2b932a63a82882767ef2d69a346e14009c71d315ee60001b619ca6565b6165517f4d9785700f8161122e9aa891bcebb05ab1a394fb8476345175413771ebb37dba60001b619ca6565b61657d7ff6fd6add7f241ecfe34d79239dc0b99e9f4878d54e19a3de732be144bdb5874860001b619ca6565b6165a97f3189d129b2d9ee2c5a8479781fb034e151d59b557a6eab1e8e3624f8ebfacd8260001b619ca6565b6165b36004619ca9565b8111156165f5576040517f08c379a00000000000000000000000000000000000000000000000000000000081526004016165ec9061bae0565b60405180910390fd5b6166217f1aa3bac20e6ad34b701bf984a8eabcdee95578a88dc8b398dcd8ada4aac6a37260001b619ca6565b61664d7f459115f158cf17cd3b1d75ad7c49381ef41d2cbc9901890fae3afd1ff0f8152660001b619ca6565b6166797f41725f7d11acb816b38ad848e229c9a2d62aa19b2c5afadcfbdd533ea82b7bfd60001b619ca6565b6166a57fd25affeea353f5bbd993f2cd224a62da84ad0912928c0a44b731881d35d322f560001b619ca6565b6166d17f701b1d485982b720ca9da848359436e2158305144efc1b97e8af61826fb1df2260001b619ca6565b600b6000848152602001908152602001600020805480602002602001604051908101604052809291908181526020016000905b828210156167c757838290600052602060002090600202016040518060400160405290816000820160009054906101000a900460ff166005811115616772577f4e487b7100000000000000000000000000000000000000000000000000000000600052602160045260246000fd5b60058111156167aa577f4e487b7100000000000000000000000000000000000000000000000000000000600052602160045260246000fd5b815260200160018201548152505081526020019060010190616704565b50505050915050919050565b6060846168027fc610545d1a5fc67d9b58cc9552fd235f0d1fc11fc8d6ffed52d1b3bde1643e5a60001b619ca6565b61682e7f2ea098c71cda2f3491043904f5e2a3ffc956ccf9a06b438a0c2f4dab0d8456fe60001b619ca6565b61685a7f960a133d9fd0a5f1adebb842889a9744aa67594dfedd810336c1a41ccab77c4760001b619ca6565b6168867f30846067f625731bc3d20cd412340c2571331ca1d6c78f0aafe30b93a23b910e60001b619ca6565b600760008273ffffffffffffffffffffffffffffffffffffffff1673ffffffffffffffffffffffffffffffffffffffff16815260200190815260200160002060009054906101000a900460ff16616912576040517f08c379a00000000000000000000000000000000000000000000000000000000081526004016169099061b820565b60405180910390fd5b61693e7f5c6e7fa3232d87c512167591d5a97ae904a28711cb39645142ff1d750cbedfbe60001b619ca6565b61696a7faa62cb2499c0cb0f3f3297235108259231d57766cf1ba1306de3bd70685aac4760001b619ca6565b6169967f1385b7233db6466c85e85c098170267df4122c0fd337d3da15036db3dfec51ca60001b619ca6565b6169c27f8f9106e7ab00d7bc3b6959d4f094afba8979f674a07d47c27fc2a2253356f9c760001b619ca6565b6169ee7fb6b6cd9d4e618ac8d2a48cb48a3de97322af157e6b1549e1e4e7772800b76db560001b619ca6565b616a1a7f1073764d4e101b0f1af33ad7dc397e7d6144f82d0d1d03f88318c3dd9ea0ec2660001b619ca6565b600085118015616a2a5750600084115b8015616a365750600034145b616a75576040517f08c379a0000000000000000000000000000000000000000000000000000000008152600401616a6c9061b9c0565b60405180910390fd5b616aa17f5074afa42a259e45395c3970aa89bdd19243fd4196d5729038dbc0a1bfa04a7360001b619ca6565b616acd7f04f571aa2656450b1cf233639f22b5f302b7c4358996859f56ccd71d8fa9566160001b619ca6565b616af97fb8ebb4f5ca1ae4a704d9b164f855ac5cf38da48ecdd48e77a39e41a41fcd889560001b619ca6565b616b04338787619ccd565b616b307f5e25a03201652a0f75a5984deac7cc858aca05dd21d2a141820a62f64c5a498a60001b619ca6565b616b5c7f78a13d64baba9d00c0a1b6f3b840e34302d5de76f73a252c586659904e48ddf060001b619ca6565b616b887fa8bffbcfcd19945e303e30e52106ad233ae7081d3c049d4b550c21437fdc792660001b619ca6565b8273ffffffffffffffffffffffffffffffffffffffff166323b872dd3330876040518463ffffffff1660e01b8152600401616bc59392919061b6be565b602060405180830381600087803b158015616bdf57600080fd5b505af1158015616bf3573d6000803e3d6000fd5b505050506040513d601f19601f82011682018060405250810190616c17919061a820565b616c56576040517f08c379a0000000000000000000000000000000000000000000000000000000008152600401616c4d9061b960565b60405180910390fd5b616c827fc0afd74afab34026a8dd5250ce5c09f0153c9d7972344919a98c745a4df4d2eb60001b619ca6565b616cae7fd56b2abcf5ebfc5418453d90a059371026a3480f543d78ddd765b699b7aaf94660001b619ca6565b616cda7f900a5c96a47de3c0c5fbb26c4e33e84f41cd2362c6022caf4c99e980b9616da260001b619ca6565b616d067f6035290ed091187d6c735634dd924512140693c8214f6b3c5464808ef693be9360001b619ca6565b8273ffffffffffffffffffffffffffffffffffffffff1663095ea7b37f0000000000000000000000000000000000000000000000000000000000000000866040518363ffffffff1660e01b8152600401616d6192919061b71e565b602060405180830381600087803b158015616d7b57600080fd5b505af1158015616d8f573d6000803e3d6000fd5b505050506040513d601f19601f82011682018060405250810190616db3919061a820565b616df2576040517f08c379a0000000000000000000000000000000000000000000000000000000008152600401616de99061b8e0565b60405180910390fd5b616e1e7f8e60b218b718ab7792ac7d719fae90dd3f51206201d8c376bbdb1f80dfda3c9960001b619ca6565b616e4a7f8d65411c7fc4c7e2155fbb04080d9be35e4e3155013c6ae9fee6d22f583a638c60001b619ca6565b616e767f52cabe9502e5627219a03744927915962638a5f250bde5031e3d547e95ccdc0960001b619ca6565b6000600367ffffffffffffffff811115616eb9577f4e487b7100000000000000000000000000000000000000000000000000000000600052604160045260246000fd5b604051908082528060200260200182016040528015616ee75781602001602082028036833780820191505090505b509050616f167f2e5832a441ace187144548951d35d5cdf010a20dd8afeba3dcb74e81c1df525f60001b619ca6565b616f427fc95c2bc3c75b7ee6a44e7eb1f88eeaa5c19298756eb407f0769289af7bae36c060001b619ca6565b8381600081518110616f7d577f4e487b7100000000000000000000000000000000000000000000000000000000600052603260045260246000fd5b602002602001019073ffffffffffffffffffffffffffffffffffffffff16908173ffffffffffffffffffffffffffffffffffffffff1681525050616fe37f9000ec418c351d690fc85963ac66c4f8fcc95177c234f66c274201b1b3b4047b60001b619ca6565b61700f7fb0df182693d521f10d9bb5ffd1dd085a9c3f8dc41b4cb5752ca4bf8348ede4eb60001b619ca6565b7f00000000000000000000000000000000000000000000000000000000000000008160018151811061706a577f4e487b7100000000000000000000000000000000000000000000000000000000600052603260045260246000fd5b602002602001019073ffffffffffffffffffffffffffffffffffffffff16908173ffffffffffffffffffffffffffffffffffffffff16815250506170d07f7cba35ff64e74eaba81f5c0b7ab7b604dabd7b457b4d8910a89188c2b88809dd60001b619ca6565b6170fc7f3c9d4fd761ca8543da7f02ff8cfb4497035c6c6c844f8a4c2934b4e73405091360001b619ca6565b600160009054906101000a900473ffffffffffffffffffffffffffffffffffffffff1681600281518110617159577f4e487b7100000000000000000000000000000000000000000000000000000000600052603260045260246000fd5b602002602001019073ffffffffffffffffffffffffffffffffffffffff16908173ffffffffffffffffffffffffffffffffffffffff16815250506171bf7fdb164d5e79e108a656cd7b44b23fc50ca90838ef6d6b737d7482271b65739d7560001b619ca6565b6171eb7fe095165b8b6211b0a451fb1c163c737323e46bafd2b0a8c05ebde89c8838eba460001b619ca6565b7f000000000000000000000000000000000000000000000000000000000000000073ffffffffffffffffffffffffffffffffffffffff16638803dbee87878430426040518663ffffffff1660e01b815260040161724c95949392919061bb82565b600060405180830381600087803b15801561726657600080fd5b505af115801561727a573d6000803e3d6000fd5b505050506040513d6000823e3d601f19601f820116820180604052508101906172a3919061a7df565b92506172d17fb26ec8cc1b02112635c21e3647d1071d08f8da3e9dfeaa13262a56fd41b56a7b60001b619ca6565b6172fd7f34941f8a6ae6bde28bb715490b5061e5e2670f1cdb0aa27fbce980828993017d60001b619ca6565b8483600081518110617338577f4e487b7100000000000000000000000000000000000000000000000000000000600052603260045260246000fd5b602002602001015110156176dc576173727fd3115f703b3721b08c09e0538991a46f0a51bc44aff68805523ebc63389b5f3860001b619ca6565b61739e7f8303ccdc4df5d440e123157e1caef187a65bb64f26f5fab4b4acf5efc6e4c8b860001b619ca6565b6173ca7fefdd4054dcfa4489d4bb27d54cbb66876bb06afa326befe003ab40d15887d42060001b619ca6565b6173f67f7b32b236a0464d294c9e592f7ea7fcd60fa6d76f613a5f36d46f8a2d759f494860001b619ca6565b8373ffffffffffffffffffffffffffffffffffffffff1663095ea7b37f000000000000000000000000000000000000000000000000000000000000000060006040518363ffffffff1660e01b815260040161745292919061b6f5565b602060405180830381600087803b15801561746c57600080fd5b505af1158015617480573d6000803e3d6000fd5b505050506040513d601f19601f820116820180604052508101906174a4919061a820565b6174e3576040517f08c379a00000000000000000000000000000000000000000000000000000000081526004016174da9061b8e0565b60405180910390fd5b61750f7f409cd249ee8e3cfaa26e87146bc12e931643f5b058c4a95c44246331b2bfb5b160001b619ca6565b61753b7f74359c49fc80b0786fac9d973eafc92d2ef27e4af910cf3cdf0938c87972dd5d60001b619ca6565b6175677fe528e7c8f83b1a8ced8b17e37f2bc56f9e4c3c66833a89a20f861918e5c6254460001b619ca6565b6175937fa1564bae64d31f99a158bac6673ff2c4affebfb759e5e78e670bfbbbf3ec68b460001b619ca6565b8373ffffffffffffffffffffffffffffffffffffffff1663a9059cbb33856000815181106175ea577f4e487b7100000000000000000000000000000000000000000000000000000000600052603260045260246000fd5b6020026020010151886175fd919061bdde565b6040518363ffffffff1660e01b815260040161761a92919061b71e565b602060405180830381600087803b15801561763457600080fd5b505af1158015617648573d6000803e3d6000fd5b505050506040513d601f19601f8201168201806040525081019061766c919061a820565b6176ab576040517f08c379a00000000000000000000000000000000000000000000000000000000081526004016176a29061b900565b60405180910390fd5b6176d77f703e06f6edacf757b21382439cfa0eb9fe7874ef7a5a59ef5516fce25ca802bf60001b619ca6565b617709565b6177087f5451b4d24bff6eeeec27369dde6a4ea1efb68ab8bf69783183b20ec49e48a7cc60001b619ca6565b5b5050949350505050565b61771b61a51d565b816177487fc250fcc7c666f2b170c8be2b932a63a82882767ef2d69a346e14009c71d315ee60001b619ca6565b6177747f4d9785700f8161122e9aa891bcebb05ab1a394fb8476345175413771ebb37dba60001b619ca6565b6177a07ff6fd6add7f241ecfe34d79239dc0b99e9f4878d54e19a3de732be144bdb5874860001b619ca6565b6177cc7f3189d129b2d9ee2c5a8479781fb034e151d59b557a6eab1e8e3624f8ebfacd8260001b619ca6565b6177d66004619ca9565b811115617818576040517f08c379a000000000000000000000000000000000000000000000000000000000815260040161780f9061bae0565b60405180910390fd5b6178447f1aa3bac20e6ad34b701bf984a8eabcdee95578a88dc8b398dcd8ada4aac6a37260001b619ca6565b6178707f459115f158cf17cd3b1d75ad7c49381ef41d2cbc9901890fae3afd1ff0f8152660001b619ca6565b61789c7fcb9f111e744a0e97425a959edd7409f3a3e4cda9b6a26c0b11baad7413c7762160001b619ca6565b6178c87f821b2418f9233b2c66b4b694c605209cdad77c4d915823b1f9a741107063951160001b619ca6565b6178f47f71fe6ae6dbf7acc9ce4d748b8b685a95ec344b2aaacc10aec48814b13036a52560001b619ca6565b600560008481526020019081526020016000206040518060a0016040529081600082015481526020016001820160009054906101000a900473ffffffffffffffffffffffffffffffffffffffff1673ffffffffffffffffffffffffffffffffffffffff1673ffffffffffffffffffffffffffffffffffffffff1681526020016002820160009054906101000a900473ffffffffffffffffffffffffffffffffffffffff1673ffffffffffffffffffffffffffffffffffffffff1673ffffffffffffffffffffffffffffffffffffffff168152602001600382015481526020016004820160009054906101000a900460ff166005811115617a1d577f4e487b7100000000000000000000000000000000000000000000000000000000600052602160045260246000fd5b6005811115617a55577f4e487b7100000000000000000000000000000000000000000000000000000000600052602160045260246000fd5b81525050915050919050565b6000617a8f7fd597e320beabd7f19c8be59bb7c2c1c39c498317317afa0637cf8b3ee64408b860001b619ca6565b617abb7f12032d21b15d9ef2009494d4a530f3bf9687d5685c2d5231143405a74696915b60001b619ca6565b617ae77f3627ea9b836559ebb2964db7384eb443df856844ad430566a7947c82911d4a7e60001b619ca6565b60008060009054906101000a900473ffffffffffffffffffffffffffffffffffffffff1673ffffffffffffffffffffffffffffffffffffffff1663feaf968c6040518163ffffffff1660e01b815260040160a06040518083038186803b158015617b5057600080fd5b505afa158015617b64573d6000803e3d6000fd5b505050506040513d601f19601f82011682018060405250810190617b88919061a8d7565b505050915050617bba7fa83ef286fb8266389ce625eee0d4df9866d7af436a118d926b78c2ac808d665160001b619ca6565b617be67fbe6316a80b28d81d862e6dd81593f2ae280e60b2b1c8943c5a878ce8920759e260001b619ca6565b60006402540be40082617bf9919061bd84565b9050617c277f5bf7170b670e16ed4f4201e61fddd14239803c0b63f1341919b8f320cca8671260001b619ca6565b617c537fe66a71cd142bf99a951b99fb0d42fc05d6f3ec0b05516bffe58e3992f0501f3760001b619ca6565b809250505090565b80617c887fc250fcc7c666f2b170c8be2b932a63a82882767ef2d69a346e14009c71d315ee60001b619ca6565b617cb47f4d9785700f8161122e9aa891bcebb05ab1a394fb8476345175413771ebb37dba60001b619ca6565b617ce07ff6fd6add7f241ecfe34d79239dc0b99e9f4878d54e19a3de732be144bdb5874860001b619ca6565b617d0c7f3189d129b2d9ee2c5a8479781fb034e151d59b557a6eab1e8e3624f8ebfacd8260001b619ca6565b617d166004619ca9565b811115617d58576040517f08c379a0000000000000000000000000000000000000000000000000000000008152600401617d4f9061bae0565b60405180910390fd5b617d847f1aa3bac20e6ad34b701bf984a8eabcdee95578a88dc8b398dcd8ada4aac6a37260001b619ca6565b617db07f459115f158cf17cd3b1d75ad7c49381ef41d2cbc9901890fae3afd1ff0f8152660001b619ca6565b81617ddd7fd7578770c68535c94e2cd912e8f1c1d7f52df11e838fd02eb4f52aaad868c72d60001b619ca6565b617e097f4c5eb086fadd57ea0c2c86e186a32ce69741795e297197b6297d145164456e2760001b619ca6565b617e357f5079266e2b68f5451c854365c03536ae1b2411987122cb69f2bf98587d9a1dc060001b619ca6565b617e617fa4d07fcc7bd9680906dd26d6713b556627a82110faaf42df5c50fa72f5a34ac760001b619ca6565b3373ffffffffffffffffffffffffffffffffffffffff166005600083815260200190815260200160002060010160009054906101000a900473ffffffffffffffffffffffffffffffffffffffff1673ffffffffffffffffffffffffffffffffffffffff1614617f05576040517f08c379a0000000000000000000000000000000000000000000000000000000008152600401617efc9061b880565b60405180910390fd5b617f317f46227a4af9e8a1c95fd0cc742f765315538c9ee1cbfc51d54d9e348075474cb260001b619ca6565b617f5d7f49de181d7814a0503a50ed395d1020c3ead897885463b5499358688a9a1733cd60001b619ca6565b617f897f7ff3d06111479f93d0371872cb1aa76f8b43d3bd915869a26281683fb173df8160001b619ca6565b617fb57f31b6f06299db9a35359f4cfee847b94ac6e7686e38781586ca183a4702cfce5f60001b619ca6565b617fe17f68f444de6d7da9b02cb9ec175ef6ff6a275c50c8f5f0da16a17ca2a8ce9e793760001b619ca6565b6000600560008581526020019081526020016000206040518060a0016040529081600082015481526020016001820160009054906101000a900473ffffffffffffffffffffffffffffffffffffffff1673ffffffffffffffffffffffffffffffffffffffff1673ffffffffffffffffffffffffffffffffffffffff1681526020016002820160009054906101000a900473ffffffffffffffffffffffffffffffffffffffff1673ffffffffffffffffffffffffffffffffffffffff1673ffffffffffffffffffffffffffffffffffffffff168152602001600382015481526020016004820160009054906101000a900460ff16600581111561810c577f4e487b7100000000000000000000000000000000000000000000000000000000600052602160045260246000fd5b6005811115618144577f4e487b7100000000000000000000000000000000000000000000000000000000600052602160045260246000fd5b8152505090506181767fd5bc3365eb83035c9bcef6acb5878e54f10020183a1b56a1e68ef8e7691071b160001b619ca6565b6181a27fba69c7b4256736f2973cf3d886ffd52d417c4f08b2bac4a7da8e7ffa2f19db9460001b619ca6565b6181ce7fccbea299914cc5ca593232df4b0b48d644c2792465cffe9f9adaebb1f609200d60001b619ca6565b60006005811115618208577f4e487b7100000000000000000000000000000000000000000000000000000000600052602160045260246000fd5b81608001516005811115618245577f4e487b7100000000000000000000000000000000000000000000000000000000600052602160045260246000fd5b14806182c5575060016005811115618286577f4e487b7100000000000000000000000000000000000000000000000000000000600052602160045260246000fd5b816080015160058111156182c3577f4e487b7100000000000000000000000000000000000000000000000000000000600052602160045260246000fd5b145b80618344575060026005811115618305577f4e487b7100000000000000000000000000000000000000000000000000000000600052602160045260246000fd5b81608001516005811115618342577f4e487b7100000000000000000000000000000000000000000000000000000000600052602160045260246000fd5b145b618383576040517f08c379a000000000000000000000000000000000000000000000000000000000815260040161837a9061b940565b60405180910390fd5b6183af7fc6c26a38e48e863223f85aaefb2722fb0dba6f06529fd2abc6b5d7f4186244af60001b619ca6565b6183db7fc77bc0d34e0aff99329ad92366a874b44e9906cb4b133cf9dbb181d89f9a5a8d60001b619ca6565b6184077fd6c1581572ba6d3fe0d797da8510e9a70cb9e07c795292a8219221618d0de23e60001b619ca6565b60006005811115618441577f4e487b7100000000000000000000000000000000000000000000000000000000600052602160045260246000fd5b8160800151600581111561847e577f4e487b7100000000000000000000000000000000000000000000000000000000600052602160045260246000fd5b1415618bad576184b07f02a5925a0be3948df5d94967d72f449869c7906a5e2dfbe481e17d5b9fb9225260001b619ca6565b6184dc7f177df8762fc8ad2431dff1a16fd661dfa84f4b6df1612534d42cb4058da7728160001b619ca6565b6185087f3ecc71aced694ffee7eb6f49fd66f20df1c01fa23dd94ccdca8c5deee7592ce560001b619ca6565b600581608001906005811115618547577f4e487b7100000000000000000000000000000000000000000000000000000000600052602160045260246000fd5b90816005811115618581577f4e487b7100000000000000000000000000000000000000000000000000000000600052602160045260246000fd5b815250506185b17f36d5dabb899e522cbd4392a4f52e7b962e56f0c0812ea9eca91308953c1a295460001b619ca6565b6185dd7f5553a47d03355c02b84a9986d55d92bd12c258b273aa6134d17e9d1d4d58598360001b619ca6565b80600560008681526020019081526020016000206000820151816000015560208201518160010160006101000a81548173ffffffffffffffffffffffffffffffffffffffff021916908373ffffffffffffffffffffffffffffffffffffffff16021790555060408201518160020160006101000a81548173ffffffffffffffffffffffffffffffffffffffff021916908373ffffffffffffffffffffffffffffffffffffffff1602179055506060820151816003015560808201518160040160006101000a81548160ff021916908360058111156186e4577f4e487b7100000000000000000000000000000000000000000000000000000000600052602160045260246000fd5b02179055509050506187187f2c5340fed5ab5f1e7a55fe36bb7961815d8d072145feb7d0d0e283d63e915fd760001b619ca6565b6187447f526d23740f6cd744cbe0d47c8988f3da1a18563960010bb5cc91c60989c0bd9860001b619ca6565b7fe4abc940b5524be9ddb12bce78b2c90d7a2cf10a9baea081b6fb59df6f944dbc81604051618773919061bb00565b60405180910390a16187a77fc2c29879ab84f798365f70210860c10a474b36d94e17b14139995e9e2d07543d60001b619ca6565b6187d37fdc8064366e414cc349b65ec8277e21af1a886518ff86d10685e5989f99ddb4a660001b619ca6565b600b600085815260200190815260200160002060405180604001604052806004600581111561882b577f4e487b7100000000000000000000000000000000000000000000000000000000600052602160045260246000fd5b815260200142815250908060018154018082558091505060019003906000526020600020906002020160009091909190915060008201518160000160006101000a81548160ff021916908360058111156188ae577f4e487b7100000000000000000000000000000000000000000000000000000000600052602160045260246000fd5b02179055506020820151816001015550506188eb7fa267b0c21ce2506cdf63f258966399288466a8334d9ac86b72a001ac8d602a5560001b619ca6565b6189177fb40188545cf687881e13bf7cdc0445c8535b7c07380660d9e20140934b3f4d1f60001b619ca6565b600b6000858152602001908152602001600020604051806040016040528060058081111561896e577f4e487b7100000000000000000000000000000000000000000000000000000000600052602160045260246000fd5b815260200142815250908060018154018082558091505060019003906000526020600020906002020160009091909190915060008201518160000160006101000a81548160ff021916908360058111156189f1577f4e487b7100000000000000000000000000000000000000000000000000000000600052602160045260246000fd5b0217905550602082015181600101555050618a2e7f95aea693db7019f59bc1de6ebc568059f5fc9f91d3ad6e35065638fbf7a1327160001b619ca6565b618a5a7f53d5787b55289b19b9c3a844fbe02a3de5f89204638eeee9d87ba11c541c5bb660001b619ca6565b618a867f969ed67b8135a33911d9d61ad1901b3150325b3070b97ed1f9fdb55f8196119f60001b619ca6565b600160009054906101000a900473ffffffffffffffffffffffffffffffffffffffff1673ffffffffffffffffffffffffffffffffffffffff1663a9059cbb826020015183606001516040518363ffffffff1660e01b8152600401618aeb92919061b635565b602060405180830381600087803b158015618b0557600080fd5b505af1158015618b19573d6000803e3d6000fd5b505050506040513d601f19601f82011682018060405250810190618b3d919061a820565b618b7c576040517f08c379a0000000000000000000000000000000000000000000000000000000008152600401618b739061b900565b60405180910390fd5b618ba87f7c055877d5e09afbe823fa3892a0f8337170768be80ebab8008245554af5784460001b619ca6565b618fe9565b618bd97fdded08549f0a2bc705f050ac156e0ffdee408429aae54d504e16503b0edbeff960001b619ca6565b618c057f4fa26a4509c521fe8f1e6bb36c4673a87af7d941ad22462d5f6b8c5f7c2a4c9460001b619ca6565b618c317fc53135e51a530f6f9d47ecc0df32e7daa2c747f874caa415b3e3060a49eb66d360001b619ca6565b600481608001906005811115618c70577f4e487b7100000000000000000000000000000000000000000000000000000000600052602160045260246000fd5b90816005811115618caa577f4e487b7100000000000000000000000000000000000000000000000000000000600052602160045260246000fd5b81525050618cda7f31043fb0545df9ca3d765af91a1cbf996aedcd5c942b02ade217428d9b2301c460001b619ca6565b618d067f790f468ecab8b966273f50d217b2726fcbfeda6c704d2b0ddddee8418cc328c260001b619ca6565b80600560008681526020019081526020016000206000820151816000015560208201518160010160006101000a81548173ffffffffffffffffffffffffffffffffffffffff021916908373ffffffffffffffffffffffffffffffffffffffff16021790555060408201518160020160006101000a81548173ffffffffffffffffffffffffffffffffffffffff021916908373ffffffffffffffffffffffffffffffffffffffff1602179055506060820151816003015560808201518160040160006101000a81548160ff02191690836005811115618e0d577f4e487b7100000000000000000000000000000000000000000000000000000000600052602160045260246000fd5b0217905550905050618e417feb4f7ea80af5e76973c19e3dd95d70b782215f2154542a0ead5e6f8a4b37545960001b619ca6565b618e6d7f20a06957afd7dc77f1c7fa8b3ed6de2903896d472420a5b2e50e1161a0fa3be760001b619ca6565b7f66494901f6d8103f9e520ebfae3e91ccbdbfb608805cae99cebc1209eafa45f081604051618e9c919061bb00565b60405180910390a1618ed07f8c8749b617c3c36184d50fd00d8bb20b9f701e8f4e13e56d0eb78dfede30d05a60001b619ca6565b618efc7f1145a79794288970b6a8ad0e2c181bc4ea98ccd5b1291ee2883aa01b3f49748760001b619ca6565b600b6000858152602001908152602001600020604051806040016040528060046005811115618f54577f4e487b7100000000000000000000000000000000000000000000000000000000600052602160045260246000fd5b815260200142815250908060018154018082558091505060019003906000526020600020906002020160009091909190915060008201518160000160006101000a81548160ff02191690836005811115618fd7577f4e487b7100000000000000000000000000000000000000000000000000000000600052602160045260246000fd5b02179055506020820151816001015550505b50505050565b8161901c7fc610545d1a5fc67d9b58cc9552fd235f0d1fc11fc8d6ffed52d1b3bde1643e5a60001b619ca6565b6190487f2ea098c71cda2f3491043904f5e2a3ffc956ccf9a06b438a0c2f4dab0d8456fe60001b619ca6565b6190747f960a133d9fd0a5f1adebb842889a9744aa67594dfedd810336c1a41ccab77c4760001b619ca6565b6190a07f30846067f625731bc3d20cd412340c2571331ca1d6c78f0aafe30b93a23b910e60001b619ca6565b600760008273ffffffffffffffffffffffffffffffffffffffff1673ffffffffffffffffffffffffffffffffffffffff16815260200190815260200160002060009054906101000a900460ff1661912c576040517f08c379a00000000000000000000000000000000000000000000000000000000081526004016191239061b820565b60405180910390fd5b6191587f5c6e7fa3232d87c512167591d5a97ae904a28711cb39645142ff1d750cbedfbe60001b619ca6565b6191847faa62cb2499c0cb0f3f3297235108259231d57766cf1ba1306de3bd70685aac4760001b619ca6565b6191b07fdda30f1bc89c4f62223bf6a054bf3166f5e4feb1bc1f27010ff832236c2e8b1a60001b619ca6565b6191dc7f68ff0b499ada9aa6f9558e7266e667c5d74e3f1c982d569f98ce3a3da92592fb60001b619ca6565b6192087f41d2729a6d8c5caa7157d081c8b83c1fcf1b464555f8ab599b89254365657efd60001b619ca6565b6192347fa33f2fa929e1457842876521796b5c4c71246e6d7ee652c0a5efcadc9a0c3e6860001b619ca6565b60003414619277576040517f08c379a000000000000000000000000000000000000000000000000000000000815260040161926e9061ba80565b60405180910390fd5b6192a37f2fc03068a8779d4b0c1039fb84b6c1d0bde6db6175edc1f74bd121d927e7239360001b619ca6565b6192cf7fa0e632adb9f8e730c26e623e1c14cb44083cf0e15b271fa712c0040c424b588660001b619ca6565b6192fa7e6b0fbe13aa42cca4e114d6d96781fbcf681406c6cc501ef4a07c5ac51f1bc960001b619ca6565b6193267f32e053289925d3fb5a4d52d1b53b15140c8c7bdf9bb755c842295b982848cf5b60001b619ca6565b60008211619369576040517f08c379a00000000000000000000000000000000000000000000000000000000081526004016193609061b9c0565b60405180910390fd5b6193957f8cb0c437061883f9335adf465786db5bc686df25c88e1b93db2228b365dedfdf60001b619ca6565b6193c17f638912712cea0174c320127854418d7fc729cfbb075b7c48cfa2d3eff89d30d260001b619ca6565b6193ed7ff471db5a857b3f2d7767b090acfed371b048d525247400578351210b8a25820e60001b619ca6565b6193f8338484619ccd565b6194247f9e9a0b55210df9eb7aae31270003ea4219fd75350665280e232521377ce364b860001b619ca6565b6194507f2d4964a11d7d4cc96053124311141a1157b81581ceec1ea83ab09d95920359cb60001b619ca6565b61947c7f581c835730d423f30f98a19dc05bfebf6bd431c38359cca09dc47f2bb67624e460001b619ca6565b600160009054906101000a900473ffffffffffffffffffffffffffffffffffffffff1673ffffffffffffffffffffffffffffffffffffffff166323b872dd3330856040518463ffffffff1660e01b81526004016194db9392919061b6be565b602060405180830381600087803b1580156194f557600080fd5b505af1158015619509573d6000803e3d6000fd5b505050506040513d601f19601f8201168201806040525081019061952d919061a820565b61956c576040517f08c379a00000000000000000000000000000000000000000000000000000000081526004016195639061b960565b60405180910390fd5b6195987fba98665d3c2f83c18a8f095e1c0a07bd716ce283bfd704848ac1e08f3ad0573a60001b619ca6565b505050565b7f000000000000000000000000000000000000000000000000000000000000000081565b6060826195f07fc610545d1a5fc67d9b58cc9552fd235f0d1fc11fc8d6ffed52d1b3bde1643e5a60001b619ca6565b61961c7f2ea098c71cda2f3491043904f5e2a3ffc956ccf9a06b438a0c2f4dab0d8456fe60001b619ca6565b6196487f960a133d9fd0a5f1adebb842889a9744aa67594dfedd810336c1a41ccab77c4760001b619ca6565b6196747f30846067f625731bc3d20cd412340c2571331ca1d6c78f0aafe30b93a23b910e60001b619ca6565b600760008273ffffffffffffffffffffffffffffffffffffffff1673ffffffffffffffffffffffffffffffffffffffff16815260200190815260200160002060009054906101000a900460ff16619700576040517f08c379a00000000000000000000000000000000000000000000000000000000081526004016196f79061b820565b60405180910390fd5b61972c7f5c6e7fa3232d87c512167591d5a97ae904a28711cb39645142ff1d750cbedfbe60001b619ca6565b6197587faa62cb2499c0cb0f3f3297235108259231d57766cf1ba1306de3bd70685aac4760001b619ca6565b6197847ffaff2f7a55a07392663ab1bf1c539334b2bac8e8f53543aa29b9dd0a3c690a6f60001b619ca6565b6197af7ec49b97ffe2bfebfa950fa3b8f23df556347051047f191dc4ac04d64751d1e460001b619ca6565b6197db7ffc7cec08a9636c67296055aabf5d85ed51cd063652c56ed0203da1b7661afc8560001b619ca6565b6198077f650859e4db88a612d1be2cac36765778e5261b29a96bb609bdb6b96e0a57ea3760001b619ca6565b6000831180156198175750600034115b619856576040517f08c379a000000000000000000000000000000000000000000000000000000000815260040161984d9061b9c0565b60405180910390fd5b6198827f2dee61dcecddbce19627f891d9fee04be7ff3ce3df6bf5fb5c9536952a84e7ca60001b619ca6565b6198ae7f648eea9348c52f3d201a7f7399b3bc2406b1d5483b0a4b9f049f103aa6219a5760001b619ca6565b6198da7fdbded2dc6317223d614652f6bf520e9a3d55589e8c53d3edd862047be11e709860001b619ca6565b6198e5338585619ccd565b6199117f2d9d017df57a07258f64d30a5cfd6391d307a03ec037b576415924b7ece529f060001b619ca6565b61993d7fb170c8f185206beec017256927f16f721aa1f62a0e6a90368f90dbacde43f06460001b619ca6565b6000600267ffffffffffffffff811115619980577f4e487b7100000000000000000000000000000000000000000000000000000000600052604160045260246000fd5b6040519080825280602002602001820160405280156199ae5781602001602082028036833780820191505090505b5090506199dd7f56681e68593dfed44898fa677995120b367b58e6026ce08b40b77a6a0a2df31960001b619ca6565b619a097feaddbac6b6ea783fcf10b8ec95f26bf7a290dcf1fc8e5e2cc5b1280639b6760760001b619ca6565b7f000000000000000000000000000000000000000000000000000000000000000081600081518110619a64577f4e487b7100000000000000000000000000000000000000000000000000000000600052603260045260246000fd5b602002602001019073ffffffffffffffffffffffffffffffffffffffff16908173ffffffffffffffffffffffffffffffffffffffff1681525050619aca7f48dce91cb65226cb2bdff47c701560d9dfefc67d5782286c6e4044085fa8656060001b619ca6565b619af67ff31e39019020a2bc97d0951a1c71ca62f53954d327598462709c2a4d3817c4fb60001b619ca6565b600160009054906101000a900473ffffffffffffffffffffffffffffffffffffffff1681600181518110619b53577f4e487b7100000000000000000000000000000000000000000000000000000000600052603260045260246000fd5b602002602001019073ffffffffffffffffffffffffffffffffffffffff16908173ffffffffffffffffffffffffffffffffffffffff1681525050619bb97f49f43336cf1bf6e0036c1742beba9e36834aeebb0f89ec2c520c852ae5e2abc660001b619ca6565b619be57f0ab434e991942ef693406c3e5b238d7b07460c07816c007bd42b56daba3d6cc460001b619ca6565b7f000000000000000000000000000000000000000000000000000000000000000073ffffffffffffffffffffffffffffffffffffffff16638a657e6734868430426040518663ffffffff1660e01b8152600401619c45949392919061bb36565b6000604051808303818588803b158015619c5e57600080fd5b505af1158015619c72573d6000803e3d6000fd5b50505050506040513d6000823e3d601f19601f82011682018060405250810190619c9c919061a7df565b9250505092915050565b50565b600081600001549050919050565b6001816000016000828254019250508190555050565b619cf97fc2d97eb401b17d19a4bc366322afa48a870a04708c2191129540418421fe00f860001b619ca6565b619d257fea9b2d18008bfbe3a2464c160b315f6ae5868d5ca9349c7b791459d7f29166ff60001b619ca6565b619d517f97d8cbadb575ab2d8a919b1a20c2e200906012632831e558995cd3a8f544d1b060001b619ca6565b600660008473ffffffffffffffffffffffffffffffffffffffff1673ffffffffffffffffffffffffffffffffffffffff16815260200190815260200160002060009054906101000a900460ff16619e8357619dce7f5ddf26b489a9b44c843f1916d0184cb49e9def90af7d14bbedfddb6332be0c7c60001b619ca6565b619dfa7f75e1e477bab38f14c04cc15a89a17fc4d13319bd530b296dcab878bdfeab37eb60001b619ca6565b619e267f9f867c6d9d97fb6538f9e212bb4380f66c136a285fb89d732119e51613159a4860001b619ca6565b6001600660008573ffffffffffffffffffffffffffffffffffffffff1673ffffffffffffffffffffffffffffffffffffffff16815260200190815260200160002060006101000a81548160ff021916908315150217905550619eb0565b619eaf7f91543b002b9de2c49545cf94f541639b43f5242efe290a9bf87e93ebcf1142a460001b619ca6565b5b619edc7f41ea53f5cd821a98ced5637480bc8888e2fb47d9b210ec89f9d17094d84da2a360001b619ca6565b619f087fc1ea48f82fa84bfddfc31e637f5f98c030214491d6e0a03f0d7622e0da98884360001b619ca6565b6000619f146004619ca9565b9050619f427f74863b1895c2318d46fa66f74295b771c84753d76f15b7efafa8d5c9b55cfca460001b619ca6565b619f6e7fefa3728210fa9ea3548e3a7da06fa36c96aa3aacb6b0f36ffb4743ab50307abd60001b619ca6565b600b6000828152602001908152602001600020604051806040016040528060006005811115619fc6577f4e487b7100000000000000000000000000000000000000000000000000000000600052602160045260246000fd5b815260200142815250908060018154018082558091505060019003906000526020600020906002020160009091909190915060008201518160000160006101000a81548160ff0219169083600581111561a049577f4e487b7100000000000000000000000000000000000000000000000000000000600052602160045260246000fd5b021790555060208201518160010155505061a0867f630c29fb1df2d02bf297da53f70a9b9c299cd02cbf2a58cf82b54da60f61cfbb60001b619ca6565b61a0b27fdaeec1955bb17c96238d855842aa6bf8cc8e7a24e26c1e1012da4cc68a377eb760001b619ca6565b60006040518060a001604052808381526020018673ffffffffffffffffffffffffffffffffffffffff1681526020018573ffffffffffffffffffffffffffffffffffffffff1681526020018481526020016000600581111561a13d577f4e487b7100000000000000000000000000000000000000000000000000000000600052602160045260246000fd5b815250905061a16e7f211dd4324feeb2d03b55a4b25f114fc3a9f80851e5ca1b6d454f004aa9f627ed60001b619ca6565b61a19a7f9e861ed50697f33a393006903748839c3b491b02d35b9819f6e5a6c955caadc160001b619ca6565b80600560008481526020019081526020016000206000820151816000015560208201518160010160006101000a81548173ffffffffffffffffffffffffffffffffffffffff021916908373ffffffffffffffffffffffffffffffffffffffff16021790555060408201518160020160006101000a81548173ffffffffffffffffffffffffffffffffffffffff021916908373ffffffffffffffffffffffffffffffffffffffff1602179055506060820151816003015560808201518160040160006101000a81548160ff0219169083600581111561a2a1577f4e487b7100000000000000000000000000000000000000000000000000000000600052602160045260246000fd5b021790555090505061a2d57f8c3cd9e060215a8883a004ee7282af1b9f8126b0ba1d6729291d45a2883dce0260001b619ca6565b61a3017f1884c7223919baa7cd7d6682fa46eb576ab1c8318b3f4ee4a48c0ad90350242c60001b619ca6565b600960008673ffffffffffffffffffffffffffffffffffffffff1673ffffffffffffffffffffffffffffffffffffffff16815260200190815260200160002082908060018154018082558091505060019003906000526020600020016000909190919091505561a3937f445c0f68a2814bc7ad5d9f9567842ab753d38a41a2a5b430e941c790b3c50b1560001b619ca6565b61a3bf7ff2e4485f98e68fda66306af8b1d1b1230bf1b4f917d45a7bd486c71629293a7c60001b619ca6565b600a60008573ffffffffffffffffffffffffffffffffffffffff1673ffffffffffffffffffffffffffffffffffffffff16815260200190815260200160002082908060018154018082558091505060019003906000526020600020016000909190919091505561a4517fdc426b3a6d6b950e2eb9d85503b5655a4c5e659f7961111b4e4b3b2947660c5c60001b619ca6565b61a47d7fd9250254a8e3796a249c205aa9264a1353b3966491c84c75b4bf02a3e454a5c960001b619ca6565b61a4876004619cb7565b61a4b37fa9f76ec0fc5c7eab62beb21e7a8cbeb5a9dd54ded19f322bccf2265f4c3d2b1160001b619ca6565b61a4df7f3fb1e4ed298eb4ac47eebdb08773fff7f2839d7df1bf2373c9e9bbaa2730ab9d60001b619ca6565b7f0bfcf83939c39dc1f2abaa43e6796d697726666dcc2a160e743e7922c332e8908160405161a50e919061bb00565b60405180910390a15050505050565b6040518060a0016040528060008152602001600073ffffffffffffffffffffffffffffffffffffffff168152602001600073ffffffffffffffffffffffffffffffffffffffff168152602001600081526020016000600581111561a5aa577f4e487b7100000000000000000000000000000000000000000000000000000000600052602160045260246000fd5b81525090565b600061a5c361a5be8461bc0d565b61bbdc565b9050808382526020820190508285602086028201111561a5e257600080fd5b60005b8581101561a612578161a5f8888261a6c4565b84526020840193506020830192505060018101905061a5e5565b5050509392505050565b60008135905061a62b8161c02b565b92915050565b60008151905061a6408161c02b565b92915050565b60008135905061a6558161c042565b92915050565b600082601f83011261a66c57600080fd5b815161a67c84826020860161a5b0565b91505092915050565b60008151905061a6948161c059565b92915050565b60008151905061a6a98161c070565b92915050565b60008135905061a6be8161c087565b92915050565b60008151905061a6d38161c087565b92915050565b60008151905061a6e88161c09e565b92915050565b60006020828403121561a70057600080fd5b600061a70e8482850161a61c565b91505092915050565b60006020828403121561a72957600080fd5b600061a7378482850161a631565b91505092915050565b6000806040838503121561a75357600080fd5b600061a7618582860161a646565b925050602061a7728582860161a6af565b9150509250929050565b6000806000806080858703121561a79257600080fd5b600061a7a08782880161a646565b945050602061a7b18782880161a6af565b935050604061a7c28782880161a6af565b925050606061a7d38782880161a61c565b91505092959194509250565b60006020828403121561a7f157600080fd5b600082015167ffffffffffffffff81111561a80b57600080fd5b61a8178482850161a65b565b91505092915050565b60006020828403121561a83257600080fd5b600061a8408482850161a685565b91505092915050565b60006020828403121561a85b57600080fd5b600061a8698482850161a6af565b91505092915050565b60006020828403121561a88457600080fd5b600061a8928482850161a6c4565b91505092915050565b6000806040838503121561a8ae57600080fd5b600061a8bc8582860161a6af565b925050602061a8cd8582860161a6af565b9150509250929050565b600080600080600060a0868803121561a8ef57600080fd5b600061a8fd8882890161a6d9565b955050602061a90e8882890161a69a565b945050604061a91f8882890161a6c4565b935050606061a9308882890161a6c4565b925050608061a9418882890161a6d9565b9150509295509295909350565b600061a95a838361a9cc565b60208301905092915050565b600061a972838361b4fd565b60408301905092915050565b600061a98a838361b52c565b60a08301905092915050565b600061a9a2838361b5fc565b60208301905092915050565b61a9b78161be9f565b82525050565b61a9c68161be24565b82525050565b61a9d58161be12565b82525050565b61a9e48161be12565b82525050565b600061a9f58261bc79565b61a9ff818561bcd9565b935061aa0a8361bc39565b8060005b8381101561aa3b57815161aa22888261a94e565b975061aa2d8361bca5565b92505060018101905061aa0e565b5085935050505092915050565b600061aa538261bc84565b61aa5d818561bcea565b935061aa688361bc49565b8060005b8381101561aa9957815161aa80888261a966565b975061aa8b8361bcb2565b92505060018101905061aa6c565b5085935050505092915050565b600061aab18261bc8f565b61aabb818561bcfb565b935061aac68361bc59565b8060005b8381101561aaf757815161aade888261a97e565b975061aae98361bcbf565b92505060018101905061aaca565b5085935050505092915050565b600061ab0f8261bc9a565b61ab19818561bd0c565b935061ab248361bc69565b8060005b8381101561ab5557815161ab3c888261a996565b975061ab478361bccc565b92505060018101905061ab28565b5085935050505092915050565b61ab6b8161be36565b82525050565b61ab7a8161beb1565b82525050565b61ab898161bed5565b82525050565b61ab988161bef9565b82525050565b61aba78161bf0b565b82525050565b600061abba60348361bd1d565b91507f4552524f523a20546869732073656c6c65722069736e2774207265676973746560008301527f72656420696e206f757220706c6174666f726d2e0000000000000000000000006020830152604082019050919050565b600061ac2060208361bd1d565b91507f4552524f523a20596f752061726520616c726561647920612073656c6c65722e6000830152602082019050919050565b600061ac60602b8361bd1d565b91507f4552524f523a20596f75277265206e6f74207468652073656c6c6572206f662060008301527f74686973206f726465722e0000000000000000000000000000000000000000006020830152604082019050919050565b600061acc6602a8361bd1d565b91507f4552524f523a20596f75277265206e6f7420746865206275796572206f66207460008301527f686973206f726465722e000000000000000000000000000000000000000000006020830152604082019050919050565b600061ad2c60428361bd1d565b91507f4552524f523a2054686520706169722057415641582f276e657741646472657360008301527f732720646f6573206e6f74206578697374206f6e206465636c6172656420444560208301527f582e0000000000000000000000000000000000000000000000000000000000006040830152606082019050919050565b600061adb860238361bd1d565b91507f4552524f523a20596f752063616e27742064656c6574652074686973206f726460008301527f65722e00000000000000000000000000000000000000000000000000000000006020830152604082019050919050565b600061ae1e60168361bd1d565b91507f4552524f523a20617070726f7665206661696c65642e000000000000000000006000830152602082019050919050565b600061ae5e60178361bd1d565b91507f4552524f523a207472616e73666572206661696c65642e0000000000000000006000830152602082019050919050565b600061ae9e60478361bd1d565b91507f4552524f523a2054686520616d6f756e7420796f752077616e74656420746f2060008301527f73656e64206973206e6f7420657175616c20746f20746865206f72646572277360208301527f2070726963652e000000000000000000000000000000000000000000000000006040830152606082019050919050565b600061af2a602b8361bd1d565b91507f4552524f523a20596f752063616e27742061736b20726566756e6420666f722060008301527f74686973206f726465722e0000000000000000000000000000000000000000006020830152604082019050919050565b600061af90601b8361bd1d565b91507f4552524f523a207472616e7366657246726f6d206661696c65642e00000000006000830152602082019050919050565b600061afd060218361bd1d565b91507f4552524f523a20596f752063616e277420736869702074686973206f7264657260008301527f2e000000000000000000000000000000000000000000000000000000000000006020830152604082019050919050565b600061b03660288361bd1d565b91507f4552524f523a20546865206164647265737320796f7520696e7365727465642060008301527f6973206e756c6c2e0000000000000000000000000000000000000000000000006020830152604082019050919050565b600061b09c60268361bd1d565b91507f4552524f523a20546865206f7264657220616d6f756e742063616e277420626560008301527f206e756c6c2e00000000000000000000000000000000000000000000000000006020830152604082019050919050565b600061b10260338361bd1d565b91507f4552524f523a20546869732075736572206973206e6f7420726567697374657260008301527f656420696e206f757220706c6174666f726d2e000000000000000000000000006020830152604082019050919050565b600061b16860428361bd1d565b91507f4552524f523a205468726573686f6c64206d757374206265206265747765656e60008301527f20736574746564206c6f776572426f756e6420616e6420686967686572426f7560208301527f6e640000000000000000000000000000000000000000000000000000000000006040830152606082019050919050565b600061b1f460458361bd1d565b91507f4552524f523a204f6e6c7920746865206f776e6572206f66207468697320736d60008301527f61727420636f6e74726163742063616e20706572666f726d207468697320616360208301527f74696f6e2e0000000000000000000000000000000000000000000000000000006040830152606082019050919050565b600061b28060418361bd1d565b91507f4552524f523a20596f75277265206368616e67696e672074686520646174612060008301527f6665656420746f2061206e6f6e2d737461626c65636f696e207761746368657260208301527f2e000000000000000000000000000000000000000000000000000000000000006040830152606082019050919050565b600061b30c60378361bd1d565b91507f4552524f523a2041646472657373206e6f7420636f6e7665727469626c65207460008301527f6f2041676772656761746f725633496e746572666163650000000000000000006020830152604082019050919050565b600061b37260238361bd1d565b91507f4552524f523a20596f7527726520747279696e6720746f207370656e6420415660008301527f41582e00000000000000000000000000000000000000000000000000000000006020830152604082019050919050565b600061b3d860318361bd1d565b91507f4552524f523a20596f752063616e277420706572666f726d206120726566756e60008301527f6420666f722074686973206f726465722e0000000000000000000000000000006020830152604082019050919050565b600061b43e60248361bd1d565b91507f4552524f523a20596f752063616e277420636f6e6669726d2074686973206f7260008301527f6465722e000000000000000000000000000000000000000000000000000000006020830152604082019050919050565b600061b4a460218361bd1d565b91507f4552524f523a2054686973206f7264657220646f6573206e6f7420657869737460008301527f2e000000000000000000000000000000000000000000000000000000000000006020830152604082019050919050565b60408201600082015161b513600085018261ab8f565b50602082015161b526602085018261b5fc565b50505050565b60a08201600082015161b542600085018261b5fc565b50602082015161b555602085018261a9bd565b50604082015161b568604085018261a9bd565b50606082015161b57b606085018261b5fc565b50608082015161b58e608085018261ab8f565b50505050565b60a08201600082015161b5aa600085018261b5fc565b50602082015161b5bd602085018261a9bd565b50604082015161b5d0604085018261a9bd565b50606082015161b5e3606085018261b5fc565b50608082015161b5f6608085018261ab8f565b50505050565b61b6058161be7f565b82525050565b61b6148161be7f565b82525050565b600060208201905061b62f600083018461a9db565b92915050565b600060408201905061b64a600083018561a9ae565b61b657602083018461b60b565b9392505050565b600060408201905061b673600083018561a9db565b61b680602083018461a9db565b9392505050565b600060608201905061b69c600083018661a9db565b61b6a9602083018561a9ae565b61b6b6604083018461b60b565b949350505050565b600060608201905061b6d3600083018661a9db565b61b6e0602083018561a9db565b61b6ed604083018461b60b565b949350505050565b600060408201905061b70a600083018561a9db565b61b717602083018461ab9e565b9392505050565b600060408201905061b733600083018561a9db565b61b740602083018461b60b565b9392505050565b6000602082019050818103600083015261b761818461a9ea565b905092915050565b6000602082019050818103600083015261b783818461aa48565b905092915050565b6000602082019050818103600083015261b7a5818461aaa6565b905092915050565b6000602082019050818103600083015261b7c7818461ab04565b905092915050565b600060208201905061b7e4600083018461ab62565b92915050565b600060208201905061b7ff600083018461ab71565b92915050565b600060208201905061b81a600083018461ab80565b92915050565b6000602082019050818103600083015261b8398161abad565b9050919050565b6000602082019050818103600083015261b8598161ac13565b9050919050565b6000602082019050818103600083015261b8798161ac53565b9050919050565b6000602082019050818103600083015261b8998161acb9565b9050919050565b6000602082019050818103600083015261b8b98161ad1f565b9050919050565b6000602082019050818103600083015261b8d98161adab565b9050919050565b6000602082019050818103600083015261b8f98161ae11565b9050919050565b6000602082019050818103600083015261b9198161ae51565b9050919050565b6000602082019050818103600083015261b9398161ae91565b9050919050565b6000602082019050818103600083015261b9598161af1d565b9050919050565b6000602082019050818103600083015261b9798161af83565b9050919050565b6000602082019050818103600083015261b9998161afc3565b9050919050565b6000602082019050818103600083015261b9b98161b029565b9050919050565b6000602082019050818103600083015261b9d98161b08f565b9050919050565b6000602082019050818103600083015261b9f98161b0f5565b9050919050565b6000602082019050818103600083015261ba198161b15b565b9050919050565b6000602082019050818103600083015261ba398161b1e7565b9050919050565b6000602082019050818103600083015261ba598161b273565b9050919050565b6000602082019050818103600083015261ba798161b2ff565b9050919050565b6000602082019050818103600083015261ba998161b365565b9050919050565b6000602082019050818103600083015261bab98161b3cb565b9050919050565b6000602082019050818103600083015261bad98161b431565b9050919050565b6000602082019050818103600083015261baf98161b497565b9050919050565b600060a08201905061bb15600083018461b594565b92915050565b600060208201905061bb30600083018461b60b565b92915050565b600060808201905061bb4b600083018761b60b565b818103602083015261bb5d818661a9ea565b905061bb6c604083018561a9db565b61bb79606083018461b60b565b95945050505050565b600060a08201905061bb97600083018861b60b565b61bba4602083018761b60b565b818103604083015261bbb6818661a9ea565b905061bbc5606083018561a9db565b61bbd2608083018461b60b565b9695505050505050565b6000604051905081810181811067ffffffffffffffff8211171561bc035761bc0261bfe8565b5b8060405250919050565b600067ffffffffffffffff82111561bc285761bc2761bfe8565b5b602082029050602081019050919050565b6000819050602082019050919050565b6000819050602082019050919050565b6000819050602082019050919050565b6000819050602082019050919050565b600081519050919050565b600081519050919050565b600081519050919050565b600081519050919050565b6000602082019050919050565b6000602082019050919050565b6000602082019050919050565b6000602082019050919050565b600082825260208201905092915050565b600082825260208201905092915050565b600082825260208201905092915050565b600082825260208201905092915050565b600082825260208201905092915050565b600061bd398261be7f565b915061bd448361be7f565b9250827fffffffffffffffffffffffffffffffffffffffffffffffffffffffffffffffff0382111561bd795761bd7861bf8a565b5b828201905092915050565b600061bd8f8261be7f565b915061bd9a8361be7f565b9250817fffffffffffffffffffffffffffffffffffffffffffffffffffffffffffffffff048311821515161561bdd35761bdd261bf8a565b5b828202905092915050565b600061bde98261be7f565b915061bdf48361be7f565b92508282101561be075761be0661bf8a565b5b828203905092915050565b600061be1d8261be5f565b9050919050565b600061be2f8261be5f565b9050919050565b60008115159050919050565b600081905061be508261c017565b919050565b6000819050919050565b600073ffffffffffffffffffffffffffffffffffffffff82169050919050565b6000819050919050565b600069ffffffffffffffffffff82169050919050565b600061beaa8261bf1d565b9050919050565b600061bebc8261bec3565b9050919050565b600061bece8261be5f565b9050919050565b600061bee08261bee7565b9050919050565b600061bef28261be5f565b9050919050565b600061bf048261be42565b9050919050565b600061bf168261be7f565b9050919050565b600061bf288261bf2f565b9050919050565b600061bf3a8261be5f565b9050919050565b600061bf4c8261be7f565b91507fffffffffffffffffffffffffffffffffffffffffffffffffffffffffffffffff82141561bf7f5761bf7e61bf8a565b5b600182019050919050565b7f4e487b7100000000000000000000000000000000000000000000000000000000600052601160045260246000fd5b7f4e487b7100000000000000000000000000000000000000000000000000000000600052602160045260246000fd5b7f4e487b7100000000000000000000000000000000000000000000000000000000600052604160045260246000fd5b6006811061c0285761c02761bfb9565b5b50565b61c0348161be12565b811461c03f57600080fd5b50565b61c04b8161be24565b811461c05657600080fd5b50565b61c0628161be36565b811461c06d57600080fd5b50565b61c0798161be55565b811461c08457600080fd5b50565b61c0908161be7f565b811461c09b57600080fd5b50565b61c0a78161be89565b811461c0b257600080fd5b5056fea2646970667358221220a11c24595773d4455470c7452673fb9650c5e91b42f8872cfcf9e800fc8931c764736f6c63430008000033",
  "linkReferences": {},
  "deployedLinkReferences": {}
}